:020000040800F2
:1000000000500020B1610008AD300008AF3000089A
:10001000B1300008B3300008B5300008000000001F
:10002000000000000000000000000000B7300008E1
:10003000B930000800000000BB300008BD300008E7
:10004000F9610008F9610008F9610008F961000828
:10005000F9610008F9610008F9610008F961000818
:10006000F9610008F9610008F9610008F961000808
:10007000F9610008F9610008C9300008D9300008AA
:10008000F9610008F9610008F9610008F9610008E8
:10009000F9610008F9610008F9610008F9610008D8
:1000A000F9610008F9610008F9610008F9610008C8
:1000B000F9610008F9610008F9610008F9610008B8
:1000C000F9610008F9610008F9610008F9610008A8
:1000D000F9610008E9300008F9610008F9610008D9
:1000E0000D310008F9610008F96100080000000006
:1000F0000000000000000000000000000000000000
:0C01000000000000000000005FF808F1A3
:1001100010B5054C237833B9044B13B10448AFF341
:1001200000800123237010BDD002002000000000D9
:10013000549E000808B5034B1BB103490348AFF3B5
:10014000008008BD00000000D4020020549E00087A
:10015000034613F8012B002AFBD1181A0138704707
:1001600081F0004102E000BF83F0004330B54FEA68
:1001700041044FEA430594EA050F08BF90EA020FD5
:100180001FBF54EA000C55EA020C7FEA645C7FEA68
:10019000655C00F0E2804FEA5454D4EB5555B8BF8B
:1001A0006D420CDD2C4480EA020281EA030382EAFC
:1001B000000083EA010180EA020281EA0303362D8E
:1001C00088BF30BD11F0004F4FEA01314FF4801C61
:1001D0004CEA113102D0404261EB410113F0004F73
:1001E0004FEA03334CEA133302D0524263EB43032A
:1001F00094EA050F00F0A780A4F10104D5F1200EC8
:100200000DDB02FA0EFC22FA05F2801841F1000122
:1002100003FA0EF2801843FA05F359410EE0A5F1F6
:1002200020050EF1200E012A03FA0EFC28BF4CF027
:10023000020C43FA05F3C01851EBE37101F00045DD
:1002400007D54FF0000EDCF1000C7EEB00006EEBEA
:100250000101B1F5801F1BD3B1F5001F0CD3490874
:100260005FEA30004FEA3C0C04F101044FEA4452CB
:1002700012F5800F80F09A80BCF1004F08BF5FEA52
:10028000500C50F1000041EB045141EA050130BD32
:100290005FEA4C0C404141EB0101013C28BFB1F544
:1002A000801FE9D291F0000F04BF01460020B1FA8F
:1002B00081F308BF2033A3F10B03B3F120020CDA62
:1002C0000C3208DD02F1140CC2F10C0201FA0CF040
:1002D00021FA02F10CE002F11402D8BFC2F1200CA5
:1002E00001FA02F120FA0CFCDCBF41EA0C0190405B
:1002F000E41AA2BF01EB0451294330BD6FEA0404A4
:100300001F3C1CDA0C340EDC04F11404C4F120028E
:1003100020FA04F001FA02F340EA030021FA04F3A0
:1003200045EA030130BDC4F10C04C4F1200220FAF7
:1003300002F001FA04F340EA0300294630BD21FA35
:1003400004F0294630BD94F0000F83F4801306BFFB
:1003500081F480110134013D4EE77FEA645C18BFEF
:100360007FEA655C29D094EA050F08BF90EA020F86
:1003700005D054EA000C04BF1946104630BD91EA7E
:10038000030F1EBF0021002030BD5FEA545C05D181
:100390004000494128BF41F0004130BD14F58004C0
:1003A0003CBF01F5801130BD01F0004545F0FE4134
:1003B00041F470014FF0000030BD7FEA645C1ABF69
:1003C000194610467FEA655C1CBF0B46024650EAA0
:1003D000013406BF52EA033591EA030F41F40021CC
:1003E00030BD00BF90F0000F04BF0021704730B552
:1003F0004FF4806404F132044FF000054FF0000127
:1004000050E700BF90F0000F04BF0021704730B5E7
:100410004FF4806404F1320410F0004548BF4042BC
:100420004FF000013EE700BF42004FEAE2014FEA11
:1004300031014FEA02701FBF12F07F4393F07F4FEC
:1004400081F06051704732F07F4208BF704793F0EF
:100450007F4F04BF41F40021704730B54FF4607402
:1004600001F0004521F000411CE700BF50EA010205
:1004700008BF704730B54FF000050AE050EA0102AE
:1004800008BF704730B511F0004502D5404261EB1E
:1004900041014FF4806404F132045FEA915C3FF45F
:1004A000D8AE4FF003025FEADC0C18BF03325FEAFC
:1004B000DC0C18BF033202EBDC02C2F1200300FAAD
:1004C00003FC20FA02F001FA03FE40EA0E0021FAD2
:1004D00002F11444BDE600BF70B54FF0FF0C4CF4C0
:1004E000E06C1CEA11541DBF1CEA135594EA0C0F72
:1004F00095EA0C0F00F0DEF82C4481EA030621EAAD
:100500004C5123EA4C5350EA013518BF52EA0335E7
:1005100041F4801143F4801338D0A0FB02CE4FF099
:100520000005E1FB02E506F00042E0FB03E54FF0C9
:100530000006E1FB03569CF0000F18BF4EF0010EC1
:10054000A4F1FF04B6F5007F64F5407404D25FEABD
:100550004E0E6D4146EB060642EAC62141EA555170
:100560004FEAC52040EA5E504FEACE2EB4F1FD0CB2
:1005700088BFBCF5E06F1ED8BEF1004F08BF5FEA30
:10058000500E50F1000041EB045170BD06F00046E2
:1005900046EA010140EA020081EA0301B4EB5C048F
:1005A000C2BFD4EB0C0541EA045170BD41F4801187
:1005B0004FF0000E013C00F3AB8014F1360FDEBFAC
:1005C000002001F0004170BDC4F10004203C35DA88
:1005D0000C341BDC04F11404C4F1200500FA05F30B
:1005E00020FA04F001FA05F240EA020001F00042AC
:1005F00021F0004110EBD37021FA04F642EB060122
:100600005EEA430E08BF20EAD37070BDC4F10C044B
:10061000C4F1200500FA04F320FA05F001FA04F20F
:1006200040EA020001F0004110EBD37041F10001FB
:100630005EEA430E08BF20EAD37070BDC4F1200506
:1006400000FA05F24EEA020E20FA04F301FA05F26E
:1006500043EA020321FA04F001F0004121FA04F216
:1006600020EA020000EBD3705EEA430E08BF20EAE6
:10067000D37070BD94F0000F0FD101F00046400020
:1006800041EB010111F4801F08BF013CF7D041EAA2
:10069000060195F0000F18BF704703F000465200A6
:1006A00043EB030313F4801F08BF013DF7D043EA77
:1006B0000603704794EA0C0F0CEA135518BF95EA2D
:1006C0000C0F0CD050EA410618BF52EA4306D1D1B4
:1006D00081EA030101F000414FF0000070BD50EAD3
:1006E000410606BF1046194652EA430619D094EA5D
:1006F0000C0F02D150EA013613D195EA0C0F05D147
:1007000052EA03361CBF104619460AD181EA03019A
:1007100001F0004141F0FE4141F470014FF0000052
:1007200070BD41F0FE4141F4780170BD70B54FF0ED
:10073000FF0C4CF4E06C1CEA11541DBF1CEA13556D
:1007400094EA0C0F95EA0C0F00F0A7F8A4EB05044F
:1007500081EA030E52EA03354FEA013100F0888046
:100760004FEA03334FF0805545EA131343EA12630F
:100770004FEA022245EA111545EA10654FEA0026C4
:100780000EF000419D4208BF964244F1FD0404F57D
:10079000407402D25B084FEA3202B61A65EB0305D9
:1007A0005B084FEA32024FF480104FF4002CB6EB96
:1007B000020E75EB030E22BFB61A754640EA0C0016
:1007C0005B084FEA3202B6EB020E75EB030E22BF56
:1007D000B61A754640EA5C005B084FEA3202B6EB97
:1007E000020E75EB030E22BFB61A754640EA9C0056
:1007F0005B084FEA3202B6EB020E75EB030E22BF26
:10080000B61A754640EADC0055EA060E18D04FEAE3
:10081000051545EA16754FEA06164FEAC30343EA83
:1008200052734FEAC2025FEA1C1CC0D111F4801F50
:100830000BD141EA00014FF000004FF0004CB6E749
:1008400011F4801F04BF01430020B4F1FD0C88BFE8
:10085000BCF5E06F3FF6AFAEB5EB030C04BFB6EBF3
:10086000020C5FEA500C50F1000041EB045170BDE6
:100870000EF0004E4EEA113114EB5C04C2BFD4EB13
:100880000C0541EA045170BD41F480114FF0000E97
:10089000013C90E645EA060E8DE60CEA135594EA13
:1008A0000C0F08BF95EA0C0F3FF43BAF94EA0C0F16
:1008B0000AD150EA01347FF434AF95EA0C0F7FF48B
:1008C00025AF104619462CE795EA0C0F06D152EADF
:1008D00003353FF4FDAE1046194622E750EA4106C3
:1008E00018BF52EA43067FF4C5AE50EA41047FF4D4
:1008F0000DAF52EA43057FF4EBAE12E74FF0FF3C39
:1009000006E000BF4FF0010C02E000BF4FF0010C09
:100910004DF804CD4FEA410C7FEA6C5C4FEA430C82
:1009200018BF7FEA6C5C1BD001B050EA410C0CBFD1
:1009300052EA430C91EA030F02BF90EA020F002033
:10094000704710F1000F91EA030F58BF994208BF9A
:1009500090422CBFD8176FEAE37040F00100704757
:100960004FEA410C7FEA6C5C02D150EA013C07D1AE
:100970004FEA430C7FEA6C5CD6D152EA033CD3D0F9
:100980005DF8040B704700BF8446104662468C46F3
:100990001946634600E000BF01B5FFF7B7FF002826
:1009A00048BF10F1000F01BD4DF808EDFFF7F4FF4F
:1009B0000CBF012000205DF808FB00BF4DF808EDDA
:1009C000FFF7EAFF34BF012000205DF808FB00BFFD
:1009D0004DF808EDFFF7E0FF94BF012000205DF81F
:1009E00008FB00BF4DF808EDFFF7CEFF94BF0120D4
:1009F00000205DF808FB00BF4DF808EDFFF7C4FFCD
:100A000034BF012000205DF808FB00BF4FEA410C15
:100A10007FEA6C5C02D150EA013C0AD14FEA430CF8
:100A20007FEA6C5C02D152EA033C02D14FF0000035
:100A300070474FF0010070474FEA410212F5001273
:100A400015D211D56FF47873B3EB625212D94FEA15
:100A5000C12343F0004343EA505311F0004F23FAFF
:100A600002F018BF404270474FF00000704750EA54
:100A7000013005D111F0004008BF6FF00040704711
:100A80004FF00000704700BF4A0011D212F500126B
:100A900011D20DD56FF47873B3EB62520ED44FEAD6
:100AA000C12343F0004343EA505323FA02F0704756
:100AB0004FF00000704750EA013002D14FF0FF3094
:100AC00070474FF0000070474FEA4102B2F1E04337
:100AD00024BFB3F5001CDCF1FE5C0DD901F0004C25
:100AE0004FEAC0024CEA5070B2F1004F40EB830075
:100AF00008BF20F00100704711F0804F21D113F1A1
:100B00003872BCBF01F00040704741F480114FEAD9
:100B10005252C2F11802C2F1200C10FA0CF320FA62
:100B200002F018BF40F001004FEAC1234FEAD3237F
:100B300003FA0CFC40EA0C0023FA02F34FEA4303E9
:100B4000CCE77FEA625307D150EA01331EBF4FF072
:100B5000FE4040F44000704701F0004040F0FE408D
:100B600040F40000704700BF80F0004002E000BF8A
:100B700081F0004142001FBF5FEA410392EA030F88
:100B80007FEA226C7FEA236C6AD04FEA1262D2EBD2
:100B90001363C1BFD218414048404140B8BF5B42D7
:100BA000192B88BF704710F0004F40F4000020F070
:100BB0007F4018BF404211F0004F41F4000121F086
:100BC0007F4118BF494292EA030F3FD0A2F10102D0
:100BD00041FA03FC10EB0C00C3F1200301FA03F10E
:100BE00000F0004302D5494260EB4000B0F5000F31
:100BF00013D3B0F1807F06D340084FEA310102F1F0
:100C00000102FE2A51D2B1F1004F40EBC25008BFA1
:100C100020F0010040EA03007047490040EB00006B
:100C2000013A28BFB0F5000FEDD2B0FA80FCACF16C
:100C3000080CB2EB0C0200FA0CF0AABF00EBC25099
:100C400052421843BCBFD0401843704792F0000F87
:100C500081F4000106BF80F400000132013BB5E7DA
:100C60004FEA41037FEA226C18BF7FEA236C21D050
:100C700092EA030F04D092F0000F08BF08467047B5
:100C800090EA010F1CBF0020704712F07F4F04D183
:100C9000400028BF40F00040704712F100723CBF96
:100CA00000F50000704700F0004343F0FE4040F4C0
:100CB000000070477FEA226216BF08467FEA23637E
:100CC0000146420206BF5FEA412390EA010F40F469
:100CD000800070474FF0000304E000BF10F00043B5
:100CE00048BF40425FEA000C08BF704743F096439C
:100CF00001464FF000001CE050EA010208BF7047B7
:100D00004FF000030AE000BF50EA010208BF70473D
:100D100011F0004302D5404261EB41015FEA010C52
:100D200002BF84460146002043F0B64308BFA3F14A
:100D30008053A3F50003BCFA8CF2083AA3EBC2532C
:100D400010DB01FA02FC634400FA02FCC2F120024B
:100D5000BCF1004F20FA02F243EB020008BF20F082
:100D60000100704702F1200201FA02FCC2F12002E8
:100D700050EA4C0021FA02F243EB020008BF20EADD
:100D8000DC7070474FF0FF0C1CEAD0521EBF1CEA0B
:100D9000D15392EA0C0F93EA0C0F6FD01A4480EAF9
:100DA000010C400218BF5FEA41211ED04FF00063E2
:100DB00043EA501043EA5111A0FB01310CF000400E
:100DC000B1F5000F3EBF490041EAD3715B0040EA34
:100DD000010062F17F02FD2A1DD8B3F1004F40EB04
:100DE000C25008BF20F00100704790F0000F0CF0D7
:100DF000004C08BF49024CEA502040EA51207F3A9B
:100E0000C2BFD2F1FF0340EAC250704740F4000075
:100E10004FF00003013A5DDC12F1190FDCBF00F066
:100E200000407047C2F10002410021FA02F1C2F114
:100E3000200200FA02FC5FEA310040F1000053EAB0
:100E40004C0308BF20EADC70704792F0000F00F0FE
:100E5000004C02BF400010F4000F013AF9D040EA04
:100E60000C0093F0000F01F0004C02BF490011F498
:100E7000000F013BF9D041EA0C018FE70CEAD15396
:100E800092EA0C0F18BF93EA0C0F0AD030F0004C16
:100E900018BF31F0004CD8D180EA010000F00040CA
:100EA000704790F0000F17BF90F0004F084691F088
:100EB000000F91F0004F14D092EA0C0F01D14202C2
:100EC0000FD193EA0C0F03D14B0218BF084608D18B
:100ED00080EA010000F0004040F0FE4040F40000D5
:100EE000704740F0FE4040F4400070474FF0FF0C68
:100EF0001CEAD0521EBF1CEAD15392EA0C0F93EAAF
:100F00000C0F69D0A2EB030280EA010C49024FEA00
:100F1000402037D04FF0805343EA111143EA1013B9
:100F20000CF000408B4238BF5B0042F17D024FF471
:100F3000000C8B4224BF5B1A40EA0C00B3EB510F4C
:100F400024BFA3EB510340EA5C00B3EB910F24BF35
:100F5000A3EB910340EA9C00B3EBD10F24BFA3EBBA
:100F6000D10340EADC001B0118BF5FEA1C1CE0D182
:100F7000FD2A3FF650AF8B4240EBC25008BF20F035
:100F8000010070470CF0004C4CEA50207F32C2BF89
:100F9000D2F1FF0340EAC250704740F400004FF026
:100FA0000003013A37E792F0000F00F0004C02BF57
:100FB000400010F4000F013AF9D040EA0C0093F021
:100FC000000F01F0004C02BF490011F4000F013B7B
:100FD000F9D041EA0C0195E70CEAD15392EA0C0FE3
:100FE00008D142027FF47DAF93EA0C0F7FF470AF1B
:100FF000084676E793EA0C0F04D14B023FF44CAF5E
:1010000008466EE730F0004C18BF31F0004CCAD1F2
:1010100030F000427FF45CAF31F000437FF43CAF2E
:101020005FE700BF4FF0FF3C06E000BF4FF0010C50
:1010300002E000BF4FF0010C4DF804CD4FEA400232
:101040004FEA41037FEA226C18BF7FEA236C11D07C
:1010500001B052EA530C18BF90EA010F58BFB2EB2F
:10106000030088BFC81738BF6FEAE17018BF40F0AF
:10107000010070477FEA226C02D15FEA402C05D163
:101080007FEA236CE4D15FEA412CE1D05DF8040BE8
:10109000704700BF844608466146FFE70FB5FFF77B
:1010A000C9FF002848BF10F1000F0FBD4DF808ED33
:1010B000FFF7F4FF0CBF012000205DF808FB00BF24
:1010C0004DF808EDFFF7EAFF34BF012000205DF87E
:1010D00008FB00BF4DF808EDFFF7E0FF94BF0120CB
:1010E00000205DF808FB00BF4DF808EDFFF7D2FFC8
:1010F00094BF012000205DF808FB00BF4DF808ED0B
:10110000FFF7C8FF34BF012000205DF808FB00BFD7
:101110004FEA40024FEA41037FEA226C02D15FEAC4
:10112000402C08D17FEA236C02D15FEA412C02D126
:101130004FF0000070474FF0010070474FEA400247
:10114000B2F1FE4F0FD34FF09E03B3EB12620DD9F5
:101150004FEA002343F0004310F0004F23FA02F05F
:1011600018BF404270474FF00000704712F1610F06
:1011700001D1420205D110F0004008BF6FF00040DD
:1011800070474FF00000704738B50C4605462146C1
:10119000284600220023FFF711FC28B928462146E3
:1011A000BDE8384000F00AB8284604F1004100F0DC
:1011B00005F8404261EB410138BD00BFD0B50022C7
:1011C0000B4B06460F46FFF787F9FFF75DFC044619
:1011D000FFF708F90022074BFFF77EF902460B469E
:1011E00030463946FEF7C0FFFFF74EFC2146D0BD22
:1011F0000000F03D0000F0412DE9F84307460E469F
:101200009146102005F020F8C9F80000102005F0E4
:101210001BF80446002505E0142005F015F844F8F5
:1012200025000135032DF7DD102005F00DF880466F
:10123000002505E0142005F007F848F825000135E1
:10124000032DF7DDC6F8008000210E460D46084646
:101250000A4612E054F825100B70013500210120D8
:1012600009E0022823D005F1804C0CF1FF3C54F832
:101270002CC00CF8013001310132BB5CB3B30D2B33
:1012800034D0042D32DC042E30DC13292EDC202B4C
:1012900016D00028E5D12D49595C11F0030FD9D0A3
:1012A00058F826100B70013600210220E3E706F102
:1012B000804C0CF1FF3C58F82CC00CF80130DAE7F8
:1012C000022803D0012809D00020D5E706F1804389
:1012D000013B58F8233000205854CDE705F18043F6
:1012E000013B54F8233000205854C5E7022803D0AE
:1012F000012809D000271EE006F18043013B58F881
:10130000233000225A54F5E705F18043013B54F89D
:10131000233000225A54EDE754F8270004F06DFF03
:10132000D9F80080FFF7D0FB48F8270054F82700D1
:1013300004F092FF0137032FEEDD204604F08CFF0E
:1013400045EA062000B2BDE8F88300BFD19F00083F
:10135000084BD3F8C830312B0ADC064A42F8230088
:1013600003F1320002EB800041600133C2F8C83063
:10137000704700BF8003002030B4002300E0013339
:101380001D46C25C2AB1CC5C1CB1A242F7D0002041
:1013900006E04A5D202A02D00AB10D2A02D1D8B255
:1013A00030BC70470020FBE710B4002300E001339D
:1013B000C25CCC5CA24202D10AB1002CF7D112B9B6
:1013C00024B1002000E0002010BC70470120FBE7A2
:1013D00030B583B005460024184BD3F8C830A3427B
:1013E00026DD2946154B53F82400FFF7C5FF08B941
:1013F0000134F1E76A4601A92818FFF7FDFE3234EF
:101400000E4B03EB84046368009A01999847009897
:1014100004F022FF002405E0019B53F8240004F0AF
:101420001BFF0134032CF7DD019804F015FF02E0E7
:10143000034800F087FD03B030BD00BF80030020EB
:10144000809E000800000000002800F0B6802DE912
:10145000F04385B0884615461E460746B0F90000A1
:10146000FFF73CFC0146FFF78DFC0446B7F902008C
:1014700000FB00F0FFF732FC2146FFF77BFB044640
:10148000B7F9040000FB00F0FFF728FC2146FFF746
:1014900071FB08F0BBFA814620F000404C49FFF791
:1014A0000FFE002840F08680002417E037F9140072
:1014B000FFF714FC4946FFF719FD08F055FA4549B6
:1014C000FFF760FCFEF7B0FF3DA3D3E90023FFF771
:1014D0002DF9FFF7F9FA46F824000134022CE5DD76
:1014E00000240BE0A70055F8241056F82400FFF75D
:1014F0003FFB04AB1F4447F80C0C0134022CF1DD18
:10150000354CD4F8009049464FF07E50FFF730FB41
:1015100001460198FFF736FCFEF786FF06460F46A8
:10152000D8F804104846FFF72DFCFEF77DFF26A3F0
:10153000D3E90023FEF7D0FF02460B46304639467A
:10154000FEF714FE06460F462868FEF76DFF32468A
:101550003B46FEF70BFEFFF7B7FA286064682146AA
:101560004FF07E50FFF704FB01460298FFF70AFC9C
:10157000FEF75AFF06460F46D8F800102046FFF740
:1015800001FCFEF751FF10A3D3E90023FEF7A4FFEF
:1015900002460B4630463946FEF7E6FD06460F4644
:1015A0006868FEF741FF32463B46FEF7DFFDFFF776
:1015B0008BFA686005B0BDE8F0837047AFF3008038
:1015C0001F85EB51B81E09407B14AE47E17A743F8A
:1015D000BD378635000034430000002010B4084CAD
:1015E00020600848016008490A60084A1360019AAF
:1015F000074B1A60029A074B1A6010BC704700BF75
:1016000014050020280500201805002024050020CE
:10161000200500201C05002070B584B015461E462C
:101620008DF80F1004460A23009301230DF10F02D9
:1016300001460848006802F01BFB08B104B070BD09
:101640000A23009333462A4621460248006802F0E6
:10165000CBFBF3E7140500202DE9F04383B00646E9
:101660000F4690461D4603F10109484604F0ECFD83
:1016700004462A464146013004F0F6FD27700A234D
:1016800000931FFA89F3224631460648006802F0AB
:10169000EFFA0546204604F0DFFD284603B0BDE81A
:1016A000F08300BF1405002070B584B0234B1B6885
:1016B00000931123019301230293032303936946AB
:1016C0001F4B186804F022FA1E4B1B6800936946F2
:1016D0001D4B186804F01AFA0024082C15DC194B6D
:1016E0001988194B186804F021FB01280DD0134EFE
:1016F000134D01223188286804F01FFB0022318835
:10170000286804F01AFB0134E7E701220D4B198821
:101710000D4B186804F011FB0122084B1988084B87
:10172000186804F00AFB094B1B68002283F83D206F
:10173000074B1B68984704B070BD00BF1805002018
:101740002805002020050020240500201405002085
:101750001C05002030B583B004468DF807200568CD
:1017600001230DF10702007DA847E37D984209D0CF
:10177000238B01339BB22383142B03D9A36898478F
:101780000023238303B030BD30B583B0044600236B
:101790008DF80730456801230DF10702007DA84749
:1017A000E37D984209D0238B01339BB22383142B12
:1017B00003D9A3689847002323839DF8070003B04B
:1017C00030BDF0B583B004460E4615464768062383
:1017D0006A463B21007DB847E37D984209D0238BC0
:1017E00001339BB22383142B03D9A36898470023AA
:1017F00023839DF800209DF8013043EA02233380C3
:101800009DF802209DF8033043EA022373809DF87F
:1018100004209DF8053043EA0223B380666806235E
:101820006A464321207DB047E37D984209D0238B4F
:1018300001339BB22383142B03D9A3689847002359
:1018400023839DF800209DF8013043EA02232B807A
:101850009DF802209DF8033043EA02236B809DF837
:1018600004209DF8053043EA0223AB8003B0F0BDAD
:101870002DE9F04107460E461546002410E0FB69AD
:10188000D3F8048036F91400FFF728FA4146FFF731
:1018900079FA4FF06051FFF775FA45F824000134EA
:1018A000022CECDDBDE8F08110B50446D0230375B1
:1018B000574B4360574B0360574BC3600022C275C0
:1018C000564A82600361564BC361182242755A70B2
:1018D00001229A7008221A7028E0524B5360E26984
:1018E0005378182B19D8DFE803F0161818181818B1
:1018F000181889181818181818188C181818181883
:1019000018188F00484B5360E9E7484B5360E6E7EF
:10191000474B5360E3E70223138175212046FFF70D
:1019200033FFA075112872D0A3689847E36832206E
:10193000984701226B212046FFF70CFF0022192156
:101940002046FFF707FF02221A212046FFF702FF79
:10195000E3691A781B212046FFF7FCFEE3695A78F9
:101960001C212046FFF7F6FEE3699A781D212046E8
:10197000FFF7F0FEE3692F4ADA60022237212046A2
:10198000FFF7E8FEE36832209847E2691378182BE6
:10199000A5D801A151F823F0DB180008DF180008D2
:1019A000DF180008DF180008DF180008DF1800083B
:1019B000DF180008DF18000805190008DF18000804
:1019C000DF180008DF180008DF180008DF1800081B
:1019D000DF180008DF1800080B190008DF180008DE
:1019E000DF180008DF180008DF180008DF180008FB
:1019F000DF180008DF1800081119000804231381FC
:101A00008BE70823138188E71023138185E710BD36
:101A100019160008591600087D520008A91600087A
:101A20004C05002000007A430000FA4300007A448D
:101A30000000FA44E17A444208B510B1012808D008
:101A400008BD0A46074B1988074B186804F075F95A
:101A5000F6E70A46054B1988054B186804F06DF93E
:101A6000EEE700BF6C050020700500206005002037
:101A70006405002070B586B08DF80F0000248DF845
:101A80001740FF238DF8163021462046FFF7D4FF7C
:101A90000D4D3226009601230C4A0DF10F012868E6
:101AA00002F08AFC009601230DF117020DF11601D8
:101AB000286802F081FC01212046FFF7BDFF9DF858
:101AC000170006B070BD00BF5C050020680500204F
:101AD00030B587B08DF80F1040F020008DF817005A
:101AE00000210846FFF7A8FF0B4C32250095012383
:101AF0000A4A0DF11701206802F05EFC2B46012214
:101B00000DF10F01206802F085FB01210020FFF795
:101B100093FF012007B030BD5C0500206805002060
:101B200008B509B140F00800034B1978014319705A
:101B30000020FFF7CDFF08BDEC0200202DE9F041A9
:101B400084B00E4614468DF80F00104604F07CFB5E
:101B500005462246FF2104F095FB00210846FFF7C9
:101B60006BFF0F4F4FF03208CDF8008001230D4A74
:101B70000DF10F01386802F01FFCCDF800802346FC
:101B800032462946386802F017FC01210020FFF791
:101B900053FF284604F060FB04B0BDE8F08100BFAD
:101BA0005C050020680500202DE9F04385B006465D
:101BB0000F461546104604F047FB044646F0200346
:101BC0008DF80F3000210846FFF736FFDFF8508010
:101BD0004FF03209CDF800900123104A0DF10F01AA
:101BE000D8F8000002F0E8FBCDF800902B46224622
:101BF0003946D8F8000002F0DFFB01210020FFF792
:101C00001BFF2A4621463046FFF798FF204604F086
:101C100023FB012005B0BDE8F08300BF680500206C
:101C20005C050020052901D00020704708B5CAB224
:101C300001461020FFF7B8FF08BD70B50F291FD16E
:101C40000646002401250AE004EB840104F10A00A1
:101C500005223144C0B2FFF7A7FF05400134012C33
:101C6000F2DD002408E0331904F10C00997AC0B2C7
:101C7000FFF72EFF05400134032CF4DD284670BD2C
:101C80000025FBE770B50E462C4908602C490A6018
:101C900004992C4A11602C4A1360059A2B4B1A6048
:101CA00000250135EDB2052D43D8294B197841F0B7
:101CB00002010020FFF70CFF00F001040A2003F0EE
:101CC000DDFA01210846FFF703FF04400F2104203D
:101CD000FFF7FEFE044000210520FFF7F9FE044057
:101CE0000A211120FFF7F4FE04400E210620FFF721
:101CF000EFFE0440052E1FD80121B140C9B20139C1
:101D0000C9B20220FFF7E4FE0440114B197841F0FC
:101D100003010020FFF7DCFE044005210D48FFF71A
:101D200081FF04400F210C48FFF787FF002CB8D03B
:101D300000E00024204670BD0024FBE75C05002085
:101D400070050020640500206C050020600500205F
:101D5000EC0200201C0000200C00002010B5012126
:101D60000846FFF769FE01210320FFF7D9FE144B57
:101D70001B783F2B00D810BD00210120FFF75CFE2F
:101D80001720FFF777FE0F4B187010F0020F0ED1DF
:101D90000D4C0A2221466120FFF7D0FE0A21204681
:101DA00000F0DEFCFF210720FFF792FEE3E70021B1
:101DB000E220FFF78DFEFF210720FFF789FEDAE71B
:101DC0006805002069050020F00200202DE9F0419F
:101DD000044608461146FEF7CBFE05462169FEF78C
:101DE000C7FE2149FEF7CEFF06462049A069FEF74F
:101DF000C9FF3146FEF7BEFE064625612946E06969
:101E0000FEF7C0FFE168FEF7B5FE0746E060D4F8D4
:101E100014804146FFF772F9D0B1C4F80C80A66176
:101E200029462068FEF7AEFF054631466068FEF79A
:101E3000A9FF01462846FEF79DFE0546A168E06819
:101E4000FEF7A0FF01462846FEF794FEBDE8F081AC
:101E500008F1004841463846FFF732F90028DED045
:101E6000C4F80C80DBE700BFA69BC43EA4701D3FF6
:101E700008B50A460D4B1B78012B0BD0022B0FD057
:101E800003B108BD4FF47A7301460948006802F0B7
:101E9000B6FEF6E70146064B186802F020FFF0E7B1
:101EA0000146034B186802F06DFFEAE7FA020020D2
:101EB0000003002008B50D4B1B78012B02D0022B2C
:101EC00007D008BD01220A490A4B186802F02BFF0F
:101ED000F7E7084B18680268D36843F01003D36033
:101EE0001D22054902F094FFEBE700BF210000200E
:101EF000F9050020000300207405002008B5054BFB
:101F00001970054B1A70054B186000F005FAFFF7C1
:101F1000D1FF08BDFA0200202100002000030020AC
:101F200038B5074C0D2525750A2565756060A160DB
:101F3000E260236116212046FFF79AFF38BD00BFFB
:101F4000240000200FB410B582B004AB53F8042B6A
:101F50000193074C6521204605F002FD81B2204621
:101F6000FFF786FF02B0BDE8104004B0704700BF25
:101F700094050020114B1B68834200D0704710B5B8
:101F80000F4B1B680F4A11780F4AD1545C1E125D2B
:101F90000D2A01D10A2907D00133094A1360012211
:101FA000084902F0C0FE10BD0023074A1355074A36
:101FB00001211170024A1360F5E700BF0003002001
:101FC000FC020020F9050020740500209205002085
:101FD00010B582B004460023019303681A68019289
:101FE0005B680193019B074B1868A04201D002B0C7
:101FF00010BD02F061FF23681A685B68024B012282
:102000001A70F4E7000300209205002008B5044888
:10201000FFF7DEF9FFF74EFF024B00221A7008BDF2
:102020007405002092050020F8B505460E461746B7
:102030001048FFF787FF29460F48FFF783FF00246A
:10204000EBB2A3420ADD57F82400FEF7EDF9024691
:102050000B460A48FFF776FF0134F1E7002405E05C
:1020600056F824100648FFF76DFF0134B4EB252F16
:10207000F6DBF8BD949E0008A89E0008B89E0008F4
:10208000C49E0008F0B583B040F20123984204D00A
:102090002A48FFF757FF03B0F0BD0C461546284904
:1020A0002068FFF781F9A8B1264F27496068FFF73C
:1020B0007BF9002832D03E46286830606568246885
:1020C000FEF7B2F9CDE900012A4621461F48FFF785
:1020D00039FFE0E71E492068FFF766F908B11D4F98
:1020E000E3E71D492068FFF75FF908B11B4FDCE704
:1020F0001B492068FFF758F908B11A4FD5E71A496C
:102100002068FFF751F908B1184FCEE71849206849
:10211000FFF74AF90028C8D0164FC6E7164960688D
:10212000FFF742F908B13E1DC6E714496068FFF7A2
:102130003BF90028C0D007F10806BDE7DC9E000887
:10214000F09E000860000020209F00082C9F0008DF
:10215000F89E000818030020009F0008A800002037
:10216000089F000888000020109F0008CC00002075
:10217000189F000840000020249F0008289F0008A6
:1021800070B5431E022B07D81446012808D0022838
:1021900022D0032850D070BD3748FFF7D3FEFAE7AE
:1021A0001068FEF7CBFF0246344E4021304600F067
:1021B000FDFE334DE8632068FEF7C0FF0246402174
:1021C000304600F0F3FE28642068FEF7B7FF0146B2
:1021D0002C48FFF7B7FEDEE71068FEF7AFFF0228D6
:1021E00014D06068FEF7AAFF0246244E4021304614
:1021F00000F0DCFE224DE8636068FEF79FFF0246B8
:102200004021304600F0D2FE2864C4E76068FEF743
:1022100095FF02461C4E4021304600F0C7FE4FF0AD
:10222000804568636068FEF789FF024640213046BA
:1022300000F0BCFEA863AEE71068FEF77FFF02283F
:102240000FD0A068FEF77AFF024640210B4800F04D
:10225000ADFE05460D4E6068FEF770FF46F8205053
:1022600099E7A068FEF76AFF02464021064800F0A1
:102270009DFE0546064EEEE7449F00082807002015
:1022800000040040549F0008A807002034040040C8
:102290003400004010B51446012803D040F2011369
:1022A000984202D1012804D010BD0648FFF74AFE2B
:1022B000FAE72168002000F0BDF82168012000F055
:1022C000B9F8F1E7DC9E000810B51446012803D0E8
:1022D00040F2011398420AD101280CD00B681B78F8
:1022E0006C2B11D02168012000F0E8F810BD0948DE
:1022F000FFF728FEFAE72168002000F0DFF82168E8
:10230000012000F0DBF8F1E72168002000F0D6F8AA
:10231000ECE700BFDC9E000808B50A490A48FFF751
:1023200017F80A490A48FFF713F80A490A48FFF75D
:102330000FF80A490A48FFF70BF80A490A48FFF75D
:1023400007F808BD29200008849F000881210008A3
:10235000689F000895220008749F0008C9220008A1
:10236000809F0008852000088C9F000870B50646F5
:102370000C46134D284601F085F80A21284600F046
:10238000EDFE284600F0A0FF05463019FEF7A6FC3A
:1023900006462046FEF7A2FC01463046FEF7A6FDA3
:1023A0000446A8B2FEF79AFC2146FEF7EBFC4FF07C
:1023B0006651FEF7E7FC0349FEF7E4FC70BD00BF81
:1023C0000806002000404E450C4B1A68A2F2E73187
:1023D000C2F5FA63994201DCA2F57A73084A1168E2
:1023E000A1F2E730C1F5FA62904201DCA1F57A7200
:1023F0009342A8BF1346034A136070473C00002075
:10240000840000201403002038B5084D4FF47A7280
:102410004021284600F0CAFD054C20644FF47A7232
:102420004021284600F0C2FDE06338BD28070020A7
:102430000004004038B505460C461A492046FEF710
:102440005DFE30B918492046FEF73AFE10B1164C31
:1024500000E0144C13492046FEF748FD0446134B98
:102460001868FEF73BFC2146FEF78CFCFEF766FE83
:1024700015B1012D0BD038BD0D4B1A680244402117
:102480000C4800F093FD4FF080439863F3E70A4B4C
:102490001A68121A4021074800F088FD4FF0804367
:1024A0005863E8E700003442000034C214030020FF
:1024B0003C000020A80700208400002038B5054615
:1024C0000C4619492046FEF719FE30B90021204676
:1024D000FEF7F6FD10B1002400E0134C15B1012DFC
:1024E00011D038BD11492046FEF74CFC1049FEF7CB
:1024F00041FBFEF723FE024640210E4800F056FD48
:102500000D4B1864EDE709492046FEF73BFC0849EE
:10251000FEF730FBFEF712FE02464021054800F0B0
:1025200045FD054BD863DCE70000BE4200002041BA
:1025300000007A44280700200004004008B5024942
:10254000FEF720FC08BD00BF0000204208B503498B
:10255000FEF7CCFC0249FEF715FC08BDC3F5484068
:102560000000B443F8B5674B1B7803B9F8BD664F5C
:10257000664E674D3A4631462846FFF722F9654CCC
:10258000224639462846FFF773F9634D634B2A46C6
:1025900021463046FEF758FF6A68614B1A602B6887
:1025A000604E3360604B19686048FFF70FFC0546CA
:1025B00032685F4B19685F48FFF708FC07462268DE
:1025C00029465D48FFF702FC0646626839465B48CB
:1025D000FFF7FCFB0746226829465948FFF7F6FB40
:1025E000054626F00046574BB3F90000FEF776FB90
:1025F0004FF07051FEF7C6FB5349FEF7C3FB04468C
:102600000021FEF75DFDC8B9504B1B78012B17D098
:10261000022B34D0032B4CD04D4A13680133136086
:102620000A2B58DC3B4A3C485368126841680068F2
:10263000FFF776FC334B00221A7097E70024E3E79C
:1026400029460020FFF7F6FE29460120FFF7F2FE9B
:1026500031463846FEF78EFA2146FEF78BFA0146E0
:102660000020FFF72BFF39463046FEF781FA21465E
:10267000FEF780FA01460120FFF720FFCCE7002596
:102680002846FFF75BFF044601460020FFF716FFD0
:1026900021460120FFF712FF2846FFF757FF0446A7
:1026A00001460020FFF7C6FE21460120FFF7C2FECB
:1026B000B2E7002421460020FFF7BCFE214601209E
:1026C000FFF7B8FE21460020FFF7F8FE2146012063
:1026D000FFF7F4FEA0E740F6980141F2EC30FFF777
:1026E00045FE1C4B18601C49FEF7EAFC18B9184B54
:1026F00000221A6096E701220821184803F01DFB0A
:10270000F5E700BF0C03002064030020380300201D
:102710002C050020580300204C030020400300201B
:102720000406002000060020800000206000002039
:10273000C8000020A80000204000002088000020E1
:10274000CC000020FC0500200000484204030020CB
:102750006C030020080300200040E745000C014006
:102760000A2900D0704703898188084A1180C3F381
:102770000D03012B05D0082BF4D1054B03221A7051
:10278000F0E7034B01221A70704700BFFC050020E0
:1027900004030020094B1B783BB1094B1B68052B38
:1027A00004D0074A1368013313607047054B0122B8
:1027B0001A70034B00221A60F3E700BF7003002079
:1027C000100300200C03002030B595B000240B94BA
:1027D0000C940D941094059406940794089409940D
:1027E000019402940394049402250A9501230E9304
:1027F00010230F93119512944FF4601313930AA8AA
:1028000002F066FD0F230593069507944FF480634D
:1028100008930994294605A802F098FF01954FF402
:102820000043039301A803F06DF815B030BD00001C
:1028300000B587B002F0FEFCFFF7C6FF00F08CF891
:1028400000F03AF900F0DCF800F058F900F0B0F9C7
:1028500000F0C0FA00F016FB00F05EFB00F0AEFBEB
:102860002F49304B01934FF4007300930B464FF404
:1028700080722D48FEF7B2FE2C48FFF715F8FFF7DF
:10288000A3FDFFF7C1FD2A4C0021204602F03AF8D3
:102890000421204602F036F8264C0821204602F09A
:1028A00031F80C21204602F02DF8234A4FF4004362
:1028B000019300924FF4807301212048FFF7E2F961
:1028C0001F4B02AC0FCB07C424F8023B1B0C237038
:1028D0000F2102A8FFF7B1F941F2883002F0CEFCD7
:1028E000022200211748FFF709FB0024214600209F
:1028F000FFF7A0FD21460120FFF79CFD1248FFF7DE
:1029000021FB124B01221A7003E0FFF727FAFFF7B1
:1029100029FE0F4B1B78002BF7D0FFF777FBF4E76E
:10292000000C0140FD2A0008380600202C0500207C
:10293000A807002028070020000801408C0600207E
:10294000709E00082C080020949F0008700300204F
:1029500092050020704700002DE9F04186B0002468
:102960000294039404940594214B9A6942F0040262
:102970009A619A6902F004020092009A9A6942F000
:1029800008029A619B6903F008030193019BDFF839
:102990006C8022464FF40141404603F0CEF9154DBC
:1029A00022460821284603F0C8F94FF480530293C9
:1029B000114B03930126049602A9284603F0A6F8BA
:1029C0004FF401430293039604940227059702A94A
:1029D000404603F09BF8082302930396049405975E
:1029E0000DEB0301284603F091F806B0BDE8F08135
:1029F00000100240000C01400000211000080140BE
:102A000000B585B000230193029303931048114A47
:102A100002608360037303754FF46022C2614360F8
:102A20000123036100F0C8FD60B903230193012273
:102A30000292039301A9064800F04AFC28B905B0A8
:102A40005DF804FBFFF786FFEFE7FFF783FFF6E78C
:102A5000080600200024014000B587B0002302933F
:102A60000393049305930268114B9A4202D007B076
:102A70005DF804FB03F56C439A6942F400729A61B5
:102A80009A6902F400720092009A9A6942F0040274
:102A90009A619B6903F004030193019B082302934D
:102AA0000323039302A9034803F030F8DFE700BFD4
:102AB000002401400008014000B583B00E4B5A6964
:102AC00042F001025A615B6903F001030193019B2B
:102AD000002211460E2003F0EDFA0E2003F01EFB3B
:102AE000002211460F2003F0E5FA0F2003F016FB39
:102AF00003B05DF804FB00BF0010024008B50B48AE
:102B00000B4B03600B4B436000238360C3604FF4A7
:102B10008042026143618361C361036200F0D4FFBC
:102B200000B908BDFFF716FFFBE700BF380600201D
:102B300000540040A086010010B586B00023029327
:102B40000393049305930268154B9A4201D006B093
:102B500010BD144CA36943F00803A361A36903F0FB
:102B600008030093009B4FF44073029312230393D6
:102B70000323059302A90C4802F0C8FF0B4A5368CF
:102B800043F0E06343F002035360E36943F400134E
:102B9000E361E36903F400130193019BD7E700BFEE
:102BA0000054004000100240000C014000000140B1
:102BB00008B50E480E4B03604FF482734360002348
:102BC0008360C360036143614FF400728261082235
:102BD000C2610362436283620A23C36201F0DCFACA
:102BE00000B908BDFFF7B6FEFBE700BF8C0600206A
:102BF0000038004010B586B000230293039304937D
:102C000005930268174B9A4201D006B010BD03F538
:102C1000EC33DA6942F48042DA61DA6902F4804224
:102C20000092009A9A6942F008029A619B6903F047
:102C300008030193019B4FF4204302930223039363
:102C400003230593084C02A9204602F05FFF4FF4CE
:102C50008043029300230393049302A9204602F0C9
:102C600055FFD2E700380040000C014010B584B099
:102C70000368254A934207D0B3F1804F2CD0234AF2
:102C8000934235D004B010BD0446214B9A6942F4FA
:102C900000629A619B6903F400630193019B1D48E4
:102CA0001D4B036010234360002383608022C260B9
:102CB0004FF4807202614FF4806242618361C361AC
:102CC00003F066F828B9134B23635C62A363636364
:102CD000D8E7FFF73FFEF6E703F50433DA6942F081
:102CE0000102DA61DB6903F001030293029BC9E789
:102CF000074BDA6942F00202DA61DB6903F0020392
:102D00000393039BBEE700BF002C0140000400407A
:102D100000100240E40600204400024000B589B0E3
:102D2000002304930593069307930368244A934270
:102D300008D0B3F1804F1AD0224A93422CD009B068
:102D40005DF804FB204B9A6942F004029A619B698A
:102D500003F004030193019B4FF4006304930223E7
:102D60000593079304A9194802F0D0FEE7E703F59D
:102D700004339A6942F004029A619B6903F00403E8
:102D80000293029B0323049302230593079304A950
:102D90000E4802F0BBFED2E70B4B9A6942F00802E4
:102DA0009A619B6903F008030393039B0323049335
:102DB00002230593079304A9054802F0A7FEBEE786
:102DC000002C0140000400400010024000080140B7
:102DD000000C014010B592B0002410941194099495
:102DE0000A940B940C940D940E940F942022214677
:102DF00001A803F047FA2148214B03604460846036
:102E0000C46004614461846101F0B0FC002829D1F0
:102E100000231093119310A9184801F091FD20BBD5
:102E20006023099300230A930B930D930E930F9342
:102E30000C2209A9114801F0E5FCC8B9002301934F
:102E400002930393049305934FF400520692089360
:102E500001A90A4801F097FD68B90848FFF75EFF2D
:102E600012B010BDFFF776FDD2E7FFF773FDD7E78D
:102E7000FFF770FDE2E7FFF76DFDEEE76807002062
:102E8000002C014000B58BB00023089309930193F7
:102E90000293039304930593069307931D484FF001
:102EA0008042026009224260836043F67F62C26012
:102EB0000361836101F05AFCF8B900230893099378
:102EC00008A9144801F03CFDD0B960230193002209
:102ED00002920392059201A90E4801F093FC90B969
:102EE00004220DEB02010B4801F08CFC70B909487B
:102EF000FFF714FF0BB05DF804FBFFF72BFDDCE7D9
:102F0000FFF728FDE1E7FFF725FDE9E7FFF722FDE1
:102F1000EDE700BFA807002000B58BB000230893A1
:102F200009930193029303930493059306930793E4
:102F30001C481D4A026009224260836043F67F629A
:102F4000C2600361836101F011FCF8B900230893AA
:102F5000099308A9134801F0F3FCD0B96023019349
:102F60000023029303930593082201A90D4801F061
:102F700049FC88B90C2201A90A4801F043FC70B948
:102F80000848FFF7CBFE0BB05DF804FBFFF7E2FC4F
:102F9000DCE7FFF7DFFCE1E7FFF7DCFCEAE7FFF740
:102FA000D9FCEDE728070020000400400379013335
:102FB000DBB202FB01F292FBF3F0704708B50A485E
:102FC0000A4B03604FF4E133436000238360C36026
:102FD00003610C2242618361C36101F0E1FD00B92C
:102FE00008BDFFF7B7FCFBE72C08002000380140C4
:102FF00070B586B00023029303930493059302688F
:10300000264B9A4201D006B070BD044603F55843E2
:103010009A6942F480429A619A6902F4804200926D
:10302000009A9A6942F004029A619B6903F00403D2
:103030000193019B4FF40073029302230393032334
:103040000593174E02A9304602F060FD4FF48063ED
:10305000029300250395049502A9304602F056FD1F
:103060001048114B0360456085608023C360056193
:1030700045618561C56102F08BFE58B9094B6363F8
:103080005C6200221146252003F014F8252003F08D
:1030900045F8B8E7FFF75EFCF0E700BF00380140F5
:1030A00000080140E8070020580002407047FEE792
:1030B000FEE7FEE7FEE770477047704708B502F08D
:1030C000CBF8FFF767FB08BD08B5024802F03EFFEA
:1030D00008BD00BFE406002008B5024802F036FF34
:1030E00008BD00BFE807002010B5074C204601F0DE
:1030F000E3FF23681B6813F0100F00D110BD2046BA
:10310000FEF766FFFAE700BF2C08002008B54FF471
:10311000805002F019FE08BD82B00E4B9A6942F051
:1031200001029A619A6902F001020092009ADA693A
:1031300042F08052DA61DB6903F080530193019B16
:10314000054A536823F0E06343F00073536002B014
:10315000704700BF0010024000000140F0B583B08E
:1031600005460C460023019302F082F82B689A680A
:1031700012F4807F23D107465A6812F4807F03D16E
:10318000DB6A13F4700F24D04A4B1E68022002F051
:1031900043FCB6FBF0F02B681969474A11422FD166
:1031A000D96802F15C4211422AD11969434A11429D
:1031B00039D1DA68424B1A4237D029263AE0AB6A55
:1031C00043F02003AB62002385F82430012003B0D4
:1031D000F0BD2B681B6813F0020F48D1B4F1FF3F1C
:1031E000F7D024B102F044F8C01BA042F1D9AB6A79
:1031F00043F00403AB62002385F824300320E6E7A4
:1032000019692E4A114204D1D96802F16E42114265
:103210000DD019692B4A0A405AB9DA68294B134074
:103220005BB1FC2606E0292604E0142602E05426C1
:1032300000E0FC2606FB00F604E05426FAE7019BBA
:1032400001330193019BB34211D2B4F1FF3FF6D099
:1032500024B102F00DF8C31BA342F0D9AB6A43F0CE
:103260000403AB62002385F824300320AFE72B680A
:103270006FF012021A60AB6A43F40073AB622B6802
:103280009B6803F46023B3F5602F01D000209EE714
:10329000287B60B9AB6A23F48073AB62AB6A13F42A
:1032A000805F94D1AB6A43F00103AB628FE70020EB
:1032B0008DE700BFF4000020244992249224491293
:1032C00092244900499224000368D86C704700009A
:1032D00030B482B00022019290F82420012A00F03C
:1032E0008B800346012280F824204A68062A29D8C8
:1032F0000568686B02EB8202053A1F24944020EABD
:1033000004000C6804FA02F202436A630A68092A9C
:1033100038D91D68E86802EB42021E3A072494403F
:1033200020EA04008C6804FA02F20243EA600A68A8
:10333000103A012A34D90020002283F8242002B058
:1033400030BC70470C2A0ED80568286B02EB82024D
:10335000233A1F24944020EA04000C6804FA02F285
:1033600002432A63D2E70568E86A02EB8202413A27
:103370001F24944020EA04000C6804FA02F202437D
:10338000EA62C3E71D68286902EB42020724944001
:1033900020EA04008C6804FA02F202432A61C6E7BC
:1033A0001A681648824205D09A6A42F020029A6250
:1033B0000120C1E7906810F4000F1BD1906840F421
:1033C000000090600A68102A01D00020B4E70C4A7F
:1033D00012680C49A1FB0212920C02EB820252000D
:1033E000019202E0019A013A0192019A002AF9D170
:1033F0000020A1E700209FE70220A0E70024014071
:10340000F400002083DE1B4330B583B0002301931A
:1034100003689A6812F0010F2DD104469A6842F0B1
:1034200001029A60154B1B68154AA2FB03239B0CF3
:103430000193019B1BB1019B013B0193F9E701F053
:1034400017FF054623689B6813F0010F11D101F0A7
:103450000FFF431B022BF5D9A36A43F01003A362AD
:10346000E36A43F00103E362002384F8243001207F
:1034700002E0002000E0002003B030BDF400002096
:1034800083DE1B4390F82430012B68D010B504462E
:10349000012380F82430FFF7B7FF00285BD1A36A2F
:1034A00023F4407323F0010343F48073A362236881
:1034B0002C4A934227D0A26A22F48012A2625A6850
:1034C00012F4806F05D0A26A22F4405242F4805276
:1034D000A262A26A12F4805F2BD0E26A22F0060296
:1034E000E262002284F824206FF002021A6023684E
:1034F0009A6802F46022B2F5602F1DD09A6842F4F7
:1035000080129A602AE0A2F58062526812F4702F4D
:10351000D1D0A26A42F48012A262134A526812F415
:10352000806FD6D0A26A22F4405242F48052A26246
:10353000CFE70022E262D4E70A4A934204D09A68B5
:1035400042F4A0029A6009E0A2F58062526812F487
:10355000702FD3D1F3E7002384F8243010BD02206C
:10356000704700BF002801400024014038B50368BF
:103570009A6812F0010F01D1002038BD04469A6804
:1035800022F001029A6001F073FE054623689B68F1
:1035900013F0010F0ED001F06BFE431B022BF5D987
:1035A000A36A43F01003A362E36A43F00103E362FA
:1035B0000120E2E70020E0E700287BD070B5044658
:1035C000836A002B4DD02046FFF7D0FFA36A13F08B
:1035D000100369D1002867D1A26A22F4885222F030
:1035E000020242F00202A2626268E1690A43217BA0
:1035F00042EA4102A568B5F5807F02D0012D36D0A0
:103600001D46267D012E35D02668716821F469415A
:10361000294371602568AE68274931401143A9608C
:10362000A168B1F5807F01D0012902D12369013B56
:103630001B052568E96A21F470010B43EB622368DE
:1036400099681E4B0B409A4225D0A36A23F01203BF
:1036500043F01003A362E36A43F00103E362012035
:1036600027E0C36280F82430FFF7F6F9ABE74FF4A8
:103670008075C6E731B9A169013945EA413141F4A4
:103680000065C1E7A16A41F02001A162E16A41F051
:103690000101E162B8E70023E362A36A23F00303B8
:1036A00043F00103A36204E0A36A43F01003A362A2
:1036B000012070BD01207047FDF7E1FFFE0E1FFFE6
:1036C00003685A6912F4806F01D1002070476FF4CB
:1036D00080625A6100230363202280F83D2080F835
:1036E0003E30026C42F00402026480F83C3001205B
:1036F00070472DE9F04107460D4690461E4622E0F0
:1037000001F0B6FD069BC01AB04200D8DEB9002316
:103710003B63202287F83D2087F83E303A6C42F028
:1037200020023A6487F83C3001201AE03B689C692B
:1037300025EA0404A4B2B4FA84F46409A0450FD1C4
:10374000B6F1FF3FDCD1C5F30743012BEED13B6857
:103750005C6925EA0404A4B2B4FA84F46409EDE7D0
:103760000020BDE8F0812DE9F04105460E461746E0
:1037700098463DE01A6842F400721A602B686FF4B4
:1037800080625A6100232B63202285F83D2085F852
:103790003E302A6C42F004022A6485F83C30012055
:1037A00034E001F065FDA0EB0800B84200D8FFB995
:1037B00000232B63202285F83D2085F83E302A6CBB
:1037C00042F020022A6485F83C3001201EE02B687C
:1037D0009C6926EA0404A4B2003C18BF0124A4B1E9
:1037E0002B685A6912F4806FC4D1B7F1FF3FD8D16A
:1037F000C6F30743012BEAD12B685C6926EA04046F
:10380000A4B2003C18BF0124E9E70020BDE8F08124
:10381000F0B583B004460D4616461F46C36A082B12
:103820000DD0012B0BD013F5803F08D0036B122B6A
:103830000AD10268136843F48073136004E02268BD
:10384000136843F4807313600097334600224FF0EF
:1038500001112046FFF74DFF10BB2369B3F5804FE0
:103860000CD1236805F0FE051D613B4632460F4929
:103870002046FFF778FFB8B903B0F0BDEB1122681E
:1038800003F0060343F0F00313613B463246084958
:103890002046FFF768FF28B92368EDB21D61E4E711
:1038A0000120E9E70120E7E70120E5E70200010048
:1038B000080001002DE9F04184B004460D4616468B
:1038C0001F46C26A01680B6843F480630B60082AD4
:1038D0000DD0012A0BD012F5803F08D0036B112BBD
:1038E0000AD10268136843F48073136004E022680D
:1038F000136843F4807313600097334600224FF03F
:1039000001112046FFF7F5FE002848D12369B3F5E1
:10391000804F0ED1236845F00105EDB21D613B4695
:10392000324622492046FFF71EFF002838D00120EA
:1039300036E04FEAE51808F00608236848F0F00280
:103940001A613B4632461A492046FFF70CFF08B180
:10395000012025E02368EDB21D613B463246134944
:103960002046FFF700FF08B1012019E00022039272
:10397000236859690391996903910399196841F47E
:1039800080711960009733464FF001112046FFF710
:10399000B0FE40B9226848F0F1031361BFE701208F
:1039A00004B0BDE8F0810120FAE700BF0200010089
:1039B0000800010070B504460D46164623685B6991
:1039C00013F0800F1CD12046FFF77AFED0B9B5F175
:1039D000FF3FF3D001F04CFC801BA84201D8002D22
:1039E000ECD100232363202284F83D2084F83E306C
:1039F000226C42F02002226484F83C30012000E076
:103A0000002070BD0120FCE770B504460D46164647
:103A100023685B6913F0040F1CD12046FFF750FEAA
:103A2000D0B9B5F1FF3FF3D001F022FC801BA842D2
:103A300001D8002DECD100232363202284F83D20FF
:103A400084F83E30226C42F02002226484F83C303C
:103A5000012000E0002070BD0120FCE770B50546A4
:103A60000C4616462B68596911F0400F29D1596947
:103A700011F0100F15D101F0FBFB801BA04201D803
:103A8000002CEFD100232B63202285F83D2085F800
:103A90003E302A6C42F020022A6485F83C30012036
:103AA00070BD6FF010025A6100232B63202285F84D
:103AB0003D2085F83E302A6C2A6485F83C30012090
:103AC000EEE70020ECE70000002800F0C280F8B527
:103AD000044690F83D30002B6DD0242384F83D300F
:103AE0002268136823F00103136001F0EBFE6268A3
:103AF0005A4B9A4264D85A4B98428CBF00230123F8
:103B0000002B40F0A880574DA5FB0035AF0C266870
:103B1000716821F03F0141EA9541716021680B6AAB
:103B200023F03F0365684D4A95424FD87A1C1343F2
:103B30000B622568E96921F44F4121F0FF016368B8
:103B4000464A93424CD801385B00B0FBF3F0013099
:103B500040F6FC73184278D0C0F30B030B43EB61C3
:103B600021680B6823F0C003E269206A0243134313
:103B70000B6021688B6823F4034323F0FF03226961
:103B8000E068024313438B602168CB6823F0FF0396
:103B90006269A06902431343CB602268136843F053
:103BA0000103136000202064202384F83D3020634B
:103BB00084F83E00F8BD80F83C30FEF7BDFF8CE78E
:103BC000294B98428CBF0023012399E74FF496724A
:103BD00002FB07F2254DA5FB025292090132A6E72E
:103BE000A268BAB9461E03EB4307B6FBF7F60136E7
:103BF000C6F30B06B6FA86F6760946BBC2B9421E74
:103C000003EB4303B2FBF3F20132C2F30B0242F4C3
:103C10000043A3E7461E03EB830707EB8707B6FBCA
:103C2000F7F60136C6F30B06B6FA86F67609E4E730
:103C3000421E03EB830303EB8303B2FBF3F2013277
:103C4000C2F30B0242F4404388E7042386E70123D2
:103C500084E7012070470120ACE700BFA086010087
:103C60007F841E0083DE1B43FF083D00D34D62109E
:103C70002DE9F04385B004460F46914698460C9EC8
:103C800001F0F6FA054694F83D00C0B2202804D0B1
:103C90000227384605B0BDE8F083009519230122BC
:103CA0004F492046FFF725FD002840F0928094F808
:103CB0003C30012B00F08F80012384F83C302368D6
:103CC0001A6812F0010F03D11A6842F001021A605B
:103CD0002268136823F400631360212384F83D30C5
:103CE000102384F83E3000232364C4F82490A4F801
:103CF0002A80638D23853B4BE3622B46324639464F
:103D00002046FFF785FD0746002866D10023039370
:103D100023685A6903929B690393039B11E0236C08
:103D2000042B01D00127B4E72268136843F4007321
:103D30001360F7E72A4631462046FFF765FE002864
:103D40002ED1238D002B36D02A4631462046FFF750
:103D500031FE0028E3D1626A236812781A61616A31
:103D60004B1C6362638D9BB2013B9BB26385238DC9
:103D7000013B9BB223852268506910F0040FD9D013
:103D8000002BD7D04B781361636A01336362638D74
:103D90009BB2013B9BB26385238D013B2385C9E721
:103DA000236C042B01D0012773E72268136843F4C6
:103DB00000731360F7E72268136843F4007313601D
:103DC000202384F83D30002384F83E3084F83C30D2
:103DD0005FE702275DE702275BE7012759E700BF9E
:103DE000020010000000FFFF2DE9F04387B00446F9
:103DF0000F46914698460E9E01F03AFA054694F811
:103E00003D00C0B2202804D00227384607B0BDE8E4
:103E1000F0830095192301228E492046FFF769FCA3
:103E2000002840F04F8194F83C30012B00F04C8189
:103E3000012384F83C3023681A6812F0010F03D183
:103E40001A6842F001021A602268136823F40063C2
:103E50001360222384F83D30102384F83E30002381
:103E60002364C4F82490A4F82A80638D23857A4BB8
:103E7000E3622B46324639462046FFF71BFD0746D4
:103E8000002840F02381238D5BB9029323685A698F
:103E900002929A690292029A1A6842F400721A60B7
:103EA000A5E0012B0FD0022B21D02268136843F428
:103EB000806313600023059323685A6905929B6908
:103EC0000593059B93E02268136823F480631360D5
:103ED00072B60023039323685A6903929A69039286
:103EE000039A1A6842F400721A6062B67FE0226890
:103EF000136843F40063136072B6002304932368CD
:103F00005A6904929A690492049A1A6822F48062A7
:103F10001A6062B66BE02A4631462046FFF79EFDE6
:103F2000002840F0D58023681A69636A1A70636AB2
:103F300001336362238D013B2385638D9BB2013B7B
:103F40009BB2638553E000953346002243492046E7
:103F5000FFF7CFFB002840F0BD8072B622681368DF
:103F600043F40073136023681A69636A1A70636A02
:103F700001336362238D013B2385638D9BB2013B3B
:103F80009BB2638562B623681A69636A1A70636AB2
:103F900001336362238D013B2385638D9BB2013B1B
:103FA0009BB2638523E02268136843F400731360B7
:103FB00023681A69636A1A70636A01336362238D26
:103FC000013B2385638D9BB2013B9BB2638562B647
:103FD00023681A69636A1A70636A01336362238D06
:103FE000013B2385638D9BB2013B9BB26385238D8F
:103FF000002B5ED0032B33D8012B8CD0022BA2D008
:1040000000953346002215492046FFF772FB002831
:1040100062D12268136823F48063136072B6236848
:104020001A69636A1A70636A01336362238D013B04
:104030002385638D9BB2013B9BB26385009533461C
:10404000002206492046FFF754FB0028ABD0012789
:10405000DBE600BF020010000000FFFF04000100CB
:104060002A4631462046FFF7F9FC002836D123685E
:104070001A69636A1A70626A531C6362238D013B7A
:104080002385638D9BB2013B9BB26385236859698D
:1040900011F0040FABD01B695370636A0133636284
:1040A000238D013B2385638D9BB2013B9BB26385CE
:1040B0009DE7202384F83D30002384F83E3084F8C7
:1040C0003C30A2E60227A0E602279EE601279CE6F6
:1040D00001279AE6012798E6012796E6012794E64C
:1040E0002DE9F0410646884617461D463468A46807
:1040F00038EA04030CBF01240024BC4237D0B5F1D8
:10410000FF3FF3D001F0B4F8069BC01AA84201D2D9
:10411000002DEBD13268536823F0E00353607368DD
:10412000B3F5827F0BD0B36AB3F5005F14D00123DF
:1041300086F85130002386F85030032018E0B36829
:10414000B3F5004F02D0B3F5806FECD1326813683D
:1041500023F040031360E6E73268136823F400534A
:1041600013603268136843F400531360DFE70020E4
:10417000BDE8F08110B582B004460B4600920022E3
:104180008021FFF7ADFF08B902B010BD636D43F0A9
:10419000200363650320F7E7002839D010B50446F3
:1041A0000023836290F85130002B2CD0022384F836
:1041B00051302268136823F0400313606368A268DB
:1041C0001343E26813432269134362691343A269EC
:1041D00002F400721343E2691343226A1343A16A93
:1041E00022680B431360638B226803F0040353605F
:1041F0002268D36923F40063D36100206065012342
:1042000084F8513010BD80F85030FEF7F3FCCDE754
:10421000012070472DE9F04383B01D4690F85030DF
:10422000012B00F0C780044688469146012380F8A0
:10423000503001F01DF8074694F85160F6B2012E97
:1042400040F0A580B8F1000F00F0A280B9F1000F96
:1042500000F09E80032384F8513000236365C4F886
:104260003080A4F83490A4F83690A363A387E38742
:1042700063642364A368B3F5004F1ED023681A68F3
:1042800012F0400F03D11A6842F040021A60E3684E
:10429000B3F5006F17D0636813B1B9F1010F4DD1B9
:1042A000226B236812781A73236B01332363E38E26
:1042B0009BB2013B9BB2E38640E02268136843F463
:1042C00080431360DAE7636813B1B9F1010F16D1C7
:1042D000226B23681288DA60236B02332363E38E38
:1042E0009BB2013B9BB2E38609E000F0C1FFC01B1B
:1042F000A84202D3B5F1FF3F54D1002D54D0E38E34
:104300009BB2002B2ED023689A6812F0020FECD0DB
:10431000226B1288DA60236B02332363E38E9BB235
:10432000013B9BB2E386EAE700F0A2FFC01BA84274
:1043300002D3B5F1FF3F39D1002D39D0E38E9BB2C6
:1043400083B123689A6812F0020FEDD0226B1278C5
:104350001A73236B01332363E28E92B2013A92B255
:10436000E286EBE73A4629462046FFF703FF08B10D
:1043700020236365A36833B901932368DA68019247
:104380009B680193019B636D13B9002600E0022630
:10439000012384F85130002384F85030304603B0B4
:1043A000BDE8F0830326F3E70326F1E70326EFE7F2
:1043B0000326EDE70226F1E72DE9F04383B01F461F
:1043C0000A9D90F85030012B00F010810446884679
:1043D0009146012380F8503000F04AFF064694F8D9
:1043E0005130DBB26268012B0AD0B2F5827F40F017
:1043F000E380A268002A40F0E980042B40F0E880C6
:10440000B8F1000F00F0E680B9F1000F00F0E48091
:10441000002F00F0E38094F85130DBB2042B02D07F
:10442000052384F8513000236365C4F83890E7878A
:10443000A787C4F83080E786A7862364636423686F
:104440001A6812F0400F03D11A6842F040021A6055
:10445000E368B3F5006F11D063680BB1012F0BD186
:10446000226B236812781A73236B01332363E38E64
:104470009BB2013B9BB2E38601276BE063680BB103
:10448000012F0BD1226B23681288DA60236B023371
:104490002363E38E9BB2013B9BB2E38601271CE0C2
:1044A00023689A6812F0010F0ED0E28F92B25AB1CF
:1044B000DA68A36B1A80A36B0233A363E38F9BB20A
:1044C000013B9BB2E387012700F0D2FE801BA8428C
:1044D00003D3B5F1FF3F40F08380E38E9BB21BB95D
:1044E000E38F9BB2002B53D023689A6812F0020F1F
:1044F000D6D0E28E92B2002AD2D0002FD0D0226B3A
:104500001288DA60236B02332363E38E9BB2013B94
:104510009BB2E3860027C3E723689A6812F0010F75
:104520000ED0E28F92B25AB1DA68A36B1A70A36B05
:104530000133A363E38F9BB2013B9BB2E387012767
:1045400000F096FE831BAB4202D3B5F1FF3F49D189
:10455000002D49D0E38E9BB213B9E38F9BB2BBB160
:1045600023689A6812F0020FD6D0E28E92B2002A27
:10457000D2D0002FD0D0226B12781A73236B013364
:104580002363E38E9BB2013B9BB2E3860027C3E724
:10459000324629462046FFF7EDFD48B9A36863B9C6
:1045A00001932368DA6801929B680193019B04E000
:1045B00020236365012000E00220012384F85130AC
:1045C000002384F8503003B0BDE8F0830220F4E704
:1045D0000220F2E70120F0E70120EEE70120ECE7FE
:1045E0000320EAE70320E8E70320E6E70220EAE702
:1045F00070B4036A23F001030362036A46688269A8
:1046000022F073020C6844EA020523F002028B6870
:1046100013430D4CA04209D00B4CA0420DD0466074
:1046200085614A684263036270BC704723F00803E7
:10463000CA68134323F00403EEE726F440764A6980
:1046400032438E691643EAE7002C014030B4036A16
:1046500023F480730362036A4568C26922F073021F
:104660000C68224323F400738C6843EA04230F4C44
:10467000A04209D00D4CA0420ED04560C2614A68EC
:10468000C263036230BC704723F40063CC6843EA22
:10469000042323F48063EDE725F440554C6945EA93
:1046A00004158C6945EA0415E7E700BF002C0140BA
:1046B00030B4036A23F480530362036A4468C26916
:1046C00022F4E6420D6842EA052223F400538D6885
:1046D00043EA0533074DA84206D04460C2614A68E8
:1046E0000264036230BC704724F480444D6944EA9C
:1046F0008514F2E7002C014003681B4A90420AD05F
:10470000B0F1804F07D0A2F59432904203D002F569
:104710008062904203D123F070034A681343124A27
:1047200090420AD0B0F1804F07D0A2F59432904267
:1047300003D002F58062904203D123F44073CA682B
:10474000134323F080034A69134303608B68C362F9
:104750000B688362044B984202D001234361704787
:104760000B690363F9E700BF002C0140B0B110B53D
:10477000044690F83D3063B1022384F83D30214671
:1047800051F8040BFFF7B8FF012384F83D300020F7
:1047900010BD80F83C30FEF769FAEDE70120704764
:1047A00030B4036A23F010030362036A4468826929
:1047B00022F4E6420D6842EA052223F020038D68C8
:1047C00043EA05130E4DA84209D00D4DA8420ED064
:1047D000446082614A688263036230BC704723F0A0
:1047E0008003CD6843EA051323F04003EDE724F48A
:1047F00040644D6944EA85048D6944EA8504E7E72D
:10480000002C014038B590F83C30012B66D00446AE
:104810000D46012380F83C30022380F83D300C2AFD
:104820001AD8DFE802F007191919201919193419D3
:10483000191947000068FFF7DBFE2268936943F00F
:10484000080393612268936923F00403936122684B
:10485000936929690B439361012384F83D3000205B
:1048600084F83C0038BD0068FFF79AFF226893691E
:1048700043F4006393612268936923F48063936136
:1048800022689369296943EA01239361E4E7006898
:10489000FFF7DCFE2268D36943F00803D361226886
:1048A000D36923F00403D3612268D36929690B43D8
:1048B000D361D1E70068FFF7FBFE2268D36943F4B8
:1048C0000063D3612268D36923F48063D3612268D3
:1048D000D369296943EA0123D361BDE70220C1E717
:1048E00010B401F01F01012303FA01F4036A23EA63
:1048F00004030362036A02FA01F10B43036210BC72
:104900007047000010B5044601220068FFF7E8FF79
:1049100023680A4A93420BD02268936803F0070386
:10492000062B03D0136843F001031360002010BD71
:104930005A6C42F400425A64EEE700BF002C01407A
:1049400090F83C30012B1CD070B4012680F83C60FC
:10495000022380F83D3002685568936825F07005A1
:104960000C682C4323F080054B682B43546002688D
:10497000936080F83D60002380F83C30184670BC9E
:1049800070470220704790F83C30012B22D0012361
:1049900080F83C30CB6823F440738A68134323F4D7
:1049A00080634A68134323F400630A68134323F4C3
:1049B00080530A69134323F400534A69134323F4D1
:1049C0008043CA69134302685364002380F83C3073
:1049D00018467047022070470268D36823F0C0036E
:1049E000D360202380F8393070470268D36823F4FD
:1049F0009073D3600268536923F00103536120234D
:104A000080F83A30704790F83930DBB2212B01D072
:104A1000022070478368B3F5805F17D0036A5A1C81
:104A200002621A7803685A60C38C9BB2013B9BB246
:104A3000C3844BB90268D36823F08003D360026853
:104A4000D36843F04003D36000207047036A1B889B
:104A50000268C3F30803536003691BB9036A023396
:104A60000362E1E7036A01330362DDE738B5044618
:104A70000268136923F44053C1680B4313618368D0
:104A80000269134342691A430168CB6823F4B053A7
:104A900023F00C031343CB600268536923F4407383
:104AA00081690B4353610268214B9A421FD000F089
:104AB00009FF00EB800000EB800063689B00B0FB07
:104AC000F3F01C4DA5FB00325109642303FB1103D5
:104AD0001B013233A5FB03235B0903F0F00202EB59
:104AE000011203F00F03216813448B6038BD00F0FE
:104AF000F9FE00EB800000EB800063689B00B0FBD8
:104B0000F3F00C4DA5FB00325109642303FB1103A4
:104B10001B013233A5FB03235B0903F0F00202EB18
:104B2000011203F00F03216813448B60DEE700BF1E
:104B3000003801401F85EB512DE9F84305460F462B
:104B400016469946DDF820802C68246837EA04036D
:104B50000CBF01240024B4421FD1B8F1FF3FF3D0B1
:104B6000B8F1000F05D000F083FBA0EB0900404531
:104B7000EAD92A68D36823F4D073D3602A685369CA
:104B800023F001035361202385F8393085F83A304A
:104B9000002385F83830032000E00020BDE8F883CA
:104BA00058B310B5044690F839300BB3242384F879
:104BB00039302268D36823F40053D3602046FFF7CE
:104BC00055FF2268136923F49043136122685369E7
:104BD00023F02A0353612268D36843F40053D3605F
:104BE0000020E063202384F8393084F83A3010BD87
:104BF00080F83830FEF7FCF9D8E7012070472DE93E
:104C0000F04182B01E4690F83930DBB2202B58D1EB
:104C100004460D469046002957D0002A57D090F8F8
:104C20003830012B55D0012380F838300023C3637E
:104C3000212380F8393000F01BFB0746A4F82480BC
:104C4000A4F8268017E000963B46002280212046EB
:104C5000FFF772FF00283ED12B882268C3F30803B8
:104C6000536023690BB9023505E0013503E015F8FF
:104C7000012B23685A60E38C9BB29BB1E28C92B209
:104C8000013A92B2E284A368B3F5805FDBD000966C
:104C90003B46002280212046FFF74EFF0028E6D049
:104CA00003200FE000963B46002240212046FFF7FC
:104CB00043FF90B9202384F83930002384F838303A
:104CC00000E0022002B0BDE8F0810120FAE70120F7
:104CD000F8E70220F6E70320F4E70320F2E790F874
:104CE0003930DBB2202B16D1B9B1C2B190F83830CF
:104CF000012B16D001628284C2840023C363212267
:104D000080F8392080F838300168CA6842F08002A3
:104D1000CA60184670470220704701207047012082
:104D200070470220704790F83A30DBB2202B20D138
:104D300009B312B390F83830012B20D081628285FC
:104D4000C2850023C363222280F83A2080F83830DD
:104D50000168CA6842F48072CA6001684A6942F018
:104D600001024A610168CA6842F02002CA6018461E
:104D700070470220704701207047012070470220D1
:104D80007047000038B590F83930DBB2202B31D1B4
:104D90000446002930D0002A30D090F83830012B5A
:104DA0002ED0012380F8383001628284C28400252D
:104DB000C563212380F83930036B12489862236B56
:104DC0001148D862236B11481863236B5D63206818
:104DD0001346021D206B01F011F823686FF04002AA
:104DE0001A6084F838502268536943F08003536195
:104DF000284600E0022038BD0120FCE70120FAE748
:104E00000220F8E71F4F00086B4F00085F500008B2
:104E100030B583B0044690F83A00C0B220283CD1A7
:104E200000293DD0002A3DD094F83830012B3BD0EA
:104E3000012384F83830A162A2850025E56322238E
:104E400084F83A30636B19489862636B1848D862EB
:104E5000636B18481863636B5D63206813460A46EA
:104E6000011D606B00F0CAFF019523681A6801926A
:104E70005A680192019A84F83850DA6842F48072D4
:104E8000DA602268536943F0010353612268536971
:104E900043F040035361284600E0022003B030BDD8
:104EA0000120FBE70120F9E70220F7E7754F000832
:104EB000535000085F50000810B5044601684A6965
:104EC00090F83930DBB2212B0AD021684A6902F010
:104ED000400294F83A30DBB2222B11D0002010BDF2
:104EE00002F08002002AF0D04B6923F080034B616E
:104EF000006B08B100F0BCFF2046FFF76DFDE4E752
:104F0000002AEBD04B6923F040034B61606B08B182
:104F100000F0AEFF2046FFF768FDDFE7704708B5F9
:104F20000346406A1B681B6813F0200F0CD1002356
:104F3000C3840268536923F0800353610268D36815
:104F400043F04003D36008BDFFF7E8FFFBE708B577
:104F50000168CA6822F04002CA60202280F8392025
:104F6000FFF7DCFF002008BD704708B5406AFFF777
:104F7000FBFF08BD08B50346406A1B681B6813F0B9
:104F8000200F13D10023C3850268D36823F48073F4
:104F9000D3600268536923F00103536102685369C7
:104FA00023F040035361202380F83A30FCF7E2FFFE
:104FB00008BD08B590F83A30DBB2222B46D18368A1
:104FC000B3F5805F0FD003690BBB03685A68836A2F
:104FD000591C81621A70C38D9BB2013B9BB2C38581
:104FE000F3B1002008BD826A036943B903685B68B6
:104FF000C3F308031380836A02338362EBE7036819
:105000005B68DBB21380836A01338362E3E7036882
:105010005B68826A511C816203F07F031370DAE7D8
:105020000268D36823F02003D3600268D36823F4B6
:105030008073D3600268536923F001035361202316
:1050400080F83A30FCF796FF0020CBE70220C9E752
:10505000704708B5406AFFF7FBFF08BD704710B501
:10506000446A23685A6994F83930DBB2212B10D096
:1050700023685A6902F0400294F83A30DBB2222BDE
:1050800011D0E36B43F01003E3632046FFF7E6FF24
:1050900010BD02F08002002AEAD00023E3842046FB
:1050A000FFF79AFCE4E7002AEBD00023E3852046D3
:1050B000FFF79BFCE5E7000010B5044602681368A3
:1050C000D168526913F00F0005D113F0200F02D000
:1050D00011F0200F13D128B112F0010213D111F4F5
:1050E000907F10D113F0800F02D011F0800F69D1A2
:1050F00013F0400F02D011F0400F67D110BD2046D1
:10510000FFF757FFFAE713F0010F06D011F4807F85
:1051100003D0E06B40F00100E06313F0040F04D013
:105120001AB1E06B40F00200E06313F0020F04D00C
:105130001AB1E06B40F00400E06313F0080F04D0F4
:105140001AB1E26B42F00802E263E26B002AD5D0AA
:1051500013F0200F02D011F0200F21D123685B69DA
:1051600003F04003E26B12F0080F00D123B3204696
:10517000FFF73BFC23685A6912F0400F18D05A69B8
:1051800022F040025A61636B73B1124A5A63606B3A
:1051900000F090FE0028B1D0606B436B9847ADE7FC
:1051A0002046FFF706FFD9E72046FFF757FFA5E7A0
:1051B0002046FFF753FFA1E72046FFF74FFF0023EC
:1051C000E3639BE72046FFF71EFC97E72046FFF7C7
:1051D000BEFE93E7D951000808B5406A0023C38595
:1051E000C384FFF73BFF08BD10B504460E4B18788B
:1051F0004FF47A73B3FBF0F30C4A1068B0FBF3F092
:1052000000F09AFF68B90F2C01D901200AE00022B2
:1052100021464FF0FF3000F04DFF054B1C60002091
:1052200000E0012010BD00BFEC000020F4000020D1
:10523000F000002008B5074A136843F0100313601C
:10524000032000F025FF0020FFF7CEFFFDF764FFED
:10525000002008BD00200240034A1168034B1B7860
:105260000B441360704700BF6C080020EC00002066
:10527000014B1868704700BF6C08002038B5044621
:10528000FFF7F6FF0546B4F1FF3F02D0044B1B7851
:105290001C44FFF7EDFF401BA042FAD338BD00BF0E
:1052A000EC00002082B0084B1B68084AA2FB0323D5
:1052B0005B0A00FB03F3019300BF019B5A1E01929E
:1052C000002BF9D102B07047F4000020D34D6210DA
:1052D000002800F0F18170B582B00446036813F035
:1052E000010F2CD0AA4B5B6803F00C03042B1DD0DC
:1052F000A74B5B6803F00C03082B12D06368B3F56F
:10530000803F41D0002B55D103F1804303F5043396
:105310001A6822F480321A601A6822F480221A6015
:1053200037E09B4B5B6813F4803FE7D0984B1B68DA
:1053300013F4003F03D06368002B00F0BF812368A3
:1053400013F0020F75D0924B5B6813F00C0F5FD017
:105350008F4B5B6803F00C03082B54D02369002BA0
:1053600000F089808B4B01221A60FFF781FF054610
:10537000874B1B6813F0020F74D1FFF779FF401BB6
:105380000228F5D903209EE1814A136843F4803353
:105390001360636843B3FFF76BFF05467C4B1B68E4
:1053A00013F4003FCBD1FFF763FF401B6428F5D90E
:1053B000032088E1B3F5A02F09D0754B1A6822F4B9
:1053C00080321A601A6822F480221A60E1E703F141
:1053D0008043A3F53C331A6842F480221A601A68AD
:1053E00042F480321A60D4E7FFF742FF0546684B6B
:1053F0001B6813F4003FA2D0FFF73AFF401B64285C
:10540000F5D903205FE1624B5B6813F4803FA5D1BF
:105410005F4B1B6813F0020F03D02369012B40F090
:105420004F815B4A136823F0F803616943EAC103C3
:105430001360236813F0080F32D0A369002B45D006
:10544000554B01221A60FFF713FF0546504B5B6A6C
:1054500013F0020F21D1FFF70BFF401B0228F5D9F3
:10546000032030E14A4A136823F0F803616943EAF4
:10547000C1031360DDE7474B00221A60FFF7F8FE17
:105480000546434B1B6813F0020FD2D0FFF7F0FE26
:10549000401B0228F5D9032015E10120FFF702FF88
:1054A000236813F0040F00F09780394BDB6913F089
:1054B000805F1DD1364BDA6942F08052DA61DB69D8
:1054C00003F080530193019B012512E0324B00222F
:1054D0001A60FFF7CDFE05462D4B5B6A13F0020FF5
:1054E000DED0FFF7C5FE401B0228F5D90320EAE015
:1054F00000252A4B1B6813F4807F11D0E368012B31
:1055000022D0002B38D103F1804303F504331A6A0B
:1055100022F001021A621A6A22F004021A6218E0EA
:105520001E4A136843F480731360FFF7A1FE06461A
:105530001A4B1B6813F4807FE0D1FFF799FE801BA4
:105540006428F5D90320BEE0114A136A43F0010331
:105550001362E36873B3FFF78BFE06460C4B1B6ABE
:1055600013F0020F37D1FFF783FE801B41F288331F
:105570009842F3D90320A6E0052B11D0044B1A6AF8
:1055800022F001021A621A6A22F004021A62E0E7AB
:10559000001002400000424280044242007000407D
:1055A0004D4B1A6A42F004021A621A6A42F0010272
:1055B0001A62CEE7FFF75CFE0646474B1B6A13F004
:1055C000020F08D0FFF754FE801B41F28833984247
:1055D000F3D9032077E0E5B9E369002B72D03E4AA6
:1055E000526802F00C02082A56D0022B17D03B4B0F
:1055F00000221A60FFF73CFE0446374B1B6813F08D
:10560000007F47D0FFF734FE001B0228F5D90320A6
:1056100059E0314AD36923F08053D361DCE72F4B43
:1056200000221A60FFF724FE05462B4B1B6813F07F
:10563000007F06D0FFF71CFE401B0228F5D903208F
:1056400041E0236AB3F5803F1AD023494B6823F425
:105650007413226A606A024313434B601F4B01229A
:105660001A60FFF705FE04461B4B1B6813F0007F12
:105670000ED1FFF7FDFD001B0228F5D9032022E023
:10568000154A536823F40033A1680B435360DCE7E9
:10569000002018E0002016E0012B16D00E4B5B68AE
:1056A00003F48031226A914211D103F47013626ACB
:1056B00093420ED1002006E001207047012002E055
:1056C000012000E0002002B070BD0120FBE70120B6
:1056D000F9E70120F7E700BF0010024060004242F6
:1056E00086B0164B0FCB0DF1180C0CE90F0040F2F1
:1056F0000123ADF80430124B5B6803F00C02082A5A
:1057000002D0104806B07047C3F38342624412F8D7
:10571000102C13F4803F0CD0094B5B68C3F340435B
:10572000634413F8143C074800FB02F0B0FBF3F0AD
:10573000E8E7054800FB02F0E4E700BFA49F00088B
:105740000010024000127A0000093D00002800F01D
:10575000A08070B50D460446524B1B6803F007034A
:105760008B420BD24F4A136823F007030B4313609D
:10577000136803F007038B4240F08D80236813F019
:10578000020F17D013F0040F04D0474A536843F4B4
:10579000E0635360236813F0080F04D0424A536853
:1057A00043F460535360404A536823F0F003A16808
:1057B0000B435360236813F0010F31D06368012B52
:1057C00020D0022B25D0384A126812F0020F64D084
:1057D00035494A6822F0030213434B60FFF748FD46
:1057E0000646314B5B6803F00C036268B3EB820F33
:1057F00016D0FFF73DFD801B41F288339842F0D967
:10580000032045E0284A126812F4003FE0D101204D
:105810003EE0254A126812F0007FD9D1012037E01E
:10582000204B1B6803F00703AB420AD91D4A1368DB
:1058300023F007032B431360136803F00703AB4205
:105840002DD1236813F0040F06D0174A536823F4B0
:10585000E063E1680B435360236813F0080F07D03F
:10586000114A536823F46053216943EAC10353602A
:10587000FFF736FF0C4B5B68C3F303130B4AD35C93
:10588000D8400B4B18600B4B1868FFF7ADFC00209D
:1058900070BD012070470120FAE70120F8E70120E0
:1058A000F6E700BF0020024000100240B89F000849
:1058B000F4000020F0000020014B1868704700BF82
:1058C000F400002008B5FFF7F7FF044B5B68C3F353
:1058D0000223034AD35CD84008BD00BF0010024039
:1058E000C89F000808B5FFF7E7FF044B5B68C3F3E8
:1058F000C223034AD35CD84008BD00BF0010024059
:10590000C89F000870B582B00446036813F0010F09
:1059100034D03E4BDB6913F0805F47D13B4BDA69F3
:1059200042F08052DA61DB6903F080530193019BFE
:105930000125374B1B6813F4807F39D0334B1B6A2A
:1059400013F4407311D0626802F440729A420CD092
:105950002E4A136A23F440702E4901260E60002659
:105960000E60106213F0010F36D1284A136A23F437
:10597000407361680B431362002D3ED1236813F01E
:10598000020F06D0214A536823F44043A1680B4319
:105990005360236813F0100F34D01C4A536823F46B
:1059A0008003E1680B43536000202CE00025C0E732
:1059B000174A136843F480731360FFF759FC0646D7
:1059C000134B1B6813F4807FB8D1FFF751FC801B89
:1059D0006428F5D9032016E0FFF74AFC06460B4B76
:1059E0001B6A13F0020FC0D1FFF742FC801B41F28B
:1059F00088339842F3D9032005E0D36923F080531C
:105A0000D361BBE7002002B070BD00BF00100240B0
:105A1000007000404004424210B586B00446364B48
:105A20000FCB0DF1180C0CE90F0040F20123ADF87B
:105A30000430022C52D0102C04D0012C2CD0002089
:105A400006B010BD2D4B5A68186810F08070F7D062
:105A5000C2F3834306A90B4413F8100C12F4803FE1
:105A600016D0264B5B68C3F340430B4413F8142C49
:105A7000234BB3FBF2F300FB03F0204B5B6813F402
:105A8000800FDDD140001F4BA3FB00304008D7E75B
:105A90001D4B03FB00F0F0E7184B1B6A40F202328B
:105AA0001A40B2F5817F24D003F44073B3F5007F30
:105AB00004D0B3F5407F09D00020C1E70F4A526AF5
:105AC00012F0020FF5D049F64040B9E70B4B1868C9
:105AD00010F40030B4D04FF22440B1E7FFF702FFDA
