:020000040800F2
:1000000000500020CD6200081530000817300008AD
:10001000193000081B3000081D30000800000000E7
:100020000000000000000000000000001F30000879
:1000300021300008000000002330000825300008AF
:1000400015630008156300081563000815630008B0
:1000500015630008156300081563000815630008A0
:100060001563000815630008156300081563000890
:10007000156300081563000831300008413000089E
:100080001563000815630008156300081563000870
:100090001563000815630008156300081563000860
:1000A0001563000815630008156300081563000850
:1000B0001563000815630008156300081563000840
:1000C0001563000815630008156300081563000830
:1000D0001563000851300008156300081563000817
:1000E0001563000815630008156300080000000090
:1000F0000000000000000000000000000000000000
:0C01000000000000000000005FF808F1A3
:1001100010B5054C237833B9044B13B10448AFF341
:1001200000800123237010BD2C020020000000007D
:100130005490000808B5034B1BB103490348AFF3C3
:10014000008008BD0000000030020020549000082C
:10015000034613F8012B002AFBD1181A0138704707
:1001600081F0004102E000BF83F0004330B54FEA68
:1001700041044FEA430594EA050F08BF90EA020FD5
:100180001FBF54EA000C55EA020C7FEA645C7FEA68
:10019000655C00F0E2804FEA5454D4EB5555B8BF8B
:1001A0006D420CDD2C4480EA020281EA030382EAFC
:1001B000000083EA010180EA020281EA0303362D8E
:1001C00088BF30BD11F0004F4FEA01314FF4801C61
:1001D0004CEA113102D0404261EB410113F0004F73
:1001E0004FEA03334CEA133302D0524263EB43032A
:1001F00094EA050F00F0A780A4F10104D5F1200EC8
:100200000DDB02FA0EFC22FA05F2801841F1000122
:1002100003FA0EF2801843FA05F359410EE0A5F1F6
:1002200020050EF1200E012A03FA0EFC28BF4CF027
:10023000020C43FA05F3C01851EBE37101F00045DD
:1002400007D54FF0000EDCF1000C7EEB00006EEBEA
:100250000101B1F5801F1BD3B1F5001F0CD3490874
:100260005FEA30004FEA3C0C04F101044FEA4452CB
:1002700012F5800F80F09A80BCF1004F08BF5FEA52
:10028000500C50F1000041EB045141EA050130BD32
:100290005FEA4C0C404141EB0101013C28BFB1F544
:1002A000801FE9D291F0000F04BF01460020B1FA8F
:1002B00081F308BF2033A3F10B03B3F120020CDA62
:1002C0000C3208DD02F1140CC2F10C0201FA0CF040
:1002D00021FA02F10CE002F11402D8BFC2F1200CA5
:1002E00001FA02F120FA0CFCDCBF41EA0C0190405B
:1002F000E41AA2BF01EB0451294330BD6FEA0404A4
:100300001F3C1CDA0C340EDC04F11404C4F120028E
:1003100020FA04F001FA02F340EA030021FA04F3A0
:1003200045EA030130BDC4F10C04C4F1200220FAF7
:1003300002F001FA04F340EA0300294630BD21FA35
:1003400004F0294630BD94F0000F83F4801306BFFB
:1003500081F480110134013D4EE77FEA645C18BFEF
:100360007FEA655C29D094EA050F08BF90EA020F86
:1003700005D054EA000C04BF1946104630BD91EA7E
:10038000030F1EBF0021002030BD5FEA545C05D181
:100390004000494128BF41F0004130BD14F58004C0
:1003A0003CBF01F5801130BD01F0004545F0FE4134
:1003B00041F470014FF0000030BD7FEA645C1ABF69
:1003C000194610467FEA655C1CBF0B46024650EAA0
:1003D000013406BF52EA033591EA030F41F40021CC
:1003E00030BD00BF90F0000F04BF0021704730B552
:1003F0004FF4806404F132044FF000054FF0000127
:1004000050E700BF90F0000F04BF0021704730B5E7
:100410004FF4806404F1320410F0004548BF4042BC
:100420004FF000013EE700BF42004FEAE2014FEA11
:1004300031014FEA02701FBF12F07F4393F07F4FEC
:1004400081F06051704732F07F4208BF704793F0EF
:100450007F4F04BF41F40021704730B54FF4607402
:1004600001F0004521F000411CE700BF50EA010205
:1004700008BF704730B54FF000050AE050EA0102AE
:1004800008BF704730B511F0004502D5404261EB1E
:1004900041014FF4806404F132045FEA915C3FF45F
:1004A000D8AE4FF003025FEADC0C18BF03325FEAFC
:1004B000DC0C18BF033202EBDC02C2F1200300FAAD
:1004C00003FC20FA02F001FA03FE40EA0E0021FAD2
:1004D00002F11444BDE600BF70B54FF0FF0C4CF4C0
:1004E000E06C1CEA11541DBF1CEA135594EA0C0F72
:1004F00095EA0C0F00F0DEF82C4481EA030621EAAD
:100500004C5123EA4C5350EA013518BF52EA0335E7
:1005100041F4801143F4801338D0A0FB02CE4FF099
:100520000005E1FB02E506F00042E0FB03E54FF0C9
:100530000006E1FB03569CF0000F18BF4EF0010EC1
:10054000A4F1FF04B6F5007F64F5407404D25FEABD
:100550004E0E6D4146EB060642EAC62141EA555170
:100560004FEAC52040EA5E504FEACE2EB4F1FD0CB2
:1005700088BFBCF5E06F1ED8BEF1004F08BF5FEA30
:10058000500E50F1000041EB045170BD06F00046E2
:1005900046EA010140EA020081EA0301B4EB5C048F
:1005A000C2BFD4EB0C0541EA045170BD41F4801187
:1005B0004FF0000E013C00F3AB8014F1360FDEBFAC
:1005C000002001F0004170BDC4F10004203C35DA88
:1005D0000C341BDC04F11404C4F1200500FA05F30B
:1005E00020FA04F001FA05F240EA020001F00042AC
:1005F00021F0004110EBD37021FA04F642EB060122
:100600005EEA430E08BF20EAD37070BDC4F10C044B
:10061000C4F1200500FA04F320FA05F001FA04F20F
:1006200040EA020001F0004110EBD37041F10001FB
:100630005EEA430E08BF20EAD37070BDC4F1200506
:1006400000FA05F24EEA020E20FA04F301FA05F26E
:1006500043EA020321FA04F001F0004121FA04F216
:1006600020EA020000EBD3705EEA430E08BF20EAE6
:10067000D37070BD94F0000F0FD101F00046400020
:1006800041EB010111F4801F08BF013CF7D041EAA2
:10069000060195F0000F18BF704703F000465200A6
:1006A00043EB030313F4801F08BF013DF7D043EA77
:1006B0000603704794EA0C0F0CEA135518BF95EA2D
:1006C0000C0F0CD050EA410618BF52EA4306D1D1B4
:1006D00081EA030101F000414FF0000070BD50EAD3
:1006E000410606BF1046194652EA430619D094EA5D
:1006F0000C0F02D150EA013613D195EA0C0F05D147
:1007000052EA03361CBF104619460AD181EA03019A
:1007100001F0004141F0FE4141F470014FF0000052
:1007200070BD41F0FE4141F4780170BD70B54FF0ED
:10073000FF0C4CF4E06C1CEA11541DBF1CEA13556D
:1007400094EA0C0F95EA0C0F00F0A7F8A4EB05044F
:1007500081EA030E52EA03354FEA013100F0888046
:100760004FEA03334FF0805545EA131343EA12630F
:100770004FEA022245EA111545EA10654FEA0026C4
:100780000EF000419D4208BF964244F1FD0404F57D
:10079000407402D25B084FEA3202B61A65EB0305D9
:1007A0005B084FEA32024FF480104FF4002CB6EB96
:1007B000020E75EB030E22BFB61A754640EA0C0016
:1007C0005B084FEA3202B6EB020E75EB030E22BF56
:1007D000B61A754640EA5C005B084FEA3202B6EB97
:1007E000020E75EB030E22BFB61A754640EA9C0056
:1007F0005B084FEA3202B6EB020E75EB030E22BF26
:10080000B61A754640EADC0055EA060E18D04FEAE3
:10081000051545EA16754FEA06164FEAC30343EA83
:1008200052734FEAC2025FEA1C1CC0D111F4801F50
:100830000BD141EA00014FF000004FF0004CB6E749
:1008400011F4801F04BF01430020B4F1FD0C88BFE8
:10085000BCF5E06F3FF6AFAEB5EB030C04BFB6EBF3
:10086000020C5FEA500C50F1000041EB045170BDE6
:100870000EF0004E4EEA113114EB5C04C2BFD4EB13
:100880000C0541EA045170BD41F480114FF0000E97
:10089000013C90E645EA060E8DE60CEA135594EA13
:1008A0000C0F08BF95EA0C0F3FF43BAF94EA0C0F16
:1008B0000AD150EA01347FF434AF95EA0C0F7FF48B
:1008C00025AF104619462CE795EA0C0F06D152EADF
:1008D00003353FF4FDAE1046194622E750EA4106C3
:1008E00018BF52EA43067FF4C5AE50EA41047FF4D4
:1008F0000DAF52EA43057FF4EBAE12E74FF0FF3C39
:1009000006E000BF4FF0010C02E000BF4FF0010C09
:100910004DF804CD4FEA410C7FEA6C5C4FEA430C82
:1009200018BF7FEA6C5C1BD001B050EA410C0CBFD1
:1009300052EA430C91EA030F02BF90EA020F002033
:10094000704710F1000F91EA030F58BF994208BF9A
:1009500090422CBFD8176FEAE37040F00100704757
:100960004FEA410C7FEA6C5C02D150EA013C07D1AE
:100970004FEA430C7FEA6C5CD6D152EA033CD3D0F9
:100980005DF8040B704700BF8446104662468C46F3
:100990001946634600E000BF01B5FFF7B7FF002826
:1009A00048BF10F1000F01BD4DF808EDFFF7F4FF4F
:1009B0000CBF012000205DF808FB00BF4DF808EDDA
:1009C000FFF7EAFF34BF012000205DF808FB00BFFD
:1009D0004DF808EDFFF7E0FF94BF012000205DF81F
:1009E00008FB00BF4DF808EDFFF7CEFF94BF0120D4
:1009F00000205DF808FB00BF4DF808EDFFF7C4FFCD
:100A000034BF012000205DF808FB00BF4A0011D26E
:100A100012F5001211D20DD56FF47873B3EB625258
:100A20000ED44FEAC12343F0004343EA505323FA64
:100A300002F070474FF00000704750EA013002D1D9
:100A40004FF0FF3070474FF0000070474FEA41020F
:100A5000B2F1E04324BFB3F5001CDCF1FE5C0DD91C
:100A600001F0004C4FEAC0024CEA5070B2F1004F66
:100A700040EB830008BF20F00100704711F0804F69
:100A800021D113F13872BCBF01F00040704741F42E
:100A900080114FEA5252C2F11802C2F1200C10FA32
:100AA0000CF320FA02F018BF40F001004FEAC12316
:100AB0004FEAD32303FA0CFC40EA0C0023FA02F3BA
:100AC0004FEA4303CCE77FEA625307D150EA013390
:100AD0001EBF4FF0FE4040F44000704701F0004060
:100AE00040F0FE4040F40000704700BF80F000403E
:100AF00002E000BF81F0004142001FBF5FEA4103F6
:100B000092EA030F7FEA226C7FEA236C6AD04FEAF5
:100B10001262D2EB1363C1BFD2184140484041403A
:100B2000B8BF5B42192B88BF704710F0004F40F4EC
:100B3000000020F07F4018BF404211F0004F41F408
:100B4000000121F07F4118BF494292EA030F3FD0D4
:100B5000A2F1010241FA03FC10EB0C00C3F12003E7
:100B600001FA03F100F0004302D5494260EB400076
:100B7000B0F5000F13D3B0F1807F06D340084FEAE1
:100B8000310102F10102FE2A51D2B1F1004F40EBD6
:100B9000C25008BF20F0010040EA0300704749003E
:100BA00040EB0000013A28BFB0F5000FEDD2B0FADB
:100BB00080FCACF1080CB2EB0C0200FA0CF0AABFFE
:100BC00000EBC25052421843BCBFD040184370479C
:100BD00092F0000F81F4000106BF80F400000132A2
:100BE000013BB5E74FEA41037FEA226C18BF7FEA79
:100BF000236C21D092EA030F04D092F0000F08BFBB
:100C00000846704790EA010F1CBF0020704712F0A1
:100C10007F4F04D1400028BF40F00040704712F1E0
:100C200000723CBF00F50000704700F0004343F045
:100C3000FE4040F4000070477FEA226216BF08467B
:100C40007FEA23630146420206BF5FEA412390EA3E
:100C5000010F40F4800070474FF0000304E000BF34
:100C600010F0004348BF40425FEA000C08BF7047E5
:100C700043F0964301464FF000001CE050EA0102A9
:100C800008BF70474FF000030AE000BF50EA0102BE
:100C900008BF704711F0004302D5404261EB4101AB
:100CA0005FEA010C02BF84460146002043F0B643D0
:100CB00008BFA3F18053A3F50003BCFA8CF2083AF5
:100CC000A3EBC25310DB01FA02FC634400FA02FCFE
:100CD000C2F12002BCF1004F20FA02F243EB020005
:100CE00008BF20F00100704702F1200201FA02FC67
:100CF000C2F1200250EA4C0021FA02F243EB02005A
:100D000008BF20EADC7070474FF0FF0C1CEAD0529D
:100D10001EBF1CEAD15392EA0C0F93EA0C0F6FD05E
:100D20001A4480EA010C400218BF5FEA41211ED03C
:100D30004FF0006343EA501043EA5111A0FB013128
:100D40000CF00040B1F5000F3EBF490041EAD371FD
:100D50005B0040EA010062F17F02FD2A1DD8B3F179
:100D6000004F40EBC25008BF20F00100704790F0E8
:100D7000000F0CF0004C08BF49024CEA502040EA3A
:100D800051207F3AC2BFD2F1FF0340EAC250704700
:100D900040F400004FF00003013A5DDC12F1190F3E
:100DA000DCBF00F000407047C2F10002410021FAB0
:100DB00002F1C2F1200200FA02FC5FEA310040F1C8
:100DC000000053EA4C0308BF20EADC70704792F041
:100DD000000F00F0004C02BF400010F4000F013A79
:100DE000F9D040EA0C0093F0000F01F0004C02BF74
:100DF000490011F4000F013BF9D041EA0C018FE7E3
:100E00000CEAD15392EA0C0F18BF93EA0C0F0AD0E8
:100E100030F0004C18BF31F0004CD8D180EA01000E
:100E200000F00040704790F0000F17BF90F0004FA7
:100E3000084691F0000F91F0004F14D092EA0C0F89
:100E400001D142020FD193EA0C0F03D14B0218BF1C
:100E5000084608D180EA010000F0004040F0FE4062
:100E600040F40000704740F0FE4040F440007047FE
:100E70004FF0FF0C1CEAD0521EBF1CEAD15392EA7D
:100E80000C0F93EA0C0F69D0A2EB030280EA010C6D
:100E900049024FEA402037D04FF0805343EA111106
:100EA00043EA10130CF000408B4238BF5B0042F164
:100EB0007D024FF4000C8B4224BF5B1A40EA0C0009
:100EC000B3EB510F24BFA3EB510340EA5C00B3EB3B
:100ED000910F24BFA3EB910340EA9C00B3EBD10F29
:100EE00024BFA3EBD10340EADC001B0118BF5FEA7B
:100EF0001C1CE0D1FD2A3FF650AF8B4240EBC250A4
:100F000008BF20F0010070470CF0004C4CEA502064
:100F10007F32C2BFD2F1FF0340EAC250704740F4B3
:100F200000004FF00003013A37E792F0000F00F0A5
:100F3000004C02BF400010F4000F013AF9D040EA23
:100F40000C0093F0000F01F0004C02BF490011F4B7
:100F5000000F013BF9D041EA0C0195E70CEAD153AF
:100F600092EA0C0F08D142027FF47DAF93EA0C0F96
:100F70007FF470AF084676E793EA0C0F04D14B027A
:100F80003FF44CAF08466EE730F0004C18BF31F02C
:100F9000004CCAD130F000427FF45CAF31F0004326
:100FA0007FF43CAF5FE700BF4FF0FF3C06E000BFBF
:100FB0004FF0010C02E000BF4FF0010C4DF804CDE2
:100FC0004FEA40024FEA41037FEA226C18BF7FEAF2
:100FD000236C11D001B052EA530C18BF90EA010FF4
:100FE00058BFB2EB030088BFC81738BF6FEAE17083
:100FF00018BF40F0010070477FEA226C02D15FEA1F
:10100000402C05D17FEA236CE4D15FEA412CE1D08A
:101010005DF8040B704700BF844608466146FFE751
:101020000FB5FFF7C9FF002848BF10F1000F0FBD33
:101030004DF808EDFFF7F4FF0CBF012000205DF82C
:1010400008FB00BF4DF808EDFFF7EAFF34BF0120B1
:1010500000205DF808FB00BF4DF808EDFFF7E0FF4A
:1010600094BF012000205DF808FB00BF4DF808ED9B
:10107000FFF7D2FF94BF012000205DF808FB00BFFE
:101080004DF808EDFFF7C8FF34BF012000205DF8E0
:1010900008FB00BF4FEA40024FEA41037FEA226C9F
:1010A00002D15FEA402C08D17FEA236C02D15FEACB
:1010B000412C02D14FF0000070474FF00100704703
:1010C0004FEA4002B2F1FE4F0FD34FF09E03B3EB55
:1010D00012620DD94FEA002343F0004310F0004F95
:1010E00023FA02F018BF404270474FF000007047EB
:1010F00012F1610F01D1420205D110F0004008BF8A
:101100006FF0004070474FF00000704738B50C4654
:1011100005462146284600220023FFF74FFC28B948
:1011200028462146BDE8384000F00AB8284604F1B8
:10113000004100F005F8404261EB410138BD00BFBD
:10114000D0B500220B4B06460F46FFF7C5F9FFF757
:101150005DFC0446FFF746F90022074BFFF7BCF998
:1011600002460B4630463946FEF7FEFFFFF74EFCBF
:101170002146D0BD0000F03D0000F0412DE9F843CC
:1011800007460E469146102005F0ECF8C9F800001D
:10119000102005F0E7F80446002505E0142005F0CE
:1011A000E1F844F825000135032DF7DD102005F0A6
:1011B000D9F88046002505E0142005F0D3F848F85A
:1011C00025000135032DF7DDC6F8008000210E460D
:1011D0000D4608460A4612E054F825100B700135FA
:1011E0000021012009E0022823D005F1804C0CF1F8
:1011F000FF3C54F82CC00CF8013001310132BB5CCB
:10120000B3B30D2B34D0042D32DC042E30DC132983
:101210002EDC202B16D00028E5D12D49595C11F089
:10122000030FD9D058F826100B7001360021022088
:10123000E3E706F1804C0CF1FF3C58F82CC00CF8A9
:101240000130DAE7022803D0012809D00020D5E7D1
:1012500006F18043013B58F8233000205854CDE775
:1012600005F18043013B54F8233000205854C5E772
:10127000022803D0012809D000271EE006F1804390
:10128000013B58F8233000225A54F5E705F180431A
:10129000013B54F8233000225A54EDE754F827005C
:1012A00005F039F8D9F80080FFF7D0FB48F827009F
:1012B00054F8270005F05EF80137032FEEDD2046D5
:1012C00005F058F845EA062000B2BDE8F88300BFF3
:1012D00075910008084BD3F8C830312B0ADC064A58
:1012E00042F8230003F1320002EB80004160013339
:1012F000C2F8C830704700BFD802002030B40023C5
:1013000000E001331D46C25C2AB1CC5C1CB1A24294
:10131000F7D0002006E04A5D202A02D00AB10D2A4B
:1013200002D1D8B230BC70470020FBE730B583B0A3
:1013300005460024184BD3F8C830A34226DD2946C1
:10134000154B53F82400FFF7D9FF08B90134F1E732
:101350006A4601A92818FFF711FF32340E4B03EB40
:1013600084046368009A01999847009805F002F890
:10137000002405E0019B53F8240004F0FBFF013436
:10138000032CF7DD019804F0F5FF02E0034800F0BC
:10139000A5FB03B030BD00BFD8020020809000083C
:1013A00008B510B1012808D008BD0A46074B1988B6
:1013B000074B186804F05DFDF6E70A46054B1988EF
:1013C000054B186804F055FDEEE700BF7C040020D3
:1013D00080040020700400207404002070B586B0E2
:1013E0008DF80F0000248DF8174021462046FFF7A6
:1013F000D7FF0C4D3226009601230B4A0DF10F0149
:10140000286802F0C1FF334601220DF11701286858
:1014100003F0D6F801212046FFF7C2FF9DF8170020
:1014200006B070BD6C0400207804002070B586B052
:1014300004468DF80F1040F020038DF8173000217E
:101440000846FFF7ADFF144D322600960123134ADC
:101450000DF11701286802F097FF334601220DF1C4
:101460000F01286802F0BEFE01210020FFF798FF5F
:10147000072C0DD03F2C02D9012006B070BD2046AC
:10148000FFF7ACFF9DF80F30984203D10120F4E73D
:101490000120F2E70020F0E76C040020780400202F
:1014A00008B509B140F00800034B197801431970E1
:1014B0000020FFF7BBFF08BD48020020F0B585B053
:1014C0000C4615468DF80F0000210846FFF768FF0F
:1014D0000A4E322700970123094A0DF10F013068A7
:1014E00002F052FF3B462A462146306803F068F876
:1014F00001210020FFF754FF05B0F0BD6C0400206F
:10150000780400202DE9F04385B007460E461446C6
:10151000104604F027FF054647F020038DF80F30F2
:1015200000210846FFF73CFFDFF870804FF03209DA
:10153000CDF800900123184A0DF10F01D8F80000F2
:1015400002F022FFCDF8009023462A463146D8F813
:10155000000002F019FF01210020FFF721FF2246C1
:1015600029463846FFF7AAFF3F2F0DD800239C429B
:101570000ADDE85CF25C904201D10133F7E72846CE
:1015800004F0F8FE002003E0284604F0F3FE0120FA
:1015900005B0BDE8F08300BF780400206C04002093
:1015A000052901D00020704708B5CAB201461020B5
:1015B000FFF7A8FF08BD70B50F291FD1064600240C
:1015C00001250AE004EB840104F10A0005223144FC
:1015D000C0B2FFF797FF05400134012CF2DD002473
:1015E00008E0331904F10C00997AC0B2FFF71EFF2E
:1015F00005400134032CF4DD284670BD0025FBE7CF
:1016000070B50E462C4908602C490A6004992C4A92
:1016100011602C4A1360059A2B4B1A600025013586
:10162000EDB2052D43D8294B197841F00201002075
:10163000FFF7FCFE00F001040A2003F0BBFE0121CD
:101640000846FFF7F3FE04400F210420FFF7EEFEEB
:10165000044000210520FFF7E9FE04400A21112083
:10166000FFF7E4FE04400E210620FFF7DFFE0440F2
:10167000052E1FD80121B140C9B20139C9B20220DB
:10168000FFF7D4FE0440114B197841F0030100200C
:10169000FFF7CCFE044005210D48FFF781FF044011
:1016A0000F210C48FFF787FF002CB8D000E0002482
:1016B000204670BD0024FBE76C040020800400205D
:1016C000740400207C0400207004002048020020E4
:1016D000100000200000002010B501210846FFF78F
:1016E0005FFE01210320FFF7DBFE0E4B1B783F2B33
:1016F00000D810BD0C4C0A2221466120FFF7DEFE07
:10170000FF210720FFF792FE00210120FFF748FE8E
:101710000021E220FFF78AFE0A21204600F0E6FFC2
:10172000E7E700BF780400204C020020F8B505462A
:101730000E461746104800F0D1F929460F4800F030
:10174000CDF90024EBB2A3420ADD57F82400FEF7DE
:101750006BFE02460B460A4800F0C0F90134F1E77F
:10176000002405E056F82410064800F0B7F90134CB
:10177000B4EB252FF6DBF8BD94900008A890000884
:10178000B8900008C490000870B5431E022B07D81B
:101790001446012808D0022822D0032850D070BD5A
:1017A000374800F09BF9FAE71068FFF789FC02461A
:1017B000344E4021304601F0ADFB334DE8632068E4
:1017C000FFF77EFC02464021304601F0A3FB28646F
:1017D0002068FFF775FC01462C4800F07FF9DEE732
:1017E0001068FFF76DFC022814D06068FFF768FCF2
:1017F0000246244E4021304601F08CFB224DE86326
:101800006068FFF75DFC02464021304601F082FB34
:101810002864C4E76068FFF753FC02461C4E402171
:10182000304601F077FB4FF0804568636068FFF752
:1018300047FC02464021304601F06CFBA863AEE74E
:101840001068FFF73DFC02280FD0A068FFF738FCB6
:10185000024640210B4801F05DFB05460D4E6068D5
:10186000FFF72EFC46F8205099E7A068FFF728FC08
:1018700002464021064801F04DFB0546064EEEE7C4
:10188000DC9000087C06002000040040EC9000087A
:10189000FC060020340400403400004010B514461B
:1018A000012803D040F20113984202D1012804D04C
:1018B00010BD064800F012F9FAE72168002000F098
:1018C000DBFC2168012000F0D7FCF1E70091000863
:1018D00010B51446012803D040F2011398420AD1F2
:1018E00001280CD00B681B786C2B11D021680120CB
:1018F00000F006FD10BD094800F0F0F8FAE7216895
:10190000002000F0FDFC2168012000F0F9FCF1E767
:101910002168002000F0F4FCECE700BF0091000813
:1019200008B508490848FFF7D5FC08490848FFF7FB
:10193000D1FC08490848FFF7CDFC08490848FFF7E3
:10194000C9FC08BD2D170008309100088917000850
:10195000149100089D18000820910008D118000873
:101960002C9100082DE9F041044608461146FFF786
:10197000C1F805462169FFF7BDF82149FFF7C4F911
:1019800006462049A069FFF7BFF93146FFF7B4F8D2
:10199000064625612946E069FFF7B6F9E168FFF7D9
:1019A000ABF80746E060D4F814804146FFF768FBC7
:1019B000D0B1C4F80C80A66129462068FFF7A4F9CD
:1019C000054631466068FFF79FF901462846FFF754
:1019D00093F80546A168E068FFF796F901462846A6
:1019E000FFF78AF8BDE8F08108F100484146384623
:1019F000FFF728FB0028DED0C4F80C80DBE700BF2F
:101A0000A69BC43EA4701D3F08B50A460D4B1B782B
:101A1000012B0BD0022B0FD003B108BD4FF47A730A
:101A200001460948006803F086F9F6E70146064BCF
:101A3000186803F0F0F9F0E70146034B186803F06B
:101A40003DFAEAE7560200205C02002008B50D4B83
:101A50001B78012B02D0022B07D008BD01220A49B6
:101A60000A4B186803F0FBF9F7E7084B186802689F
:101A7000D36843F01003D3601D22054903F064FAD4
:101A8000EBE700BF15000020090500205C020020E4
:101A90008404002008B5054B1970054B1A70054BDE
:101AA0001860FFF73DFFFFF7D1FF08BD5602002089
:101AB000150000205C02002038B5074C0D25257567
:101AC0000A2565756060A160E260236116212046E9
:101AD000FFF79AFF38BD00BF180000200FB410B503
:101AE00082B004AB53F8042B0193074C65212046C8
:101AF00005F062FB81B22046FFF786FF02B0BDE829
:101B0000104004B0704700BFA4040020114B1B68B4
:101B1000834200D0704710B50F4B1B680F4A1178F5
:101B20000F4AD1545C1E125D0D2A01D10A2907D03B
:101B30000133094A13600122084903F090F910BDEE
:101B40000023074A1355074A01211170024A136006
:101B5000F5E700BF5C0200205802002009050020C4
:101B600084040020A204002010B582B004460023A3
:101B7000019303681A6801925B680193019B074B0C
:101B80001868A04201D002B010BD03F031FA2368FA
:101B90001A685B68024B01221A70F4E75C020020AD
:101BA000A204002008B50448FFF7C0FBFFF74EFF72
:101BB000024B00221A7008BD84040020A2040020F9
:101BC000002800F0B6802DE9F04385B08846154620
:101BD0001E460746B0F90000FFF742F80146FFF73E
:101BE00093F80446B7F9020000FB00F0FFF738F85D
:101BF0002146FEF781FF0446B7F9040000FB00F020
:101C0000FFF72EF82146FEF777FF06F05FFE8146CC
:101C100020F000404C49FFF715FA002840F086807C
:101C2000002417E037F91400FFF71AF84946FFF7C8
:101C30001FF906F0F7FD4549FFF766F8FEF7F4FBDC
:101C40003DA3D3E90023FEF771FDFEF7FFFE46F842
:101C500024000134022CE5DD00240BE0A70055F838
:101C6000241056F82400FEF745FF04AB1F4447F844
:101C70000C0C0134022CF1DD354CD4F800904946AF
:101C80004FF07E50FEF736FF01460198FFF73CF813
:101C9000FEF7CAFB06460F46D8F804104846FFF781
:101CA00033F8FEF7C1FB26A3D3E90023FEF714FCAB
:101CB00002460B4630463946FEF758FA06460F46AE
:101CC0002868FEF7B1FB32463B46FEF74FFAFEF7B7
:101CD000BDFE2860646821464FF07E50FEF70AFF83
:101CE00001460298FFF710F8FEF79EFB06460F46E6
:101CF000D8F800102046FFF707F8FEF795FB10A371
:101D0000D3E90023FEF7E8FB02460B46304639468E
:101D1000FEF72AFA06460F466868FEF785FB32464C
:101D20003B46FEF723FAFEF791FE686005B0BDE87A
:101D3000F0837047AFF300801F85EB51B81E094058
:101D40007B14AE47E17A743FBD37863500003443DB
:101D50003000002010B4084C206008480160084999
:101D60000A60084A1360019A074B1A60029A074BEF
:101D70001A6010BC704700BF0C0500202005002031
:101D8000100500201C050020180500201405002067
:101D900070B584B015461E468DF80F1004460A2310
:101DA000009301230DF10F0201460848006801F07D
:101DB0000DFF08B104B070BD0A23009333462A46D4
:101DC00021460248006801F0BDFFF3E70C05002042
:101DD0002DE9F04383B006460F4690461D4603F1B9
:101DE0000109484604F0BEFA04462A46414601303D
:101DF00004F0C8FA27700A2300931FFA89F32246D9
:101E000031460648006801F0E1FE0546204604F030
:101E1000B1FA284603B0BDE8F08300BF0C050020EE
:101E200070B584B0234B1B680093112301930123E9
:101E300002930323039369461F4B186803F002FFC4
:101E40001E4B1B68009369461D4B186803F0FAFE91
:101E50000024082C15DC194B1988194B186804F05C
:101E600001F801280DD0134E134D01223188286846
:101E700003F0FFFF00223188286803F0FAFF0134E5
:101E8000E7E701220D4B19880D4B186803F0F1FFAD
:101E90000122084B1988084B186803F0EAFF094B28
:101EA0001B68002283F83D20074B1B68984704B04D
:101EB00070BD00BF1005002020050020180500207F
:101EC0001C0500200C0500201405002030B583B04F
:101ED00004468DF80720056801230DF10702007DF7
:101EE000A847E37D984209D0238B01339BB223831B
:101EF000142B03D9A36898470023238303B030BD74
:101F000030B583B0044600238DF8073045680123BF
:101F10000DF10702007DA847E37D984209D0238B8D
:101F200001339BB22383142B03D9A3689847002362
:101F300023839DF8070003B030BDF0B583B004469D
:101F40000E461546476806236A463B21007DB84782
:101F5000E37D984209D0238B01339BB22383142B5A
:101F600003D9A3689847002323839DF800209DF898
:101F7000013043EA022333809DF802209DF80330AC
:101F800043EA022373809DF804209DF8053043EA5C
:101F90000223B380666806236A464321207DB0474A
:101FA000E37D984209D0238B01339BB22383142B0A
:101FB00003D9A3689847002323839DF800209DF848
:101FC000013043EA02232B809DF802209DF8033064
:101FD00043EA02236B809DF804209DF8053043EA14
:101FE0000223AB8003B0F0BD2DE9F04107460E4659
:101FF0001546002410E0FB69D3F8048036F914007C
:10200000FEF72EFE4146FEF77FFE4FF06051FEF7D1
:102010007BFE45F824000134022CECDDBDE8F081A4
:1020200010B50446D0230375574B4360574B0360EC
:10203000574BC3600022C275564A82600361564BFB
:10204000C361182242755A7001229A7008221A70D0
:1020500028E0524B5360E2695378182B19D8DFE817
:1020600003F01618181818181818891818181818BE
:1020700018188C181818181818188F00484B536027
:10208000E9E7484B5360E6E7474B5360E3E7022339
:10209000138175212046FFF733FFA075112872D0F8
:1020A000A3689847E3683220984701226B212046B5
:1020B000FFF70CFF002219212046FFF707FF02223D
:1020C0001A212046FFF702FFE3691A781B212046F8
:1020D000FFF7FCFEE3695A781C212046FFF7F6FE65
:1020E000E3699A781D212046FFF7F0FEE3692F4A45
:1020F000DA60022237212046FFF7E8FEE36832204B
:102100009847E2691378182BA5D801A151F823F05C
:1021100053200008572000085720000857200008C7
:1021200057200008572000085720000857200008B3
:102130007D2000085720000857200008572000087D
:102140005720000857200008572000085720000893
:102150008320000857200008572000085720000857
:102160005720000857200008572000085720000873
:1021700089200008042313818BE70823138188E753
:102180001023138185E710BD911D0008D11D0008A3
:10219000B5530008211E00084405002000007A43C2
:1021A0000000FA4300007A440000FA44E17A444215
:1021B00070B506460C46134D284601F011F90A2168
:1021C000284600F079FF284601F02CF80546301922
:1021D000FEF746FD06462046FEF742FD0146304624
:1021E000FEF746FE0446A8B2FEF73AFD2146FEF78A
:1021F0008BFD4FF06651FEF787FD0349FEF784FD26
:1022000070BD00BF5C05002000404E450C4B1A68B5
:10221000A2F2E731C2F5FA63994201DCA2F57A73C2
:10222000084A1168A1F2E730C1F5FA62904201DC78
:10223000A1F57A729342A8BF1346034A1360704710
:102240003C000020400000209002002038B5084DDE
:102250004FF47A724021284600F05CFE054C206461
:102260004FF47A724021284600F054FEE06338BDF6
:102270007C0600200004004038B505460C461A498B
:102280002046FEF7FDFE30B918492046FEF7DAFE7B
:1022900010B1164C00E0144C13492046FEF7E8FD3F
:1022A0000446134B1868FEF7DBFC2146FEF72CFDB5
:1022B000FEF706FF15B1012D0BD038BD0D4B1A6886
:1022C000024440210C4800F025FE4FF08043986303
:1022D000F3E70A4B1A68121A4021074800F01AFE69
:1022E0004FF080435863E8E700003442000034C2F6
:1022F000900200203C000020FC060020400000204E
:1023000038B505460C4616492046FEF7B9FE00B121
:10231000134C15B1012D11D038BD12492046FEF7DE
:10232000F3FC1149FEF7E8FBFEF7CAFE0246402126
:102330000E4800F0EFFD0E4B1864EDE7094920460A
:10234000FEF7E2FC0849FEF7D7FBFEF7B9FE0246AE
:102350004021064800F0DEFD054BD863DCE700BFF6
:102360000000C8420000204100007A447C060020A2
:102370000004004008B50249FEF7C6FC08BD00BFD6
:102380000000204208B50349FEF772FD0249FEF73E
:10239000BBFC08BDC3F548400000B4432DE9F04F35
:1023A00083B00546894616461F460C9C0146FEF73B
:1023B000ABFC6249FEF7A8FC6049FEF7A5FC60494A
:1023C000FEF7A2FC5E49FEF79FFC80464946484660
:1023D000FEF79AFC5A49FEF797FC5949FEF794FC20
:1023E00001464046FEF788FB804631463046FEF700
:1023F0008BFC5249FEF788FC5049FEF785FC0146EC
:102400004046FEF779FB804639463846FEF77CFCAD
:102410004B49FEF779FC4A49FEF776FC01464046F7
:10242000FEF76AFB824629462846FEF765FB4946C9
:10243000FEF76AFC4149FEF767FC4149FEF764FC80
:102440003F49FEF761FC804631463046FEF754FBBB
:102450003946FEF759FC3949FEF756FC3849FEF774
:1024600053FC01464046FEF747FB83460146504673
:10247000FEF740FB06F02AFA804659465046FEF722
:102480003BFB06F023FA82462E49FEF7F1FC009052
:102490002C494046FEF7ECFC834629494846FEF7A6
:1024A00033FC81465146FEF725FB0190234928461F
:1024B000FEF72AFC2249FEF727FC05461F49304655
:1024C000FEF722FC06461E493846FEF71DFC07466D
:1024D00001463046FEF710FB1B49FEF70DFB824616
:1024E00029460198FEF708FB514606F0EDF94FF03A
:1024F0004041FEF709FC824641464846FEF7FCFA99
:10250000804639463046FEF7F5FA0F49FEF7F4FAF1
:10251000064629464046FEF7EDFA314606F0D4F964
:102520000146FEF7E9FA009B2360C4F804B0C4F842
:1025300008A0E06003B0BDE8F08F00BFCDCCCC3D7B
:102540000AD7233D6F12033C5F708930F0B587B026
:1025500000230293039304930593524B1B780BB90A
:1025600007B0F0BD504F514D514C3A4629462046D8
:10257000FFF7E3FC4F4E324639462046FFF734FD65
:102580004D4C4E4B224631462846FFF719FB6268F8
:102590004B4B1A6022684B4B1A604B4B19684B48E7
:1025A000FFF7E0F90146002202AB009313464FF01B
:1025B0007E50FFF7F3FE464B1B78012B19D0022B00
:1025C0002AD0032B45D0434A1368013313600A2BEA
:1025D00051DC4149414B1868FEF74AFC0246364C33
:1025E000002361682068FFF767FA2E4B00221A70FB
:1025F000B6E7002421460020FFF73EFE21460120D9
:10260000FFF73AFE364C21460020FFF779FE2146BF
:102610000120FFF775FED6E70298FFF7ABFE0146F3
:102620000020FFF76DFE0398FFF7A4FE014601208E
:10263000FFF766FE0498FFF7A5FE01460020FFF7AE
:102640001BFE0598FFF79EFE01460120FFF714FED2
:10265000B9E7002421460020FFF70EFE21460120A5
:10266000FFF70AFE21460020FFF74AFE214601201F
:10267000FFF746FEA7E740F6980141F2EC30FFF77E
:1026800097FD164B18601749FEF7DCFC18B9114B83
:1026900000221A609DE701220821134803F0E9FB9C
:1026A000F5E700BF68020020C0020020940200206D
:1026B00024050020B4020020A80200209C02002073
:1026C000580500205405002044000020700200201E
:1026D00060020020C80200200000C84264020020FE
:1026E000000048420040E745000C01400A2900D0A4
:1026F00070470389C3F30D03012B05D0082BF7D1D5
:10270000034B03221A70F3E7014B01221A70704742
:1027100060020020074B1B68052B04D0054A136894
:10272000013313607047044B01221A70014B0022E1
:102730001A60F3E76C0200206802002030B595B003
:1027400000240B940C940D94109405940694079413
:1027500008940994019402940394049402250A9520
:1027600001230E9310230F93119512944FF46013CD
:1027700013930AA802F048FE0F23059306950794C9
:102780004FF4806308930994294605A803F07AF86A
:1027900001954FF40043039301A803F04FF915B0DE
:1027A00030BD000000B587B002F0E0FDFFF7C6FFC6
:1027B00000F088F800F036F900F0D8F800F054F98D
:1027C00000F0ACF900F0BAFA00F010FB00F058FB92
:1027D00000F0A8FB2E492F4B01934FF40073009398
:1027E0000B464FF480722C48FFF7B4FA2B48FFF7E2
:1027F00017FCFFF70BFDFFF729FD294C00212046B0
:1028000002F01CF90421204602F018F9254C082199
:10281000204602F013F90C21204602F00FF9224A5B
:102820004FF40043019300924FF4807301211F483D
:10283000FEF7E6FE1E4B02AC0FCB07C424F8023BAA
:102840001B0C23700F2102A8FEF7B5FE41F2883061
:1028500002F0B0FD022200211648FFF71BF9002408
:1028600021460020FFF708FD21460120FFF704FD67
:102870001148FFF733F903E0FEF72EFFFFF766FE7E
:102880000E4B1B78002BF7D0FFF78CF9F4E700BF55
:10289000000C0140692A00088C0500202405002056
:1028A000FC0600207C06002000080140E005002016
:1028B000709000088007002038910008A2040020D2
:1028C000704700002DE9F04186B000240294039483
:1028D00004940594214B9A6942F004029A619A6922
:1028E00002F004020092009A9A6942F008029A618A
:1028F0009B6903F008030193019BDFF86C8022467B
:102900004FF40141404603F0B4FA154D2246082128
:10291000284603F0AEFA4FF480530293114B039311
:10292000049402A9284603F08DF94FF40143029361
:102930000127039704940226059602A9404603F056
:1029400081F9082302930397049405960DEB030184
:10295000284603F077F906B0BDE8F0810010024088
:10296000000C0140000011100008014000B585B0C6
:1029700000230193029303931048114A026083607D
:10298000037303754FF46022C26143600123036146
:1029900000F0C0FD60B9032301930122029203936A
:1029A00001A9064800F042FC28B905B05DF804FB17
:1029B000FFF786FFEFE7FFF783FFF6E75C050020F0
:1029C0000024014000B587B00023029303930493D1
:1029D00005930268114B9A4202D007B05DF804FBE0
:1029E00003F56C439A6942F400729A619A6902F4A1
:1029F00000720092009A9A6942F004029A619B69FF
:102A000003F004030193019B082302930323039320
:102A100002A9034803F016F9DFE700BF00240140D4
:102A20000008014000B583B00E4B5A6942F0010224
:102A30005A615B6903F001030193019B0022114677
:102A40000E2003F0C5FB0E2003F0F6FB002211461A
:102A50000F2003F0BDFB0F2003F0EEFB03B05DF889
:102A600004FB00BF0010024008B50B480B4B03608D
:102A70000B4B436000238360C3604FF480420261CC
:102A800043618361C361036200F0CCFF00B908BDFC
:102A9000FFF716FFFBE700BF8C0500200054004045
:102AA000A086010010B586B000230293039304931F
:102AB00005930268154B9A4201D006B010BD144C24
:102AC000A36943F00803A361A36903F0080300931B
:102AD000009B4FF440730293122303930323059347
:102AE00002A90C4803F0AEF80B4A536843F0E063C8
:102AF00043F002035360E36943F40013E361E369C5
:102B000003F400130193019BD7E700BF005400407A
:102B100000100240000C01400000014008B50D48C3
:102B20000D4B03604FF48273436000238360C360E6
:102B3000036143614FF400728261C36103624362C7
:102B400083620A23C36201F00FFB00B908BDFFF7DF
:102B5000B7FEFBE7E00500200038004010B586B066
:102B6000002302930393049305930268174B9A4240
:102B700001D006B010BD03F5EC33DA6942F48042AF
:102B8000DA61DA6902F480420092009A9A6942F0AE
:102B900008029A619B6903F008030193019B4FF4BB
:102BA000204302930223039303230593084C02A9B5
:102BB000204603F047F84FF4804302930023039329
:102BC000049302A9204603F03DF8D2E70038004004
:102BD000000C014010B584B00368254A934207D029
:102BE000B3F1804F2CD0234A934235D004B010BDAE
:102BF0000446214B9A6942F400629A619B6903F48E
:102C000000630193019B1D481D4B0360102343602B
:102C1000002383608022C2604FF4807202614FF40F
:102C2000806242618361C36103F040F928B9134BAC
:102C300023635C62A3636363D8E7FFF741FEF6E7B3
:102C400003F50433DA6942F00102DA61DB6903F06B
:102C500001030293029BC9E7074BDA6942F00202C3
:102C6000DA61DB6903F002030393039BBEE700BF55
:102C7000002C0140000400400010024038060020F3
:102C80004400024000B589B00023049305930693E5
:102C900007930368244A934208D0B3F1804F1AD0B7
:102CA000224A93422CD009B05DF804FB204B9A696C
:102CB00042F004029A619B6903F004030193019BB3
:102CC0004FF40063049302230593079304A9194862
:102CD00002F0B8FFE7E703F504339A6942F0040213
:102CE0009A619B6903F004030293029B03230493FC
:102CF00002230593079304A90E4802F0A3FFD2E72D
:102D00000B4B9A6942F008029A619B6903F0080331
:102D10000393039B0323049302230593079304A9BE
:102D2000054802F08FFFBEE7002C01400004004080
:102D30000010024000080140000C014010B592B0A4
:102D400000241094119409940A940B940C940D94FB
:102D50000E940F942022214601A803F021FB214864
:102D6000214B036044608460C460046144618461F9
:102D700001F098FD002829D100231093119310A988
:102D8000184801F079FE20BB6023099300230A93C1
:102D90000B930D930E930F930C2209A9114801F088
:102DA000CDFDC8B9002301930293039304930593C7
:102DB0004FF400520692089301A90A4801F07FFEE1
:102DC00068B90848FFF75EFF12B010BDFFF778FD45
:102DD000D2E7FFF775FDD7E7FFF772FDE2E7FFF7F0
:102DE0006FFDEEE7BC060020002C014000B58BB063
:102DF000002308930993019302930393049305938B
:102E0000069307931D484FF08042026009224260FA
:102E1000836043F67F62C2600361836101F042FD1B
:102E2000F8B900230893099308A9144801F024FE77
:102E3000D0B960230193002202920392059201A966
:102E40000E4801F07BFD90B904220DEB02010B4806
:102E500001F074FD70B90948FFF714FF0BB05DF87D
:102E600004FBFFF72DFDDCE7FFF72AFDE1E7FFF7A5
:102E700027FDE9E7FFF724FDEDE700BFFC06002092
:102E800000B58BB000230893099301930293039339
:102E900004930593069307931C481D4A0260092278
:102EA0004260836043F67F62C2600361836101F028
:102EB000F9FCF8B900230893099308A9134801F015
:102EC000DBFDD0B9602301930023029303930593A4
:102ED000082201A90D4801F031FD88B90C2201A991
:102EE0000A4801F02BFD70B90848FFF7CBFE0BB084
:102EF0005DF804FBFFF7E4FCDCE7FFF7E1FCE1E74A
:102F0000FFF7DEFCEAE7FFF7DBFCEDE77C060020DD
:102F10000004004003790133DBB202FB01F292FBB3
:102F2000F3F0704708B50A480A4B03604FF4E133E9
:102F3000436000238360C36003610C2242618361AC
:102F4000C36101F0C9FE00B908BDFFF7B9FCFBE79A
:102F5000800700200038014070B586B0002302933E
:102F60000393049305930268264B9A4201D006B05E
:102F700070BD044603F558439A6942F480429A6151
:102F80009A6902F480420092009A9A6942F004021F
:102F90009A619B6903F004030193019B4FF4007352
:102FA00002930223039303230593174E02A930468D
:102FB00002F048FE4FF480630293002503950495C8
:102FC00002A9304602F03EFE1048114B03604560F6
:102FD00085608023C360056145618561C56102F03C
:102FE00065FF58B9094B63635C62002211462520D6
:102FF00003F0EEF8252003F01FF9B8E7FFF760FCB7
:10300000F0E700BF00380140000801403C07002005
:10301000580002407047FEE7FEE7FEE7FEE7704714
:103020007047704708B502F0B3F9FFF773FB08BDAE
:1030300008B5024803F018F808BD00BF38060020A4
:1030400008B5024803F010F808BD00BF3C07002097
:1030500010B5074C204602F0CBF823681B6813F02C
:10306000100F00D110BD2046FEF77EFDFAE700BF2D
:103070008007002082B00E4B9A6942F001029A61EB
:103080009A6902F001020092009ADA6942F08052D5
:10309000DA61DB6903F080530193019B054A5368B1
:1030A00023F0E06343F00073536002B0704700BF49
:1030B0000010024000000140F0B583B005460C4608
:1030C0000023019302F070F92B689A6812F4807F54
:1030D00023D107465A6812F4807F03D1DB6A13F4C8
:1030E000700F24D04A4B1E68022002F031FDB6FB5F
:1030F000F0F02B681969474A11422FD1D96802F1C3
:103100005C4211422AD11969434A114239D1DA6825
:10311000424B1A4237D029263AE0AB6A43F02003EB
:10312000AB62002385F82430012003B0F0BD2B688A
:103130001B6813F0020F48D1B4F1FF3FF7D024B160
:1031400002F032F9C01BA042F1D9AB6A43F004038C
:10315000AB62002385F824300320E6E719692E4A84
:10316000114204D1D96802F16E4211420DD01969A1
:103170002B4A0A405AB9DA68294B13405BB1FC2646
:1031800006E0292604E0142602E0542600E0FC268E
:1031900006FB00F604E05426FAE7019B0133019395
:1031A000019BB34211D2B4F1FF3FF6D024B102F03B
:1031B000FBF8C31BA342F0D9AB6A43F00403AB6234
:1031C000002385F824300320AFE72B686FF012024C
:1031D0001A60AB6A43F40073AB622B689B6803F41C
:1031E0006023B3F5602F01D000209EE7287B60B9F3
:1031F000AB6A23F48073AB62AB6A13F4805F94D143
:10320000AB6A43F00103AB628FE700208DE700BF9C
:10321000500000202449922492244912922449000B
:10322000499224000368D86C7047000030B482B023
:103230000022019290F82420012A00F08B8003469E
:10324000012280F824204A68062A29D80568686B7C
:1032500002EB8202053A1F24944020EA04000C6825
:1032600004FA02F202436A630A68092A38D91D681F
:10327000E86802EB42021E3A0724944020EA040068
:103280008C6804FA02F20243EA600A68103A012AE2
:1032900034D90020002283F8242002B030BC7047CB
:1032A0000C2A0ED80568286B02EB8202233A1F24F1
:1032B000944020EA04000C6804FA02F202432A63F4
:1032C000D2E70568E86A02EB8202413A1F24944083
:1032D00020EA04000C6804FA02F20243EA62C3E73F
:1032E0001D68286902EB42020724944020EA04008A
:1032F0008C6804FA02F202432A61C6E71A6816488B
:10330000824205D09A6A42F020029A620120C1E707
:10331000906810F4000F1BD1906840F4000090609A
:103320000A68102A01D00020B4E70C4A12680C4940
:10333000A1FB0212920C02EB82025200019202E007
:10334000019A013A0192019A002AF9D10020A1E7DD
:1033500000209FE70220A0E7002401405000002049
:1033600083DE1B4330B583B00023019303689A6862
:1033700012F0010F2DD104469A6842F001029A60C2
:10338000154B1B68154AA2FB03239B0C0193019B61
:103390001BB1019B013B0193F9E702F005F80546DB
:1033A00023689B6813F0010F11D101F0FDFF431B4F
:1033B000022BF5D9A36A43F01003A362E36A43F03A
:1033C0000103E362002384F82430012002E000209E
:1033D00000E0002003B030BD5000002083DE1B431E
:1033E00090F82430012B68D010B50446012380F8F2
:1033F0002430FFF7B7FF00285BD1A36A23F44073A2
:1034000023F0010343F48073A36223682C4A9342A0
:1034100027D0A26A22F48012A2625A6812F4806F46
:1034200005D0A26A22F4405242F48052A262A26AFB
:1034300012F4805F2BD0E26A22F00602E2620022E0
:1034400084F824206FF002021A6023689A6802F45C
:103450006022B2F5602F1DD09A6842F480129A6003
:103460002AE0A2F58062526812F4702FD1D0A26ACD
:1034700042F48012A262134A526812F4806FD6D0CE
:10348000A26A22F4405242F48052A262CFE70022A4
:10349000E262D4E70A4A934204D09A6842F4A00256
:1034A0009A6009E0A2F58062526812F4702FD3D1BD
:1034B000F3E7002384F8243010BD0220704700BFDA
:1034C000002801400024014038B503689A6812F0D2
:1034D000010F01D1002038BD04469A6822F0010294
:1034E0009A6001F061FF054623689B6813F0010FA5
:1034F0000ED001F059FF431B022BF5D9A36A43F00C
:103500001003A362E36A43F00103E3620120E2E7F0
:103510000020E0E700287BD070B50446836A002BCA
:103520004DD02046FFF7D0FFA36A13F0100369D1F6
:10353000002867D1A26A22F4885222F0020242F0E7
:103540000202A2626268E1690A43217B42EA410207
:10355000A568B5F5807F02D0012D36D01D46267DA9
:10356000012E35D02668716821F4694129437160C4
:103570002568AE68274931401143A960A168B1F5BB
:10358000807F01D0012902D12369013B1B052568F9
:10359000E96A21F470010B43EB62236899681E4BC2
:1035A0000B409A4225D0A36A23F0120343F0100384
:1035B000A362E36A43F00103E362012027E0C362F0
:1035C00080F82430FFF7FEF9ABE74FF48075C6E7CB
:1035D00031B9A169013945EA413141F40065C1E7DA
:1035E000A16A41F02001A162E16A41F00101E162BA
:1035F000B8E70023E362A36A23F0030343F0010367
:10360000A36204E0A36A43F01003A362012070BD2B
:1036100001207047FDF7E1FFFE0E1FFF03685A69A6
:1036200012F4806F01D1002070476FF480625A61FC
:1036300000230363202280F83D2080F83E30026C96
:1036400042F00402026480F83C30012070472DE90A
:10365000F04107460D4690461E4622E001F0A4FECA
:10366000069BC01AB04200D8DEB900233B6320227B
:1036700087F83D2087F83E303A6C42F020023A64E9
:1036800087F83C3001201AE03B689C6925EA040475
:10369000A4B2B4FA84F46409A0450FD1B6F1FF3F97
:1036A000DCD1C5F30743012BEED13B685C6925EA09
:1036B0000404A4B2B4FA84F46409EDE70020BDE880
:1036C000F0812DE9F04105460E46174698463DE04B
:1036D0001A6842F400721A602B686FF480625A61B3
:1036E00000232B63202285F83D2085F83E302A6C8C
:1036F00042F004022A6485F83C30012034E001F0F5
:1037000053FEA0EB0800B84200D8FFB900232B639A
:10371000202285F83D2085F83E302A6C42F02002B8
:103720002A6485F83C3001201EE02B689C6926EA5B
:103730000404A4B2003C18BF0124A4B12B685A6948
:1037400012F4806FC4D1B7F1FF3FD8D1C6F307435D
:10375000012BEAD12B685C6926EA0404A4B2003C80
:1037600018BF0124E9E70020BDE8F081F0B583B07F
:1037700004460D4616461F46C36A082B0DD0012B82
:103780000BD013F5803F08D0036B122B0AD10268CF
:10379000136843F48073136004E02268136843F4F1
:1037A000807313600097334600224FF001112046CA
:1037B000FFF74DFF10BB2369B3F5804F0CD1236891
:1037C00005F0FE051D613B4632460F492046FFF7D6
:1037D00078FFB8B903B0F0BDEB11226803F006031F
:1037E00043F0F00313613B46324608492046FFF799
:1037F00068FF28B92368EDB21D61E4E70120E9E71D
:103800000120E7E70120E5E70200010008000100D0
:103810002DE9F04184B004460D4616461F46C26AA3
:1038200001680B6843F480630B60082A0DD0012AFD
:103830000BD012F5803F08D0036B112B0AD1026820
:10384000136843F48073136004E02268136843F440
:10385000807313600097334600224FF00111204619
:10386000FFF7F5FE002848D12369B3F5804F0ED14C
:10387000236845F00105EDB21D613B463246224901
:103880002046FFF71EFF002838D0012036E04FEA1F
:10389000E51808F00608236848F0F0021A613B4674
:1038A00032461A492046FFF70CFF08B1012025E0F7
:1038B0002368EDB21D613B46324613492046FFF7AF
:1038C00000FF08B1012019E0002203922368596922
:1038D0000391996903910399196841F48071196002
:1038E000009733464FF001112046FFF7B0FE40B974
:1038F000226848F0F1031361BFE7012004B0BDE87E
:10390000F0810120FAE700BF020001000800010079
:1039100070B504460D46164623685B6913F0800FA8
:103920001CD12046FFF77AFED0B9B5F1FF3FF3D0A6
:1039300001F03AFD801BA84201D8002DECD10023F4
:103940002363202284F83D2084F83E30226C42F02C
:103950002002226484F83C30012000E0002070BD89
:103960000120FCE770B504460D46164623685B69E6
:1039700013F0040F1CD12046FFF750FED0B9B5F16B
:10398000FF3FF3D001F010FD801BA84201D8002DAD
:10399000ECD100232363202284F83D2084F83E30BC
:1039A000226C42F02002226484F83C30012000E0C6
:1039B000002070BD0120FCE770B505460C46164698
:1039C0002B68596911F0400F29D1596911F0100F76
:1039D00015D101F0E9FC801BA04201D8002CEFD1E9
:1039E00000232B63202285F83D2085F83E302A6C89
:1039F00042F020022A6485F83C30012070BD6FF04F
:103A000010025A6100232B63202285F83D2085F89F
:103A10003E302A6C2A6485F83C300120EEE7002015
:103A2000ECE70000002800F0C280F8B5044690F8EA
:103A30003D30002B6DD0242384F83D30226813687C
:103A400023F00103136001F0D9FF62685A4B9A42D8
:103A500064D85A4B98428CBF00230123002B40F0BE
:103A6000A880574DA5FB0035AF0C2668716821F082
:103A70003F0141EA9541716021680B6A23F03F03E1
:103A800065684D4A95424FD87A1C13430B622568EE
:103A9000E96921F44F4121F0FF016368464A9342EE
:103AA0004CD801385B00B0FBF3F0013040F6FC73FA
:103AB000184278D0C0F30B030B43EB6121680B680D
:103AC00023F0C003E269206A024313430B602168BC
:103AD0008B6823F4034323F0FF032269E068024369
:103AE00013438B602168CB6823F0FF036269A069F0
:103AF00002431343CB602268136843F00103136051
:103B000000202064202384F83D30206384F83E00A8
:103B1000F8BD80F83C30FEF7C5FF8CE7294B984292
:103B20008CBF0023012399E74FF4967202FB07F242
:103B3000254DA5FB025292090132A6E7A268BAB947
:103B4000461E03EB4307B6FBF7F60136C6F30B063A
:103B5000B6FA86F6760946BBC2B9421E03EB4303AA
:103B6000B2FBF3F20132C2F30B0242F40043A3E7CB
:103B7000461E03EB830707EB8707B6FBF7F6013614
:103B8000C6F30B06B6FA86F67609E4E7421E03EBA7
:103B9000830303EB8303B2FBF3F20132C2F30B02A4
:103BA00042F4404388E7042386E7012384E70120A9
:103BB00070470120ACE700BFA08601007F841E0093
:103BC00083DE1B43FF083D00D34D62102DE9F04317
:103BD00085B004460F46914698460C9E01F0E4FBE2
:103BE000054694F83D00C0B2202804D0022738468C
:103BF00005B0BDE8F0830095192301224F49204606
:103C0000FFF725FD002840F0928094F83C30012B0E
:103C100000F08F80012384F83C3023681A6812F08A
:103C2000010F03D11A6842F001021A60226813687A
:103C300023F400631360212384F83D30102384F8BB
:103C40003E3000232364C4F82490A4F82A80638DB6
:103C500023853B4BE3622B46324639462046FFF72D
:103C600085FD0746002866D10023039323685A691F
:103C700003929B690393039B11E0236C042B01D0F7
:103C80000127B4E72268136843F400731360F7E771
:103C90002A4631462046FFF765FE00282ED1238DA7
:103CA000002B36D02A4631462046FFF731FE002849
:103CB000E3D1626A236812781A61616A4B1C6362FD
:103CC000638D9BB2013B9BB26385238D013B9BB20D
:103CD00023852268506910F0040FD9D0002BD7D06B
:103CE0004B781361636A01336362638D9BB2013B5E
:103CF0009BB26385238D013B2385C9E7236C042B8D
:103D000001D0012773E72268136843F4007313603E
:103D1000F7E72268136843F400731360202384F8E4
:103D20003D30002384F83E3084F83C305FE70227C2
:103D30005DE702275BE7012759E700BF020010009B
:103D40000000FFFF2DE9F04387B004460F4691467F
:103D500098460E9E01F028FB054694F83D00C0B23F
:103D6000202804D00227384607B0BDE8F08300952C
:103D7000192301228E492046FFF769FC002840F0F4
:103D80004F8194F83C30012B00F04C81012384F8E2
:103D90003C3023681A6812F0010F03D11A6842F010
:103DA00001021A602268136823F40063136022235F
:103DB00084F83D30102384F83E3000232364C4F897
:103DC0002490A4F82A80638D23857A4BE3622B46E6
:103DD000324639462046FFF71BFD0746002840F0D3
:103DE0002381238D5BB9029323685A6902929A69F1
:103DF0000292029A1A6842F400721A60A5E0012B3E
:103E00000FD0022B21D02268136843F48063136023
:103E10000023059323685A6905929B690593059BC6
:103E200093E02268136823F48063136072B6002362
:103E3000039323685A6903929A690392039A1A6852
:103E400042F400721A6062B67FE02268136843F49D
:103E50000063136072B60023049323685A690492C6
:103E60009A690492049A1A6822F480621A6062B60F
:103E70006BE02A4631462046FFF79EFD002840F0C1
:103E8000D58023681A69636A1A70636A01336362B2
:103E9000238D013B2385638D9BB2013B9BB26385E0
:103EA00053E000953346002243492046FFF7CFFBFD
:103EB000002840F0BD8072B62268136843F4007396
:103EC000136023681A69636A1A70636A0133636254
:103ED000238D013B2385638D9BB2013B9BB26385A0
:103EE00062B623681A69636A1A70636A013363628F
:103EF000238D013B2385638D9BB2013B9BB2638580
:103F000023E02268136843F40073136023681A697E
:103F1000636A1A70636A01336362238D013B2385F0
:103F2000638D9BB2013B9BB2638562B623681A69BD
:103F3000636A1A70636A01336362238D013B2385D0
:103F4000638D9BB2013B9BB26385238D002B5ED0BA
:103F5000032B33D8012B8CD0022BA2D000953346F3
:103F6000002215492046FFF772FB002862D1226823
:103F7000136823F48063136072B623681A69636A56
:103F80001A70636A01336362238D013B2385638D5D
:103F90009BB2013B9BB263850095334600220649E4
:103FA0002046FFF754FB0028ABD00127DBE600BF1B
:103FB000020010000000FFFF040001002A46314605
:103FC0002046FFF7F9FC002836D123681A69636A96
:103FD0001A70626A531C6362238D013B2385638DD3
:103FE0009BB2013B9BB263852368596911F0040FB2
:103FF000ABD01B695370636A01336362238D013B4D
:104000002385638D9BB2013B9BB263859DE7202393
:1040100084F83D30002384F83E3084F83C30A2E63A
:104020000227A0E602279EE601279CE601279AE6E2
:10403000012798E6012796E6012794E62DE9F0414D
:104040000646884617461D463468A46838EA0403C5
:104050000CBF01240024BC4237D0B5F1FF3FF3D0A0
:1040600001F0A2F9069BC01AA84201D2002DEBD1A3
:104070003268536823F0E00353607368B3F5827FBE
:104080000BD0B36AB3F5005F14D0012386F851302A
:10409000002386F85030032018E0B368B3F5004FD2
:1040A00002D0B3F5806FECD13268136823F040037F
:1040B0001360E6E73268136823F400531360326834
:1040C000136843F400531360DFE70020BDE8F0817C
:1040D00010B582B004460B46009200228021FFF703
:1040E000ADFF08B902B010BD636D43F020036365F6
:1040F0000320F7E710B582B004460B464168B1F5DE
:10410000827F10D06168B1F5827F03D1A168B1F5DB
:10411000806F15D00092002280212046FFF78EFF8D
:10412000E0B902B010BD8168B1F5004F02D0B1F521
:10413000806FE7D12068016821F040010160E1E76C
:104140000092002201212046FFF778FF0028E8D0E6
:10415000636D43F0200363650320E2E7636D43F082
:10416000200363650320DCE7002839D010B504463E
:104170000023836290F85130002B2CD0022384F866
:1041800051302268136823F0400313606368A2680B
:104190001343E26813432269134362691343A2691C
:1041A00002F400721343E2691343226A1343A16AC3
:1041B00022680B431360638B226803F0040353608F
:1041C0002268D36923F40063D36100206065012372
:1041D00084F8513010BD80F85030FEF7BFFCCDE7B9
:1041E000012070472DE9F04383B01D4690F8503010
:1041F000012B00F0C780044688469146012380F8D1
:10420000503001F0D1F8074694F85160F6B2012E13
:1042100040F0A580B8F1000F00F0A280B9F1000FC6
:1042200000F09E80032384F8513000236365C4F8B6
:104230003080A4F83490A4F83690A363A387E38772
:1042400063642364A368B3F5004F1ED023681A6823
:1042500012F0400F03D11A6842F040021A60E3687E
:10426000B3F5006F17D0636813B1B9F1010F4DD1E9
:10427000226B236812781A73236B01332363E38E56
:104280009BB2013B9BB2E38640E02268136843F493
:1042900080431360DAE7636813B1B9F1010F16D1F7
:1042A000226B23681288DA60236B02332363E38E68
:1042B0009BB2013B9BB2E38609E001F075F8C01B9D
:1042C000A84202D3B5F1FF3F54D1002D54D0E38E64
:1042D0009BB2002B2ED023689A6812F0020FECD00C
:1042E000226B1288DA60236B02332363E38E9BB266
:1042F000013B9BB2E386EAE701F056F8C01BA842F7
:1043000002D3B5F1FF3F39D1002D39D0E38E9BB2F6
:1043100083B123689A6812F0020FEDD0226B1278F5
:104320001A73236B01332363E28E92B2013A92B285
:10433000E286EBE73A4629462046FFF7C9FE08B178
:1043400020236365A36833B901932368DA68019277
:104350009B680193019B636D13B9002600E0022660
:10436000012384F85130002384F85030304603B0E4
:10437000BDE8F0830326F3E70326F1E70326EFE722
:104380000326EDE70226F1E72DE9F04383B01F464F
:104390000A9D90F85030012B00F0108104468846A9
:1043A0009146012380F8503000F0FEFF064694F855
:1043B0005130DBB26268012B0AD0B2F5827F40F047
:1043C000E380A268002A40F0E980042B40F0E880F6
:1043D000B8F1000F00F0E680B9F1000F00F0E480C2
:1043E000002F00F0E38094F85130DBB2042B02D0B0
:1043F000052384F8513000236365C4F83890E787BB
:10440000A787C4F83080E786A7862364636423689F
:104410001A6812F0400F03D11A6842F040021A6085
:10442000E368B3F5006F11D063680BB1012F0BD1B6
:10443000226B236812781A73236B01332363E38E94
:104440009BB2013B9BB2E38601276BE063680BB133
:10445000012F0BD1226B23681288DA60236B0233A1
:104460002363E38E9BB2013B9BB2E38601271CE0F2
:1044700023689A6812F0010F0ED0E28F92B25AB1FF
:10448000DA68A36B1A80A36B0233A363E38F9BB23A
:10449000013B9BB2E387012700F086FF801BA84207
:1044A00003D3B5F1FF3F40F08380E38E9BB21BB98D
:1044B000E38F9BB2002B53D023689A6812F0020F4F
:1044C000D6D0E28E92B2002AD2D0002FD0D0226B6A
:1044D0001288DA60236B02332363E38E9BB2013BC5
:1044E0009BB2E3860027C3E723689A6812F0010FA6
:1044F0000ED0E28F92B25AB1DA68A36B1A70A36B36
:104500000133A363E38F9BB2013B9BB2E387012797
:1045100000F04AFF831BAB4202D3B5F1FF3F49D104
:10452000002D49D0E38E9BB213B9E38F9BB2BBB190
:1045300023689A6812F0020FD6D0E28E92B2002A57
:10454000D2D0002FD0D0226B12781A73236B013394
:104550002363E38E9BB2013B9BB2E3860027C3E754
:10456000324629462046FFF7B3FD48B9A36863B930
:1045700001932368DA6801929B680193019B04E030
:1045800020236365012000E00220012384F85130DC
:10459000002384F8503003B0BDE8F0830220F4E734
:1045A0000220F2E70120F0E70120EEE70120ECE72E
:1045B0000320EAE70320E8E70320E6E70220EAE732
:1045C0002DE9F04383B00446884691461D46436872
:1045D000B3F5827F36D094F85030012B00F0A180E3
:1045E000012384F8503000F0DFFE074694F8516054
:1045F000F6B2012E40F08280B8F1000F7FD0B9F101
:10460000000F7CD0042384F8513000236365C4F884
:104610003880A4F83C90A4F83E902363A386E386F8
:1046200023646364A368B3F5004F18D023681A6845
:1046300012F0400F03D11A6842F040021A60E3689A
:10464000EBB13BE08368002BC5D1042380F85130E7
:10465000009513460A46FFF797FE064655E0226886
:10466000136823F480431360E0E700F09DFEC01B55
:10467000A84202D3B5F1FF3F4BD1002D4BD0E38FC1
:104680009BB2002B2ED023689A6812F0010FECD059
:10469000A26B1B7B1370A36B0133A363E38F9BB2ED
:1046A000013B9BB2E387EAE700F07EFEC01BA84215
:1046B00002D3B5F1FF3F30D1002D30D0E38F9BB254
:1046C00083B123689A6812F0010FEDD0DA68A36B0A
:1046D0001A80A36B0233A363E28F92B2013A92B2C3
:1046E000E287EBE73A4629462046FFF703FD08B18B
:1046F00020236365636D13B9002600E002260123C1
:1047000084F85130002384F85030304603B0BDE8BF
:10471000F0830326F3E70326F1E70326EFE70326FA
:10472000EDE70226F1E7000070B4036A23F001030D
:104730000362036A4668826922F073020C6844EAE5
:10474000020523F002028B6813430D4CA04209D0EE
:104750000B4CA0420DD0466085614A6842630362FB
:1047600070BC704723F00803CA68134323F00403A6
:10477000EEE726F440764A6932438E691643EAE74B
:10478000002C014030B4036A23F480730362036A8F
:104790004568C26922F073020C68224323F4007357
:1047A0008C6843EA04230F4CA04209D00D4CA04270
:1047B0000ED04560C2614A68C263036230BC704774
:1047C00023F40063CC6843EA042323F48063EDE719
:1047D00025F440554C6945EA04158C6945EA0415F1
:1047E000E7E700BF002C014030B4036A23F4805394
:1047F0000362036A4468C26922F4E6420D6842EA31
:10480000052223F400538D6843EA0533074DA8427F
:1048100006D04460C2614A680264036230BC7047DB
:1048200024F480444D6944EA8514F2E7002C0140E9
:1048300003681B4A90420AD0B0F1804F07D0A2F51E
:104840009432904203D002F58062904203D123F06B
:1048500070034A681343124A90420AD0B0F1804F65
:1048600007D0A2F59432904203D002F580629042C4
:1048700003D123F44073CA68134323F080034A69C9
:10488000134303608B68C3620B688362044B9842D6
:1048900002D00123436170470B690363F9E700BF4E
:1048A000002C0140B0B110B5044690F83D3063B122
:1048B000022384F83D30214651F8040BFFF7B8FF7E
:1048C000012384F83D30002010BD80F83C30FEF715
:1048D00081F9EDE70120704730B4036A23F010033B
:1048E0000362036A4468826922F4E6420D6842EA80
:1048F000052223F020038D6843EA05130E4DA842DC
:1049000009D00D4DA8420ED0446082614A6882638E
:10491000036230BC704723F08003CD6843EA05137F
:1049200023F04003EDE724F440644D6944EA850434
:104930008D6944EA8504E7E7002C014038B590F81A
:104940003C30012B66D004460D46012380F83C30F4
:10495000022380F83D300C2A1AD8DFE802F007194C
:104960001919201919193419191947000068FFF786
:10497000DBFE2268936943F0080393612268936920
:1049800023F0040393612268936929690B439361BF
:10499000012384F83D30002084F83C0038BD0068D5
:1049A000FFF79AFF2268936943F4006393612268DA
:1049B000936923F48063936122689369296943EAC8
:1049C00001239361E4E70068FFF7DCFE2268D36906
:1049D00043F00803D3612268D36923F00403D36151
:1049E0002268D36929690B43D361D1E70068FFF7D7
:1049F000FBFE2268D36943F40063D3612268D36964
:104A000023F48063D3612268D369296943EA0123CF
:104A1000D361BDE70220C1E710B401F01F010123FB
:104A200003FA01F4036A23EA04030362036A02FA45
:104A300001F10B43036210BC7047000010B504463F
:104A400001220068FFF7E8FF23680A4A93420BD06F
:104A50002268936803F00703062B03D0136843F022
:104A600001031360002010BD5A6C42F400425A64E6
:104A7000EEE700BF002C014090F83C30012B1CD029
:104A800070B4012680F83C60022380F83D30026853
:104A90005568936825F070050C682C4323F0800559
:104AA0004B682B4354600268936080F83D6000239C
:104AB00080F83C30184670BC70470220704790F870
:104AC0003C30012B22D0012380F83C30CB6823F40A
:104AD00040738A68134323F480634A68134323F4C2
:104AE00000630A68134323F480530A69134323F4D1
:104AF00000534A69134323F48043CA69134302688D
:104B00005364002380F83C301846704702207047F9
:104B10000268D36823F0C003D360202380F83930C3
:104B200070470268D36823F49073D36002685369B6
:104B300023F001035361202380F83A30704790F846
:104B40003930DBB2212B01D0022070478368B3F5E6
:104B5000805F17D0036A5A1C02621A7803685A6091
:104B6000C38C9BB2013B9BB2C3844BB90268D36830
:104B700023F08003D3600268D36843F04003D3601E
:104B800000207047036A1B880268C3F30803536060
:104B900003691BB9036A02330362E1E7036A013365
:104BA0000362DDE738B504460268136923F4405315
:104BB000C1680B43136183680269134342691A4356
:104BC0000168CB6823F4B05323F00C031343CB608C
:104BD0000268536923F4407381690B43536102688F
:104BE000214B9A421FD000F009FF00EB800000EB40
:104BF000800063689B00B0FBF3F01C4DA5FB003206
:104C00005109642303FB11031B013233A5FB03236A
:104C10005B0903F0F00202EB011203F00F032168BD
:104C200013448B6038BD00F0F9FE00EB800000EB10
:104C3000800063689B00B0FBF3F00C4DA5FB0032D5
:104C40005109642303FB11031B013233A5FB03232A
:104C50005B0903F0F00202EB011203F00F0321687D
:104C600013448B60DEE700BF003801401F85EB5125
:104C70002DE9F84305460F4616469946DDF8208093
:104C80002C68246837EA04030CBF01240024B442D2
:104C90001FD1B8F1FF3FF3D0B8F1000F05D000F0FD
:104CA00083FBA0EB09004045EAD92A68D36823F4C6
:104CB000D073D3602A68536923F001035361202322
:104CC00085F8393085F83A30002385F838300320EC
:104CD00000E00020BDE8F88358B310B5044690F812
:104CE00039300BB3242384F839302268D36823F495
:104CF0000053D3602046FFF755FF2268136923F461
:104D0000904313612268536923F02A035361226898
:104D1000D36843F40053D3600020E063202384F879
:104D2000393084F83A3010BD80F83830FEF714F985
:104D3000D8E7012070472DE9F04182B01E4690F877
:104D40003930DBB2202B58D104460D46904600295D
:104D500057D0002A57D090F83830012B55D0012376
:104D600080F838300023C363212380F8393000F005
:104D70001BFB0746A4F82480A4F8268017E00096C1
:104D80003B46002280212046FFF772FF00283ED1DB
:104D90002B882268C3F30803536023690BB90235DB
:104DA00005E0013503E015F8012B23685A60E38C18
:104DB0009BB29BB1E28C92B2013A92B2E284A368B8
:104DC000B3F5805FDBD000963B4600228021204671
:104DD000FFF74EFF0028E6D003200FE000963B4689
:104DE000002240212046FFF743FF90B9202384F89A
:104DF0003930002384F8383000E0022002B0BDE8EA
:104E0000F0810120FAE70120F8E70220F6E703200D
:104E1000F4E70320F2E790F83930DBB2202B16D10B
:104E2000B9B1C2B190F83830012B16D0016282843A
:104E3000C2840023C363212280F8392080F83830EF
:104E40000168CA6842F08002CA60184670470220B2
:104E5000704701207047012070470220704790F88A
:104E60003A30DBB2202B20D109B312B390F838309E
:104E7000012B20D081628285C2850023C363222258
:104E800080F83A2080F838300168CA6842F48072AD
:104E9000CA6001684A6942F001024A610168CA6851
:104EA00042F02002CA601846704702207047012075
:104EB00070470120704702207047000038B590F815
:104EC0003930DBB2202B31D10446002930D0002A02
:104ED00030D090F83830012B2ED0012380F83830B4
:104EE00001628284C2840025C563212380F83930A1
:104EF000036B12489862236B1148D862236B1148E8
:104F00001863236B5D6320681346021D206B01F05C
:104F100003F823686FF040021A6084F83850226862
:104F2000536943F080035361284600E0022038BDF6
:104F30000120FCE70120FAE70220F8E757500008BB
:104F4000A35000089751000830B583B0044690F88C
:104F50003A00C0B220283CD100293DD0002A3DD0E3
:104F600094F83830012B3BD0012384F83830A1620B
:104F7000A2850025E563222384F83A30636B194843
:104F80009862636B1848D862636B18481863636B48
:104F90005D63206813460A46011D606B00F0BCFF8C
:104FA000019523681A6801925A680192019A84F85F
:104FB0003850DA6842F48072DA602268536943F04C
:104FC000010353612268536943F04003536128464B
:104FD00000E0022003B030BD0120FBE70120F9E72B
:104FE0000220F7E7AD5000088B51000897510008E8
:104FF00010B5044601684A6990F83930DBB2212BBC
:105000000AD021684A6902F0400294F83A30DBB2D3
:10501000222B11D0002010BD02F08002002AF0D017
:105020004B6923F080034B61006B08B100F0AEFFC9
:105030002046FFF76DFDE4E7002AEBD04B6923F033
:1050400040034B61606B08B100F0A0FF2046FFF702
:1050500068FDDFE7704708B50346406A1B681B68B8
:1050600013F0200F0CD10023C3840268536923F08E
:10507000800353610268D36843F04003D36008BDE6
:10508000FFF7E8FFFBE708B50168CA6822F04002B5
:10509000CA60202280F83920FFF7DCFF002008BD1D
:1050A000704708B5406AFFF7FBFF08BD08B5034627
:1050B000406A1B681B6813F0200F13D10023C385BF
:1050C0000268D36823F48073D3600268536923F0C5
:1050D000010353610268536923F0400353612023A5
:1050E00080F83A30FCF712FD08BD08B590F83A3068
:1050F000DBB2222B46D18368B3F5805F0FD0036902
:105100000BBB03685A68836A591C81621A70C38D8D
:105110009BB2013B9BB2C385F3B1002008BD826AFC
:10512000036943B903685B68C3F308031380836AA8
:1051300002338362EBE703685B68DBB21380836A48
:1051400001338362E3E703685B68826A511C816212
:1051500003F07F031370DAE70268D36823F02003BB
:10516000D3600268D36823F48073D3600268536904
:1051700023F001035361202380F83A30FCF7C6FC8A
:105180000020CBE70220C9E7704708B5406AFFF767
:10519000FBFF08BD704710B5446A23685A6994F84C
:1051A0003930DBB2212B10D023685A6902F040025B
:1051B00094F83A30DBB2222B11D0E36B43F01003AA
:1051C000E3632046FFF7E6FF10BD02F08002002AED
:1051D000EAD00023E3842046FFF79AFCE4E7002AA4
:1051E000EBD00023E3852046FFF79BFCE5E70000BA
:1051F00010B5044602681368D168526913F00F00B5
:1052000005D113F0200F02D011F0200F13D128B1D7
:1052100012F0010213D111F4907F10D113F0800F1E
:1052200002D011F0800F69D113F0400F02D011F0BD
:10523000400F67D110BD2046FFF757FFFAE713F084
:10524000010F06D011F4807F03D0E06B40F0010025
:10525000E06313F0040F04D01AB1E06B40F00200D9
:10526000E06313F0020F04D01AB1E06B40F00400C9
:10527000E06313F0080F04D01AB1E26B42F00802A9
:10528000E263E26B002AD5D013F0200F02D011F0B8
:10529000200F21D123685B6903F04003E26B12F019
:1052A000080F00D123B32046FFF73BFC23685A695F
:1052B00012F0400F18D05A6922F040025A61636B15
:1052C00073B1124A5A63606B00F082FE0028B1D0BD
:1052D000606B436B9847ADE72046FFF706FFD9E7C1
:1052E0002046FFF757FFA5E72046FFF753FFA1E74A
:1052F0002046FFF74FFF0023E3639BE72046FFF7BD
:105300001EFC97E72046FFF7BEFE93E71153000807
:1053100008B5406A0023C385C384FFF73BFF08BD7F
:1053200010B504460E4B18784FF47A73B3FBF0F3C4
:105330000C4A1068B0FBF3F000F08CFF68B90F2C3A
:1053400001D901200AE0002221464FF0FF3000F091
:105350003FFF054B1C60002000E0012010BD00BF96
:1053600048000020500000204C00002008B5074AEB
:10537000136843F010031360032000F017FF0020B0
:10538000FFF7CEFFFDF776FE002008BD00200240AB
:10539000034A1168034B1B780B441360704700BF2E
:1053A000C007002048000020014B1868704700BF6C
:1053B000C007002038B50446FFF7F6FF0546B4F1F4
:1053C000FF3F02D0044B1B781C44FFF7EDFF401B4E
:1053D000A042FAD338BD00BF4800002082B0084B7D
:1053E0001B68084AA2FB03235B0A00FB03F301933B
:1053F00000BF019B5A1E0192002BF9D102B07047E9
:1054000050000020D34D6210002800F0F18170B5EB
:1054100082B00446036813F0010F2CD0AA4B5B68DE
:1054200003F00C03042B1DD0A74B5B6803F00C03A7
:10543000082B12D06368B3F5803F41D0002B55D1C3
:1054400003F1804303F504331A6822F480321A60B2
:105450001A6822F480221A6037E09B4B5B6813F4D1
:10546000803FE7D0984B1B6813F4003F03D063687C
:10547000002B00F0BF81236813F0020F75D0924B10
:105480005B6813F00C0F5FD08F4B5B6803F00C036D
:10549000082B54D02369002B00F089808B4B01220C
:1054A0001A60FFF781FF0546874B1B6813F0020F58
:1054B00074D1FFF779FF401B0228F5D903209EE144
:1054C000814A136843F480331360636843B3FFF782
:1054D0006BFF05467C4B1B6813F4003FCBD1FFF7F5
:1054E00063FF401B6428F5D9032088E1B3F5A02FA2
:1054F00009D0754B1A6822F480321A601A6822F4B7
:1055000080221A60E1E703F18043A3F53C331A6877
:1055100042F480221A601A6842F480321A60D4E79A
:10552000FFF742FF0546684B1B6813F4003FA2D00B
:10553000FFF73AFF401B6428F5D903205FE1624B77
:105540005B6813F4803FA5D15F4B1B6813F0020F1B
:1055500003D02369012B40F04F815B4A136823F08D
:10556000F803616943EAC1031360236813F0080F6D
:1055700032D0A369002B45D0554B01221A60FFF7AA
:1055800013FF0546504B5B6A13F0020F21D1FFF762
:105590000BFF401B0228F5D9032030E14A4A13686B
:1055A00023F0F803616943EAC1031360DDE7474B69
:1055B00000221A60FFF7F8FE0546434B1B6813F004
:1055C000020FD2D0FFF7F0FE401B0228F5D90320CE
:1055D00015E10120FFF702FF236813F0040F00F02C
:1055E0009780394BDB6913F0805F1DD1364BDA6948
:1055F00042F08052DA61DB6903F080530193019B32
:10560000012512E0324B00221A60FFF7CDFE05465D
:105610002D4B5B6A13F0020FDED0FFF7C5FE401B77
:105620000228F5D90320EAE000252A4B1B6813F471
:10563000807F11D0E368012B22D0002B38D103F1F9
:10564000804303F504331A6A22F001021A621A6ACF
:1056500022F004021A6218E01E4A136843F48073B1
:105660001360FFF7A1FE06461A4B1B6813F4807FF8
:10567000E0D1FFF799FE801B6428F5D90320BEE036
:10568000114A136A43F001031362E36873B3FFF72F
:105690008BFE06460C4B1B6A13F0020F37D1FFF747
:1056A00083FE801B41F288339842F3D90320A6E0A1
:1056B000052B11D0044B1A6A22F001021A621A6AF1
:1056C00022F004021A62E0E70010024000004242A9
:1056D00080044242007000404D4B1A6A42F00402BE
:1056E0001A621A6A42F001021A62CEE7FFF75CFE04
:1056F0000646474B1B6A13F0020F08D0FFF754FE13
:10570000801B41F288339842F3D9032077E0E5B952
:10571000E369002B72D03E4A526802F00C02082A5C
:1057200056D0022B17D03B4B00221A60FFF73CFEED
:105730000446374B1B6813F0007F47D0FFF734FE59
:10574000001B0228F5D9032059E0314AD36923F020
:105750008053D361DCE72F4B00221A60FFF724FE51
:1057600005462B4B1B6813F0007F06D0FFF71CFE8D
:10577000401B0228F5D9032041E0236AB3F5803F9E
:105780001AD023494B6823F47413226A606A0243D7
:1057900013434B601F4B01221A60FFF705FE0446BE
:1057A0001B4B1B6813F0007F0ED1FFF7FDFD001BA4
:1057B0000228F5D9032022E0154A536823F4003368
:1057C000A1680B435360DCE7002018E0002016E0DE
:1057D000012B16D00E4B5B6803F48031226A914294
:1057E00011D103F47013626A93420ED1002006E0D7
:1057F00001207047012002E0012000E0002002B0FB
:1058000070BD0120FBE70120F9E70120F7E700BFA9
:10581000001002406000424286B0164B0FCB0DF1E3
:10582000180C0CE90F0040F20123ADF80430124BC4
:105830005B6803F00C02082A02D0104806B07047DB
:10584000C3F38342624412F8102C13F4803F0CD04F
:10585000094B5B68C3F34043634413F8143C0748A7
:1058600000FB02F0B0FBF3F0E8E7054800FB02F0B4
:10587000E4E700BF489100080010024000127A00DF
:1058800000093D00002800F0A08070B50D460446D8
:10589000524B1B6803F007038B420BD24F4A13682D
:1058A00023F007030B431360136803F007038B42D5
:1058B00040F08D80236813F0020F17D013F0040F0F
:1058C00004D0474A536843F4E0635360236813F0FD
:1058D000080F04D0424A536843F460535360404A6F
:1058E000536823F0F003A1680B435360236813F05F
:1058F000010F31D06368012B20D0022B25D0384A0C
:10590000126812F0020F64D035494A6822F003028F
:1059100013434B60FFF748FD0646314B5B6803F0CD
:105920000C036268B3EB820F16D0FFF73DFD801BBE
:1059300041F288339842F0D9032045E0284A1268A2
:1059400012F4003FE0D101203EE0254A126812F037
:10595000007FD9D1012037E0204B1B6803F00703FB
:10596000AB420AD91D4A136823F007032B43136087
:10597000136803F00703AB422DD1236813F0040F23
:1059800006D0174A536823F4E063E1680B43536081
:10599000236813F0080F07D0114A536823F46053AB
:1059A000216943EAC1035360FFF736FF0C4B5B6884
:1059B000C3F303130B4AD35CD8400B4B18600B4B5B
:1059C0001868FFF7ADFC002070BD01207047012072
:1059D000FAE70120F8E70120F6E700BF00200240C7
:1059E000001002405C910008500000204C00002094
:1059F000014B1868704700BF5000002008B5FFF742
:105A0000F7FF044B5B68C3F30223034AD35CD8401F
:105A100008BD00BF001002406C91000808B5FFF7F8
:105A2000E7FF044B5B68C3F3C223034AD35CD8404F
:105A300008BD00BF001002406C91000870B582B034
:105A40000446036813F0010F34D03E4BDB6913F0BA
:105A5000805F47D13B4BDA6942F08052DA61DB6903
:105A600003F080530193019B0125374B1B6813F40E
:105A7000807F39D0334B1B6A13F4407311D06268B6
:105A800002F440729A420CD02E4A136A23F44070FA
:105A90002E4901260E6000260E60106213F0010FE1
:105AA00036D1284A136A23F4407361680B431362AA
:105AB000002D3ED1236813F0020F06D0214A53680F
:105AC00023F44043A1680B435360236813F0100F85
:105AD00034D01C4A536823F48003E1680B435360BD
