:020000040800F2
:10000000A80B0020ED920008F9900008FB90000872
:10001000FD900008FF90000801910008000000001A
:100020000000000000000000000000000391000834
:1000300005910008000000000791000809910008E0
:100040006F93000873930008779300087B93000870
:100050007F93000883930008879300088B93000820
:100060008F93000893930008979300089B930008D0
:100070009F930008A3930008119100081B910008AA
:10008000A7930008AB930008AF930008B393000850
:10009000B7930008BB930008BF930008C393000800
:1000A000C7930008CB930008CF930008D3930008B0
:1000B000D7930008DB930008DF930008E393000860
:1000C000E7930008EB930008EF930008F393000810
:1000D000F793000825910008FB930008FF930008A0
:1000E00003940008079400080B94000881B000F501
:1000F000E0700268914203D343681A44914202D3EC
:1001000080680028F5D101B07047DFF868170868EB
:1001100090B94FF4805048604FF480324FF0FF3078
:100120008A60C86008610420DFF84C27DFF84C378C
:100130004861C2F8BC010B600120704701F108035F
:1001400013F0070F0EBF0023C3F1080303F00703EA
:100150001944D21A8161C26042F001034B60091D4B
:1001600028238B50DFF80C170A69C26170472DE90C
:10017000FC4B074601F1080010F0070F0FBF89463E
:10018000C0F1080000F0070001EB000902F10801CE
:1001900011F0070F06D002F10800C0F1080000F0CE
:1001A000070002441546A5EB090009EB0306A0EB86
:1001B000030B43F00303C9F80430AE4228BF01F03B
:1001C000FFF92879C10758BF01F0FAF9BBF1100F08
:1001D00038BF01F0F5F9B869854207D1F86858448D
:1001E000F860BE6140F00100706050E178698542BE
:1001F0000AD1B8688344C7F808B07E614BF00100AB
:10020000706046F80BB042E1686800F00301012914
:1002100040F0AB80C008C0000190C0081F2839D84A
:10022000AC68D5F80C800090454508BF01F0C8F9CE
:10023000A54208BF01F0C4F968680099C008C00071
:10024000B0EBC10F18BF01F0BBF9009907F128000E
:1002500000EBC100844206D03A699442C0F080802D
:10026000E168A9427CD1A04506D1009839680122F5
:1002700082409143396075E0804506D038698045F9
:100280006ED3D8F80800A8426AD1C4F80C80C8F828
:10029000084067E0EC68D5F81880AC420CD0A8683C
:1002A0003969884222D3C168A94204BFA168A94222
:1002B0001CD1C460A0601BE005F11402146834B9BD
:1002C00005F1100214689CB101E01A46146804F1AB
:1002D00014031968002902BF04F1100318680028EC
:1002E000F3D139698A4228BF106001D201F068F960
:1002F000B8F1000F36D0E96907F5987000EB81007E
:100300000268954208D10460A4B9E86979680122BD
:1003100082409143796025E03869804508D3D8F858
:100320001000A84214BFC8F81440C8F8104001E0FB
:1003300001F046F9B4B139698C4211D3C4F8188080
:10034000286928B1884226BF2061846101F038F90C
:10035000686938B13969884202D36061846101E01B
:1003600001F02EF901982D18834468684008400078
:1003700068604BF0010171604FEADB0446F80BB096
:100380001F2C23D807F1280000EBC4084546BBF119
:10039000100F38BF01F014F9386820FA04F1C907CA
:1003A00005D4012101FA04F404433C6007E0D8F8C5
:1003B0000800396988422CBF054601F001F9C8F8E8
:1003C0000860EE60B560C6F80C8060E05FEA1B2054
:1003D00008BF002123D0B0F5803F28BF1F211ED2C7
:1003E000A0F58072120C02F008029040A0F5805136
:1003F000090C01F004018840A0F580431B0CC2F1F8
:100400000E0203F00203521AD21A984002EBD032C5
:10041000D01D2BFA00F101F0010101EB420107F5BB
:10042000987202EB8100F1610022726132617A6898
:1004300022FA01F3DB0707D4012303FA01F1114388
:1004400079600660B0611DE002681F291DBF490880
:10045000C1F119010BFA01F1594600E0024650685A
:10046000C008C000584516D002F11003CC0F03EBB2
:100470008403490018680028F0D13869834204D306
:100480001E60B261F660B66001E001F099F809F112
:100490000800BDE8F68B396990688A4228BF884217
:1004A000F3D3C6609660B060F2600020B061EEE702
:1004B0002DE9FE4F04468B46A5692E469046994687
:1004C0003146FFF713FEA8F128020168406801EBEE
:1004D000000AAAF1270111F007000EBF0021C1F1A7
:1004E000080101F007010AEB0100A0F12F0706F156
:1004F0001000874238BF374607F11800019059466F
:10050000002000902046FFF719FE07F1080010F0C8
:10051000070F18BF01F054F81B20786007F108019D
:1005200004F5E07090E80C5081E80C50C0F800B081
:10053000C0F80480C0F80C9081600198009900E038
:10054000001D07224260491C00F108025245F7D302
:100550000129D8BF01F034F8B74200F09580BF1BE5
:10056000301D311DC05940084000C85147F00101FD
:1005700071604FEAD70BF751BBF11F0F21D804EB85
:10058000CB0000F12805A846102F38BF01F018F85D
:10059000206820FA0BF1C90705D4012101FA0BF1FB
:1005A0000843206006E0A868216988422CBF804685
:1005B00001F006F8AE60C8F80C60C6F80880F56077
:1005C0006FE0380A08BF002123D0B0F5803F28BF74
:1005D0001F211ED2A0F58072120C02F0080290407A
:1005E000A0F58051090C01F004018840A0F580437A
:1005F0001B0CC2F10E0203F00203521AD21A9840E9
:1006000002EBD032D01D27FA00F101F0010101EB1D
:10061000420104EB8102002302F59870F1617361DD
:100620003361626822FA01F3DB0707D4012303FA7E
:1006300001F1114361600660B0611DE002681F298D
:100640001DBF4908C1F1190107FA01F1394600E05F
:1006500002465068C008C000B84216D002F110032C
:10066000C80F03EB8003490018680028F0D1206907
:10067000834204D31E60B261F660B56011E003B03E
:10068000BDE8F04F00F09CBF0BE0216990688A4202
:1006900028BF8842F3D3C6609560B060F260002046
:1006A000B06103B0BDE8F08F2DE9F041714F054610
:1006B0003868884608B9FFF728FDB96801EB0800DB
:1006C0002F30491E20EA010188457DD205F5D876F4
:1006D000B06828B1326889188A4275D2884273D3CB
:1006E00000F080FF01001CBF0C6811F1010F6BD0FE
:1006F0003068201805F5D87230605368984238BFCA
:1007000018467060A86960BB286908B1814200D2B0
:100710002961316174610020F06105F128023868B7
:1007200068624FF0FF3028620020D260926002F1D0
:10073000080353611361801C10322028F5D34E4802
:10074000854208BFA4F1280228D055F8040CC0083F
:1007500005EBC002A2F108000A19121A283A014654
:100760001CE005F5E070024600E092687AB3136879
:1007700057683B449942F8D1137B1F0727D4AB69D4
:100780001768BB4223D3D2F804C06744BB421ED2D1
:10079000A444C2F804C0E868A96922182846FFF7F3
:1007A000CDFC1FE08068C0B103689342FAD1027BA0
:1007B000130712D4026801604368E418446043469A
:1007C0002846BDE8F041D2E40020BDE8F0812A6966
:1007D000914238BF29610A19E5E7002322462846DD
:1007E000FFF766FEE8688045EED2A0EB0800A96935
:1007F000E86001EB0802AA6140F00100506048F097
:100800000300486001F10800BDE8F08138B4194BDD
:100810001A6882B94FF480525A604FF480344FF016
:10082000FF329C60DA601A610422134C134D5A6146
:10083000C4F8BC211D6011F1400F17D28269AAB122
:10084000C368283199420BD200F5E0710C68A242CE
:1008500003D34D682C44A24202D389680029F5D104
:10086000C16999423CBF4FF0FF31C16132BC0020E9
:100870007047000024070020AC0000206859883C25
:100880002DE9F84F00258946090AC9F1000B08BF78
:10089000002323D0B1F5803F28BF1F231ED2A1F52E
:1008A0008072120C02F008029140A1F580531B0CDB
:1008B00003F004039940A1F58044240CC2F10E0218
:1008C00004F00204D21A121BA14002EBD132D11D56
:1008D00029FA01F303F0010303EB4203074607F58E
:1008E000987858F8230030B31F2B0FBF4C465C0894
:1008F000C4F1190409FA04F4AC46594600E0640056
:100900004268D208D200A2EB09028A4203D2110047
:10091000054600F06881426910304FEAD47B50F8F8
:100920002B00002A1CBF824294460028E7D18B4648
:100930006046B0BBBDBB012000FA03F35B00584228
:1009400003437868034000F04D81584203405B1E2A
:10095000180B00F01000C340590901F00801CB400A
:100960009A0802F00402D3405C0804F0020408185C
:10097000E3401018C3F3400620183044F3401B181E
:1009800058F823000DE008464168C908C900A1EBEA
:10099000090159453CBF8B46054601690029F2D142
:1009A00040690028F0D1002D00F01C81B868A0EB50
:1009B0000900834580F0168138698542C0F01081B6
:1009C0006868C008C00009EB0B01884218BF00F03E
:1009D000F7FD05EB0906B54280F00281EC68D5F819
:1009E00018A0AC420CD0A8683969884222D3C168EB
:1009F000A94204BFA168A9421CD1C460A0601BE049
:100A000005F11402146834B905F1100214689CB1A0
:100A100001E01A46146804F114031968002902BFA2
:100A200004F1100318680028F3D139698A4228BFFD
:100A3000106001D200F0C4FDBAF1000F36D0E969B0
:100A400008EB81000268954209D10460200014D1AE
:100A5000E8697968012282409143796026E038692B
:100A6000824508D3DAF81000A84214BFCAF814402F
:100A7000CAF8104001E000F0A3FDBCB1386984421F
:100A800012D3C4F818A0286930B13969884226BF4A
:100A90002061846100F094FD686938B13969884249
:100AA00002D36061846101E000F08AFDBBF1100FA8
:100AB0000CD2D94449F003006860291D281D50F864
:100AC000090040F0010041F8090088E049F0030006
:100AD00068604BF0010070604FEADB0046F80BB035
:100AE0001F281DD807EBC00101F12804396821FA3D
:100AF00000F2D207A34605D4012202FA00F008430F
:100B0000386006E0A068396988422CBF834600F04F
:100B100057FDA660CBF80C60C6F808B0F4605EE044
:100B20005FEA1B2008BF002123D0B0F5803F28BF1B
:100B30001F211ED2A0F58072120C02F00802904014
:100B4000A0F58051090C01F004018840A0F5804314
:100B50001B0CC2F10E0203F00203521AD21A984083
:100B600002EBD032D01D2BFA00F101F0010101EBB4
:100B70004201F16100227261326108EB81007A6802
:100B800022FA01F3DB0707D4012303FA01F1114331
:100B900079600660B0611DE002681F291DBF490829
:100BA000C1F119010BFA01F1594600E00246506803
:100BB000C008C000584518D002F11003CC0F03EB59
:100BC0008403490018680028F0D13869834204D3AF
:100BD0001E60B261F660B66001E000F0F1FC13E166
:100BE00000F0EEFC0DE18B46A3E6396990688A427D
:100BF00028BF8842F1D3C6609660B060F2600020E2
:100C0000B061ECE72DE9F84F064688467168484226
:100C10000140491E080B00F01000C1404A0902F0D3
:100C20000802D1408B0803F00403D9404D0805F0B9
:100C300002051018E9401818C1F34004281806F5F9
:100C4000987A2044E14009185AF821104868C008F1
:100C5000C0000D46A0EB080909E001464868C0083D
:100C6000C000A0EB080048453CBF81460D4608691E
:100C70000028F2D149690029F0D130698542C0F0DD
:100C8000BE806868C00808EB090BC000584518BF53
:100C900000F096FC05EB08008542009080F0AF80E4
:100CA000EF68AC69AF420CD0A8683169884222D3A2
:100CB000C168A94204BFB968A9421CD1C760B86025
:100CC0001BE005F11402176837B905F11002176827
:100CD0009FB101E01A46176807F11403196800294B
:100CE00002BF07F1100318680028F3D131698A4266
:100CF00028BF106001D200F063FC002C31D0E969FC
:100D00000AEB81000268954208D107608FB9E86953
:100D10007168012282409143716022E0306984420F
:100D200005D32069A84214BF6761276101E000F084
:100D300047FCB7B13069874211D3BC61286930B133
:100D40003169884226BF3861876100F039FC6869E3
:100D500038B13169884202D37861876101E000F0DF
:100D60002FFCB9F1100F0BD24BF003006860291D66
:100D7000281D50F80B0040F0010041F80B003DE049
:100D800048F00301696049F00100291D41F808009D
:100D9000009840F80990D6F808804FEAD80BBBF1CC
:100DA000200F28BF00F00CFCB8F1000F22D006EB9A
:100DB000CB00776900F12804A246B8F1100F38BFC4
:100DC00000F0FEFB306820FA0BF1C90705D40121C1
:100DD00001FA0BF10843306006E0A06831698842EF
:100DE0002CBF824600F0ECFBA760CAF80C70C7F875
:100DF00008A0FC60C6F808900098706104E000F05C
:100E0000DFFB0020BDE8F28F05F10800BDE8F28F9E
:100E10002DE9FE4F0546AFF30080F52DDFF89C6706
:100E200080F004810B2D31BF10250B35ED08ED004E
:100E30003068EC08E04010F0030F46D0C04300F0EB
:100E40000100041906F1280000EBC408E700D8F8F7
:100E500008506868C008C000B84218BF00F0B0FB76
:100E6000D5F80890454508BF00F0AAFB4D4508BFDE
:100E700000F0A6FB6868C008C000B84218BF00F0C8
:100E80009FFBC84507D13168012000FA04F421EA2C
:100E9000040434600DE03069814508D3D9F80C00B2
:100EA000A84204D1C8F80890C9F80C8001E000F00D
:100EB00087FB47F003006860291D281D05F1080421
:100EC000C05940F00100C851F8E0B168A94280F073
:100ED000BE80002800F0A1804FF0010808FA04F15C
:100EE000490000FA04F4484201430C4060420440C7
:100EF000641E200B00F01000C440610901F00801DD
:100F0000CC40A20802F00402D440630803F00203BC
:100F10000818DC401018C4F3400718183818FC40B3
:100F2000241806F1280000EBC40AE700DAF808905C
:100F3000D9F80400C008C000B84218BF00F040FB58
:100F4000D9F808B0D14508BF00F03AFBD94508BF31
:100F500000F036FBD9F80400C008C000B84218BF42
:100F600000F02EFBDA4506D1316808FA04F421EAD4
:100F7000040434600DE03069834508D3DBF80C00CD
:100F8000484504D1CAF808B0CBF80CA001E000F045
:100F900017FB45F00300C9F804007F1B09F10401A9
:100FA00047F00100485109EB05000190C751B468B2
:100FB0004FEAD40ABAF1200F28BF00F001FB34B386
:100FC000CDF800A006F12800756900EBCA0AD346E7
:100FD000102C38BF00F0F4FA3168009821FA00F2C2
:100FE000D30704D408FA00F00843306007E0DAF8C9
:100FF0000800316988422CBF834600F0E1FACAF844
:101000000850CBF80C50C5F808B0C5F80CA0B76074
:1010100009F108040198706150E07068C0B3294676
:101020003046FFF7EFFD040011D047E015F1400F07
:1010300028BF4FF0FF350AD20B35ED087068ED0080
:1010400028B129463046FFF71BFC040036D1B068B2
:10105000A8421DD3411B726910290AD3501970612F
:10106000B16041F001034360415045F00305556014
:101070000BE00021B1607161131D40F0030151606C
:10108000111D095841F00101195002F1080415E041
:10109000F06885420DD2401BB169F0604A19B26117
:1010A00040F00100506045F003054D6001F1080477
:1010B00004E029463046FFF7F7FA0446AFF3008014
:1010C0002046FFF7EEBA002800D170472DE9FC4713
:1010D000A0F10805AFF30080DFF8E06432699542C3
:1010E000C0F05982686800F00301012900F05382C2
:1010F000C1084FEAC109C10705EB090839D42C68BA
:1011000010F0030F00F04982604205449542A1446B
:10111000C0F041827069854200F0C780E408202C4D
:101120005ED2D5F80CA0AF68554508BF00F048FA6C
:10113000BD4208BF00F044FA6868C008C000B0EBC8
:10114000C40F18BF00F03CFA06F1280000EBC40001
:10115000874205D031698F423FD3F968A9423CD11B
:10116000BA452CD13068012101FA04F420EA0404C4
:101170003460454580F00F82D8F80440E00740F124
:101180000A82A00700F16881B069804540F0A08024
:10119000F068B5618144C6F80C9049F001006860C0
:1011A0007069854202D100207061B060F0694845E5
:1011B00080F0F38100213046FFF728FBEDE1824506
:1011C00006D03069824508D3DAF80800A84204D175
:1011D000C7F80CA0CAF80870CBE700F0F1F9C8E72F
:1011E000EC68AF69AC420BD0A868904223D3C168C9
:1011F000A94204BFA168A9421DD1C460A0601CE03F
:1012000005F114031C6834B905F110031C68A4B17E
:1012100001E063461C6804F1140CDCF8001000299E
:1012200002BF04F1100CDCF800000028F1D1934259
:1012300028BF196001D200F0C3F9002F99D0E969E5
:1012400006F5987000EB81000268954209D10460B0
:10125000200011D1E86971680122824091437160D8
:1012600087E73069874205D33869A84214BF7C619B
:101270003C6101E000F0A4F9002C3FF47AAF316941
:101280008C42AAD3A761286928B1884226BF206171
:10129000846100F095F9686900283FF46AAF31690C
:1012A00088429AD36061846163E798F8040000F093
:1012B000030003287FF45DAFC6F8089049F00101F0
:1012C000D8F8040040084000C8F8040069600AE04B
:1012D000706980450AD1B06875618144C6F808908C
:1012E00049F00100686045F8099056E1E408E4001F
:1012F000A144E408202C3AD2D8F80CA0D8F8087001
:10130000D04508BF00F05CF9B84508BF00F058F9B7
:10131000D8F80400C008C000B0EBC40F18BF00F03C
:101320004FF906F1280000EBC400874207D031696D
:101330008F42C0F08480F968414540F08080BA4512
:1013400007D13068012101FA04F420EA0404346072
:1013500077E0824506D031698A4570D3DAF8080013
:1013600040456CD1C7F80CA0CAF8087069E0D8F8FD
:101370000C40D8F8187044450DD0D8F808003169F1
:10138000884222D3C168414504BFA16841451CD1B0
:10139000C460A0601BE008F11402146834B908F1BD
:1013A000100214689CB101E01A46146804F1140399
:1013B0001968002902BF04F1100318680028F3D14E
:1013C00031698A4228BF106001D200F0F9F8002F7D
:1013D00037D0D8F81C1006F5987000EB8100026831
:1013E00090450AD10460200012D1D8F81C00716821
:1013F000012282409143716023E03069874205D326
:101400003869404514BF7C613C6101E000F0D8F8C8
:10141000BCB131698C4212D3A761D8F8100028B151
:10142000884226BF2061846100F0CAF8D8F8140011
:1014300038B13169884202D36061846101E000F013
:10144000BFF849F00100686045F80990706985426D
:101450000BD1C6F80890A0E064086400C8F8044006
:1014600049F00100686045F809904FEAD907202F3C
:1014700022D206F1280000EBC704A046B9F1100FF4
:1014800038BF00F09DF8306820FA07F1C90705D48D
:10149000012101FA07F70743376006E0A0683169C8
:1014A00088422CBF804600F08BF8A560C8F80C502D
:1014B000C5F80880EC6070E05FEA192008BF0021E1
:1014C00023D0B0F5803F28BF1F211ED2A0F5807227
:1014D000120C02F008029040A0F58051090C01F0B6
:1014E00004018840A0F580431B0CC2F10E0203F0FA
:1014F0000203521AD21A984002EBD032D01D29FAB8
:1015000000F101F0010101EB420106F5987202EBD6
:10151000810000226A612A61E961726822FA01F39E
:10152000DB0707D4012303FA01F111437160056061
:10153000A8611DE002681F291DBF4908C1F11901FA
:1015400009FA01F1494600E002465068C008C000AF
:10155000484526D002F11003CC0F03EB8403490069
:1015600018680028F0D13069834204D31D60AA6155
:10157000ED60AD6001E000F023F8306A401E30629B
:101580000BD1D6F8C80100E080680028FCD14FF0EC
:10159000FF30306201E000F013F8AFF30080BDE8E7
:1015A000F387316990688A4228BF8842E3D3C560D7
:1015B0009560A860EA600020A861DEE7AC0000202A
:1015C000012000F025B8B1F5807F02D34FF0FF3045
:1015D00070470170012070470078401E8041C04371
:1015E000C00F70470749086808B1002070470648D7
:1015F000C008C00008600549C908C900091A01608F
:10160000704700BF94070020AF0B0020A80D0020FA
:1016100080B5AFF30080024A11001820ABBEFBE793
:10162000260002002DE9F84F74A7A2B0D7E90045C3
:10163000CDE900452C9EDFF8307C04918DF84360A5
:101640005FF000016FA40D9112944FF0FF368246B7
:10165000904699460FE0C3462C461BF8011B0498A0
:10166000D0470028049000F0B2800D98401C641E02
:101670000D90F2D1A84498F80000252807D1002148
:101680000791089109910A910B910C910DE06A461E
:101690003146404600F0E6FF050001D10D98B5E067
:1016A000D9D50125E6E741F0010118F8010F2028FE
:1016B000F9D023280CD02B2804D02D2805D0302891
:1016C00009D086E041F00201EFE741F00401ECE7C8
:1016D00041F00801E9E741F01001E6E700200F9032
:1016E0000AE00F98B84205DA00EB800302EB4302F0
:1016F000303A0F9208F1010898F80020A2F130006A
:101700000A28EED398F800002E2818BF0E9629D18B
:1017100018F8010F2A280BD1D9F80000C9F80000E9
:1017200008F1010850F8042BC9F800000E9219E0E6
:101730002D280CBF18F8010B002000220E920BE0A0
:1017400040B90E9ABA4205DA02EB820403EB440375
:10175000303B0E9308F1010898F80030A3F13002F5
:101760000A2AEDD3ADF84010129898F8001000F056
:1017700083FF08B118F8010B8DF842009DF8420074
:10178000682804BF98F80010682903D162208DF8FA
:10179000420008E06C2804BF98F800006C2804D1CF
:1017A00071218DF8421008F1010813A806904A46ED
:1017B00018F8013B02A9504600F068F838B913AA9E
:1017C00002A9504600F0CAF900287FF554AF304610
:1017D0001CE02A2882D1D9F80020C9F8002052F84C
:1017E000040BC9F8002000280F9003D540420F9049
:1017F00041F0040108F1010884E700000000000046
:1018000000000000686A6C747A4C000023B0BDE8E8
:10181000F08F622820D0682811D06A2803D06C2865
:1018200027D0712825D10868C01D20F00700086066
:10183000D0E9002308300860194610467047002A96
:101840000A680A60106803D0121D0A6000B217E02F
:10185000121D0A6080B217E0002A0A680A60106848
:1018600003D0121D0A6040B20AE0121D0A60C0B225
:101870000AE0002A0A680A60106803D0121D0A6094
:10188000C1177047121D0A60002170477CB50D46D4
:1018900011461C462E69B4F1250200F04D811C3A18
:1018A00000F08680121F022A40F282800E3A00F079
:1018B0000781521F5AD0093A7AD0921E16D0521E72
:1018C00035D0521E022A73D9121F30D0521F00F099
:1018D0009A80521E4AD0521E00F0E480D21E00F0C0
:1018E000FD80921E42D0D21E40D02BE195F83A20C6
:1018F0006C2A09D06869421C6A610A680A6052F859
:10190000043B0A60335427E10A680A6052F8043B3A
:101910000A600021009301914FF0FF322A632946AB
:101920006A4600F096F9002840F1168101E195F829
:101930003A000122FFF76DFFC5E90001002399423B
:1019400004DA6869411C69612D210DE0288F810747
:1019500004D56869411C69612B2105E0C00722D5C7
:101960006869411C6961202131541CE095F83A00F6
:101970000022FFF74EFFC5E9000195F83800010786
:1019800011D5D5E900230020834208BF82420AD046
:1019900044F02000782806D1686930213154401C79
:1019A000411C69613454214668693044E86083E031
:1019B0000868C01D20F007000860D0E90023083047
:1019C0000860C5E90023D5E90001C80F04D06869A3
:1019D000411C69612D210DE0288F810704D56869BC
:1019E000411C69612B2105E0C00704D56869411CD1
:1019F00069612021315468693044E86021462846F5
:101A000000F032FAA8E005F13A02507820B14FF028
:101A1000FF340FF6243070E01078622808D0682870
:101A200024D06A2812D06C282ED071280ED02BE03A
:101A30000A680A6052F8040B0A6020B94FF0FF34BC
:101A40000FF60C3059E0E96A017085E00A680A6017
:101A500052F8040B0A6020B94FF0FF340FF6F02063
:101A60004BE0EA6AD317C0E9002375E00A680A6010
:101A700052F8040B0A6020B94FF0FF340FF6D02063
:101A80003BE0E96A018067E00A680A6052F8040BEB
:101A90000A6020B94FF0FF340FF6B4202DE0E96A58
:101AA000016059E00A680A6052F8040B0A600021DC
:101AB000C5E90001EE607821284600F029F94BE0E5
:101AC0006C2285F83A200B680B6053F8042B0B60EE
:101AD00052BB4FF0FF340FF6AC200EE095F83A20E1
:101AE0006C2AF0D00868086050F8044B0860EC607D
:101AF0003CB94FF0FF340FF6702000F0C9FD201AFA
:101B000076BD2E6B002E04D5204600F0E1FD044684
:101B100008E032460021204600F0F6FD002814BF00
:101B2000041B3446AC6117E0294600F092F8002807
:101B300012D54FF0FF3076BD6869411C69612521DF
:101B4000315409E06969481C6861252272542100FA
:101B500002D0411C69613454002076BD2DE9F0416A
:101B60000E460546716B7069B46A091A306A091A23
:101B7000B069091A706A091AF069091A96F83800EA
:101B80000C1B410790460DD4002C0BDD2746B06896
:101B90002021A8470028B06057D0F06A401C7F1E63
:101BA000F062F4D1736942463146284600F0ACFC3D
:101BB00000284AD1376A002F0ADDB0683021A847D3
:101BC0000028B06041D0F06A401C7F1EF062F4D162
:101BD000B369F2683146284600F096FCA8BB776AE4
:101BE000002F09DDB0683021A847B06068B3F06A03
:101BF000401C7F1EF062F5D1F068B169F3694218AC
:101C00003146284600F080FCF8B9B76A002F09DD9C
:101C1000B0683021A847B060B8B1F06A401C7F1EA0
:101C2000F062F5D196F8380041070BD5002C09DD9C
:101C3000B0682021A847B06038B1F06A401C641E2B
:101C4000F062F5D10020BDE8F0814FF0FF30BDE833
:101C5000F0812DE9F8470D46A3B02F6B002F814688
:101C6000904648BF6FF0004700F07AFD696B40185E
:101C70000FF62C118128D1E90023CDE9012328BFDB
:101C80004FF0FF303ED20024002F2FDDD8F8001097
:101C900001AA684600F0E8FC0646002E35D4D8F8C4
:101CA000000008B9761E30D4B7421FDB68693018CF
:101CB00081280AD30020686303AA29464846FFF713
:101CC0004DFF040012D40020686103A8D5F814A0C9
:101CD00032466946504400F049FDB244C5F814A0AC
:101CE00058F8040B002818BFBF1BCDD12CB903AA8C
:101CF00029464846FFF732FF044614B900206861C0
:101D00006863204624B0BDE8F0874FF0FF34F8E761
:101D10002DE9FC4707468A463E69BAF16F0F08BFB6
:101D2000082405D04AF02001782914BF0A24102481
:101D30003C25D7E90023BAF1640F18BFBAF1690F47
:101D40009046994606D100218B4203DAD8F100086B
:101D500069EB49090020814508BF80451FD1386BD8
:101D6000E8B9082C4CD197F83800010748D5302045
:101D70003B2586F83B0043E000280ED597F8380055
:101D800000F01400102808D17A6B7869121A386AAA
:101D9000121A511A0029C8BF3962BDE8F3878DF8BD
:101DA00000A0404649462246E31700F033FD30329A
:101DB000D0B26D1E3A28019504DB9DF80000A0F119
:101DC00051018A187255404649462246E31700F0F1
:101DD00021FD804689460020814508BF804503D00B
:101DE000F86871198842DCD3082C09D197F83800BB
:101DF000010705D5715D302902D06D1E3020705568
:101E0000C5F13C01B9617019F860386B8142B3DAF1
:101E1000411A39624FF6EF70398F01403987BDE8BA
:101E2000F3872DE9D04306460F4614464FF00008CD
:101E3000DFF8389412E0E00707D542464B463046BB
:101E4000394600F0FFFD06460F46404649464246E9
:101E50004B4600F0F7FD641080468946002CEAD11D
:101E600030463946BDE8D0832DE9F34F054641F0B1
:101E700020048DB0D5E90089612C02AE09D0286B11
:101E8000002848BF062003D408BF672C01D10120D9
:101E90002863D5E9002358004015401C0ED11903D2
:101EA0000CD00320A8619DF8380061381A2802D2AE
:101EB0000FF2F46111E00FF2F4610EE058004015EA
:101EC000401C0FD119030DD10320A8619DF83800E3
:101ED00061381A2814D30FF2DC61E868032200F09D
:101EE00045FCD3E1194621F00043B3F5801F1046AD
:101EF0000DD20027BB4208BFBA42019703D111E0BF
:101F00000FF2AC61E9E701AA00F06EFE0AE0DFF82B
:101F1000607307EB1352DFF85C3301921940DFF86E
:101F200058331943C5E90001612C0ED1E86830210E
:101F30000170811CE9609DF8381061290CBF78217F
:101F4000582141706869801C6861D5E900AB2BF0AD
:101F5000004300202AF00002834204BF8242002393
:101F600000F05A81612C40F0A980286B00284CBFFA
:101F70002120401C00904046009F7F1C49460022C3
:101F8000002300F069FED94601988DF8082038BF7B
:101F900089F00049001F0190002FD0460DF1090083
:101FA00040F3498140F2FF71DFF8D0B20C91064650
:101FB000404649460022002300F066FE80F03A8148
:101FC0004800400D00F11C0210D0002A0EDD0C98D4
:101FD000824205DB09F0004040EA0B01002013E0DB
:101FE000A448084040EA025140460DE029F0004371
:101FF000002028F00002834208BF82420FBF404603
:102000001C22404600F058FE8046894600F0F2FE51
:10201000FF1F002F044609DD00F00AFF02460B46B1
:102020004046494600F016FF80468946F01D0721CC
:1020300004E004F00F0200F8012D2411002C01DD52
:10204000491EF6D5491E5CBF002200F8012DF9D5C6
:10205000ECE00020194602AA0A4400E05B1E12F8D8
:102060000149491E8442F9D00F2804D10DF109001D
:10207000425C521C4254002904D50198001D02AE56
:102080005B1C0190591E12D49DF838007218147808
:1020900004F130085FFA88F4392CC4BFA0F13A0487
:1020A000A044491E02F80189F1D58DF83800286B4B
:1020B000002840F1B080591E2963ACE040464946F3
:1020C0000022002300F0C8FD019938BF89F00049C3
:1020D00047F2975041436A4A91FBF2F20192D2F1E2
:1020E000070204DD40464946FFF79BFE0AE05242E4
:1020F00000206449FFF795FE02460B4640464946DC
:1021000000F01AFF8046662C286BDFF87CB106BF12
:10211000019F0A3706273F18142FC8BF1427302005
:102120008DF8080089460DF1090000E03046002FC7
:1021300034DD06464046494601F022F801460A468B
:1021400006F1080304200A26B2FBF6F606EB860E1B
:10215000A2EB4E02303203F8012C0A22B6FBF2F257
:1021600002EB820EA6EB4E063036401E03F8026DDF
:10217000E9D1083F002F03F10806D7DD084601F03A
:1021800013F802460B464046494600F063FE002223
:102190005B4600F057FC80468946CBE70DF109010C
:1021A000401A0DF1090604E00199491E401E0191F3
:1021B000761C31783029F7D0662C02D10199491C60
:1021C00003E0652C0CBF012100212B6BCB1898423A
:1021D000B8BF431E002B1ED4834204DAF05C3528BE
:1021E000A8BF392000DA30201946721E02EB010820
:1021F00000E05B1E18F80199491E8145F9D0392885
:1022000002D1705C401C7054002904D50198401C18
:1022100016465B1C0190019800B200901BB29DF81D
:1022200038103246284600F035F82FE0C61D002F42
:102230003FF7BEAE30460DF10901401A0099034642
:102240008842C8BF0B46002B0DF109063FF52FAFA2
:102250008342BFF6FEAE0DF10900C05C07287FF790
:10226000F8AE0F20F6E60000CBCCCC0C00002440EA
:1022700002FCFFFFFFFF0F800000E03F0000F07F47
:10228000A08601000000F03F84D797410FB0BDE861
:10229000F08F00002DE9F84783B006468A461746BE
:1022A000984600F0E3F9B8F1000F406A356B90F8FA
:1022B000009002DC4FF00108BFA7BDF930404AF0A2
:1022C0002000662808BF641C15D0672840F0848071
:1022D00014F1040FC0F28680AC4280F2838096F83D
:1022E0003800641C010702D4A845B8BF454620B297
:1022F0002D1A48BF00250FFA84FAF068B169BAF1C7
:10230000000F25DC4A1C30234354002D03DC96F8D3
:102310003800010703D5F06800F80290521C15EB55
:102320000A0FB8BF6C4220B2441941424445B8BFBD
:10233000A046B26171620FFA88F5F561F068B36981
:102340002A463946184400F011FA641BB462C4E00E
:1023500022B29045084417DA4246394600F006FAA0
:10236000B0694044B061AAEB0801002D716203DC42
:1023700096F838100A0705D5F16801F80090F06961
:10238000401CF061B562A8E0394600F0EFF9B06991
:10239000002D5044A8EB040803DC96F838100A0717
:1023A00003D5F16801F80090401CB0610FFA88F085
:1023B0008542F068B369B8BFA8460FFA88F207EB08
:1023C0000A01184400F0D2F9B0690FFA88F1084404
:1023D000B061681A706280E0BAF1610F14D14FF0F9
:1023E000700A16E0A84504DA96F838100A0758BFB4
:1023F00045466D1E48BF0025BAF1670F14BF4FF068
:10240000450A4FF0650A04E0BAF1410F08BF4FF0EA
:10241000500AB169F368481CB061002D17F8012B10
:102420005A5403DC96F838100A071BD5F168431C90
:10243000B36101F80090002D14DDA8F101080FFA36
:1024400088F08542F068B8BFA8460FFA88F239468E
:10245000184400F08BF9B0690FFA88F108446D1A3E
:10246000B0617562F068B1690844002C80F800A082
:1024700003D42B214170811C03E02D214170644263
:10248000811C00206A460AE023460A2493FBF4F4E8
:1024900004EB8405A3EB450302F8013B401C24B286
:1024A000002CF1DC012806DC4AF02002652A04BF7A
:1024B000302201F8012B48B9302001F8010B07E068
:1024C000401E1DF80020303201F8012B0028F7DCF7
:1024D000F068B2691044091AF16196F8380000F00A
:1024E000140010280DD17169B0694118706A411843
:1024F000F0694118B06A4118706B8142BCBF411A43
:10250000316204B0BDE8F087F8B505460E461746BF
:102510001C46002074B117F8011BB068A847B060D2
:1025200030B1F06A401CF0620020641EF3D1F2BDAD
:102530004FF0FF30F2BD00007072696E74665F7319
:102540003A20256E20646973616C6C6F7765640056
:102550007072696E74663A2062616420256E206133
:102560007267756D656E74007072696E74665F7304
:102570003A2062616420257320617267756D656E13
:10258000740000007072696E74665F733A20626155
:102590006420256C7320617267756D656E74000030
:1025A00000000000000000006E616E004E414E0011
:1025B000696E6600494E460030008268521C826097
:1025C000426832B10268531C036011704168491EB1
:1025D00041607047613807E005E0A0F161011A2908
:1025E00001D20120704741381A288041C00F70473E
:1025F000A0F10901052901D3202801D1012070474C
:10260000002070471A48704730B45368D418042B20
:1026100009DA41B1057804F8015B10F8015B15B1E6
:102620005B1C491EF3E7536030BC704738B5144655
:102630001D4661B1FFF7E8FF61686A6B204690476D
:102640006FF00102811A02D0491E03D005E06FF03D
:10265000010032BD4FF0FF3032BD0021616032BD5C
:10266000DA6B1047024BE1E7014BF9E7014870478D
:1026700060000020280000200278C9B28A421AB106
:102680001CBF10F8012FF9E718BF002070470102A6
:1026900080B500B906A005490B681BB122220021B4
:1026A000984701E0FEF78CFF222002BD980700202A
:1026B000636F6E73747261696E742068616E646CAE
:1026C00065723A20626164206D65737361676500AD
:1026D00000F10103810704D010F8011B89B18107C3
:1026E000FAD10268B2F10131914311F0803F04BF89
:1026F00050F8042FF6E710F8011B11B110F8011B78
:10270000FBE7C01A70470000C9B2830706D0521E0B
:1027100022D310F8013B9942F7D11FE0083A13D3B6
:1027200002F1040241EA012141EA014150F8043B6F
:10273000121F21BF4B40A3F1013C2CEA030C1CF0FB
:10274000803FF3D0C9B2001F083210F8013B521E7F
:1027500028BF91EA030FF8D818BF0120401E704728
:1027600080B5FFF74FFF006C02BD000062B38B071E
:1027700008D0521E11F8013B00F8013B00F0248004
:102780008B07F6D1830740F0208000BF103A07D3B3
:1027900030B4B1E83810103AA0E83810F9D230BCA3
:1027A000530724BFB1E80810A0E8081044BF51F84F
:1027B000043B40F8043BD20724BF31F8022B20F839
:1027C000022B44BF0B7803707047121F17D35B00B6
:1027D00009D151F8043B20F8023B1B0C121F20F8D2
:1027E000023BF6D20BE051F8043B00F8013B1B0A18
:1027F00020F8023B1B0C121F00F8013BF3D238BF3C
:10280000121D521E24BF11F8013B00F8013BF8D8FD
:1028100070470000B3BBD9B1B2F5803F7DD2022A28
:102820001ED98C46B1FBF2F102FB11C31B0443EA33
:102830001043B3FBF2FC02FB1C3380B240EA0343BB
:10284000B3FBF2F002FB103240EA0C400023704769
:10285000022A05D98446B0FBF2F002FB10C2704791
:102860004AB105D100F0010249085FEA3000704723
:1028700000220023704700F0A5BC0B0002000021DD
:1028800000207047904271EB030CF6D3B3F5803F04
:102890002FD2F0B5B3FA83F7B1FA81F4A7F10F0E96
:1028A0003D1B5340CEF1200602FA0EF2F341534095
:1028B000B5F10F0746D80F3C2C444140C4F1200627
:1028C000A040F1414140B1FBF3F603FB1611A2FB1E
:1028D0000645001BA94102D2761E8018594180EAA4
:1028E000010221FA0EF362FA0EF200215A4030463C
:1028F000F0BD30B4B1FBF3FC03FB1C11A2FB0C4593
:10290000001BA94103D2ACF1010C8018594130BC25
:1029100002460B46604600217047B2F1807F65D3C6
:10292000F0B5B2FA82F7B1FA81F4C7F10F063D1B98
:1029300022FA06F307F1110EF24120355A40B5F1A3
:102940000F07B8D94140C4F12006A040F1414140F1
:10295000B1FBF3FC03FB1C11A2FB0C45001BA941BE
:1029600003D2BCF1010C801859410F2F12D30F3F35
:10297000C90341EA5041B1FBF3F603FB1611A2FB78
:102980000645D4EBC030A94102D2761E80185941C9
:1029900046EACC3C07B34140C7F12006B840F141BC
:1029A0004140B1FBF3F603FB1611A2FB0645001BE9
:1029B000A94102D2761E8018594180EA010221FA0B
:1029C0000EF3C7F1200462FA0EF20CFA07F05A4037
:1029D0002CFA04F13043F0BD80EA010221FA0EF333
:1029E000002162FA0EF260465A40F0BD8C46B1FBFF
:1029F000F2F102FB11C31B0243EA1063B3FBF2FCCA
:102A000002FB1C331B024CEA002043EA1063B3FBB9
:102A1000F2FC02FB1C331B024CEA002043EA106369
:102A2000B3FBF2FC02FB1C331B024CEA002043EA1E
:102A30001063B3FBF2FC02FB1C324CEA00200023C3
:102A400070470000B0B581EA030C0CF0004C40F276
:102A5000FF7515EA11541DBF15EA1357AC42AF427A
:102A600039E0E41923EA455343F48013C90241F0E5
:102A7000004141EA505EC7021100A7FB0202002894
:102A80004FF00000EEFB01204FF00001E3FB0721B7
:102A900018BF42F00102401800214941E3FB0E013A
:102AA000A4F580640F0302D252004041494154F121
:102AB00001046CDD470872F1004250F1000051EB57
:102AC0000451A1F580115CBF41EA0C01B0BD4CEA94
:102AD00005510020B0BD05EA1357AC4214BFAF4208
:102AE00041E050EA410E1CBF52EA430E02E061464B
:102AF0000020B0BD24423C441BD15FEA070EF6D053
:102B0000090302BF01460020AEF1140EB1FA81F7AD
:102B1000AEEB070401FA07FE0C37C7F1200100FAFB
:102B200007F7C8404EEA000E23EA455343F48013EA
:102B3000A2E733F00043B3FA83F704BFB2FA82FE90
:102B400077440B3FE41BB7F1200E2FBF02FA0EF3C0
:102B5000BB40C7F1200E22FA0EFE38BF43EA0E0337
:102B6000BA40641C82E750EA410E14BF52EA430E99
:102B70006FF000014FF4001717EB430F8ABF19469F
:102B800017EB410FB5E74CEA05510020B0BDD4F179
:102B90000104B4F120070FDAC4F12007520828BF5E
:102BA00042F0010210FA07F501FA07F7E1BF2A43E4
:102BB000E0403843E1400FE0352C98DCC7F12004B9
:102BC00052EA400220FA07F218BF42F0010231FA3D
:102BD00007F0A1400A43002172F1004250F10000C9
:102BE00051EB0C01B0BD000010B5144600F002F826
:102BF000226010BDC1F30A5343B14A0012F5001F11
:102C000028D2A3F2FE32A1EB0251704750EA410CE8
:102C100020D001F0004C31EA0C01B1FA81F204BF7E
:102C2000B0FA80F3D2180B3AB2F120032CBF00FAAD
:102C300003F1914041EA0C013EBFC2F1200C20FAA1
:102C40000CF319439040524240F2FD33D21A01EB8B
:102C500003517047002270474FF4001C1CEB410FDA
:102C600094BF1CEB430F09E041EA030C50EA4C0C03
:102C700052EA0C0C03D2994208BF9042704714BF2D
:102C80008B428242704700004FF4001C1CEB410F46
:102C900094BF1CEB430F09E041EA030C50EA4C0CD3
:102CA00052EA0C0C03D28B4208BF8242704714BF19
:102CB0009942904270470000124254D440F2FF7C87
:102CC0001CEA11530FD0634531D09B1863453CBFBC
:102CD00001EB0251704701F0004141EA0C51002024
:102CE000AFF30080704750EA410320D001F0004C60
:102CF00091EA0C011CD0B1FA81F30B3B9A420DD939
:102D0000D21A994051EA0C01C3F1200C20FA0CFCB4
:102D100061449840531C40F2FF7CD7E7914041EA60
:102D20000C01C2F1200C20FA0CF3194390407047BB
:102D3000B0FA80F31533202BE0D3202AEED3203ACB
:102D4000203B9A4209D9D21A00FA03F141EA0C0158
:102D50000020531C40F2FF7CB8E700FA02F141EA80
:102D60000C0100207047524240F2FF7C1CEA1153D4
:102D70000DD06345DBD0B2EB030C3CBFA1EB02519D
:102D800070470CF1010221EA035141F4801150EA2D
:102D9000410CCCD001F0004C352A27DC30B481EA5C
:102DA0000C01B2F1200309DAC2F12003044601FA52
:102DB00003F5D0402843D1409C400CE0C3F12002F1
:102DC000450020FA03F418BF44F0010421FA03F08F
:102DD00091400C43002174F1004550F1000051EB8B
:102DE0000C01244230BC7FF47BAF70476146002069
:102DF00076E70000C1F30A5340F2FE329B1A14DD5D
:102E0000D3F120034FEAE17208DDC90241EA5051D3
:102E100041F00040D84080185040704703F2E13044
:102E200010B1D24382F0004070470020704700008C
:102E3000C11768B14840401AB0FA80F29040D21CE5
:102E4000C907C2F5846241EA025202EBD021400573
:102E50007047000070B44FF0004591EA030F40F155
:102E6000BB816B40841A71EB030603D2001BB14196
:102E7000121973414FF4001C1CEB410F34BF7CEB63
:102E8000430442E00C0DA4EB1356352E4FDC45EA0B
:102E9000C323DB0A45EAC121C912B6F120050DDDC5
:102EA00063FA05F6EB4086EA0305124218BF45F0C7
:102EB0000105C01851F100010CD213E062FA06F5C9
:102EC000F2405540F3415A40B340F3405A40801815
:102ED000594107D349085FEA30005FEA350528BF4A
:102EE00045F0010501F58011420875F1004250F1ED
:102EF000000041EB04514E0016F5001F70BC38BFB6
:102F000070470020090D090570471CEB410F10D2D6
:102F100052EA43060BD0BCEB410F05D80C0DAB4376
:102F2000661E342EB6DD02E0AB438018594170BCFA
:102F3000704770BC70470000F0B540F2FF7581EA41
:102F4000030C0CF0004C15EA11541DBF15EA135781
:102F5000AC42AF42E5E0BC41C1F31301C3F313033C
:102F6000801A994143F4801304D2641E4000494101
:102F700080185941C90241EA5051B1FBF3F603FBF5
:102F80001611A2FB0675D7EBC020A94102D2761E0E
:102F900080185941C90241EA5051B1FBF3FE03FBCD
:102FA0001E11A2FB0E75D7EBC020A94103D2AEF1D2
:102FB000010E80185941890241EA9051760546EA8E
:102FC0008E2EB1FBF3F603FB1611A2FB0675D7EBB1
:102FD0008020A94102D2761E80185941C90241EAD7
:102FE00050514EEA060EB1FBF3F603FB1611A2FB9D
:102FF0000675D7EBC020A94102D2761E8018594130
:10300000C90241EA5051B1FBF3F703FB1711A2FBD0
:103010000735D3EBC020A94167F100070CBF004280
:1030200047F0010766F3D5274FEA1E31B80814F5BB
:10303000806412DDBD0775F1004250EB0E5051EB7C
:10304000045111F5801F5CBF41EA0C01F0BD4CF04A
:103050007F6141F0E0410020F0BDBD076D0840EA0E
:103060000E5041F48011D4F10104B4F120060ADAC3
:10307000C4F120060200E04001FA06F3E1401843E3
:10308000B24015430EE0342C13DCC6F1200445EAAF
:1030900040056D0820FA06F2154321FA06F0A1401A
:1030A0000D43002175F1004250F1000051EB0C017D
:1030B000F0BD00205FEA0C01F0BDCFB992185B4172
:1030C000B3FA83F704BFB2FA82F6BF190B3FB7F128
:1030D00020062FBF02FA06F3BB40C7F1200622FAF2
:1030E00006F638BF3343BA401CB1E419641E33E717
:1030F0007F4231F00041B1FA81F404BFB0FA80F6AA
:10310000A4190B3CB4F120062FBF00FA06F1A14030
:10311000C4F1200620FA06F638BF3143A0403C1B1C
:103120001AE7AC421ABF05EA1357AF4212E050EA61
:1031300041061CBF52EA4306BFE750EA410730464A
:1031400061461CBF41EA0551F0BD52EA430C08BF7D
:10315000C143F0BD00204FF4001616EB410F98BF9D
:1031600016EB430F08BF16EB410F24BFC14305E028
:1031700016EB430F0CBF61464CEA0551F0BD000051
:10318000400D491840EA81200CD2490DA1F580611B
:10319000491C40F0004005DBD1F11F0154BFC8407D
:1031A000C017704700207047014648B1B0FA80F15F
:1031B0008840C91CC1F58461090501EBD021400597
:1031C000704700007047000070B44FF0004591EA6E
:1031D000030F7FF547AE6B40841A71EB030604D2F0
:1031E0006E40001BB141121973414FF4001C1CEBDF
:1031F000410F34BF7CEB430682E00C0DA4EB135669
:10320000362E7BDC012E45EAC32341DC43EA5253D0
:1032100012BFD20292025B08240545EAC12141EAAD
:103220005051D2EBC020994125D407D1B0FA80F695
:1032300010FA06F162D00020203608E0B1FA81F6DB
:10324000B140C6F1200220FA02F21143B0404FEA29
:10325000F474B4EB465434F001064FEA74040AD80F
:10326000D6F50016760D04F00044F04061FA06F23F
:103270005040F1404840C00A40EA415021F000412E
:1032800028BF5FEA500550F1000044EBD12135E042
:10329000DB0A45EAC121C90AB6F120050EDD42EA82
:1032A0000242120CC5F1200603FA06F6EB4042EA90
:1032B00006056D42984161F100010DE062FA06F5E4
:1032C000F240554063FA06FC82EA0C02F3405A4091
:1032D0006D42904161EB030111F4801F05D1641E22
:1032E000620502D06D004041494121F4801143083C
:1032F00075F1004350F1000041EB045170BC704780
:103300001CEB410F15D223F0004352EA43060BD0C9
:103310004FEA4C0CBCEB410F04D80C0D661E342E4A
:10332000B7DDEBE7801A994150EA410608BF00215A
:10333000E4E708BF1CEB430F28BF6FF00001DDE797
:1033400070B50400002C01D10120D9E094F83D00B3
:10335000002805D1002084F83C00200000F089FD01
:10336000242084F83D00206800684008400021685F
:10337000086001F0FAF801006068DFF8F825904273
:1033800008D2DFF8F405814201D2012000E00020DC
:10339000C0B207E0DFF8E405814201D2012000E07D
:1033A0000020C0B2012801D10120A9E0DFF8D0053A
:1033B000B1FBF0F220684068800980011043236867
:1033C00058602068006A6368DFF8A855AB4201D2F4
:1033D000531C08E04FF4967303FB02F34FF47A7525
:1033E000B3FBF5F35B1C8009800118432368186266
:1033F0002068C3696068DFF87C55A84214D2481E73
:1034000065686D00B0FBF5F0401C0005000D042858
:1034100001D204253EE0481E65686D00B0FBF5F55D
:103420006D1C2D052D0D35E0A068002809D14D1E1D
:10343000666803204643B5FBF6F0401C0005000D0E
:103440000AE04D1E666819204643B5FBF6F0401CA5
:103450000005000D50F48040000501D1012519E060
:10346000A068002809D14D1E666803204643B5FBBD
:10347000F6F56D1C2D052D0D0AE04D1E6668192010
:103480004643B5FBF6F56D1C2D052D0D55F4804515
:1034900055F40045DFF8EC0403402B432068C3617A
:1034A0002068036833F0C003E0690343206A0343E4
:1034B0002068036020688368DFF8CC04034020693B
:1034C0000343E0680343206883602068C3681B0AE5
:1034D0001B02A569606905432B432068C36020680F
:1034E000006850F00100236818600020206420204C
:1034F00084F83D0000202063002084F83E00002076
:1035000070BD2DE9F84304000D0016001F00DDF822
:10351000208001F079F8814694F83D00202840F0A1
:10352000A280CDF8009019230122DFF8601420005A
:1035300000F02AFB002801D0022095E094F83C001E
:10354000012801D102208FE0012084F83C0020688E
:103550000068C00705D42068006850F001002168A9
:1035600008602068006830F400602168086021204D
:1035700084F83D00102084F83E000020206466623C
:103580006785608D2085DFF80804E0624B4642467F
:10359000290089B2200000F0FFF9002801D00120A5
:1035A00062E00020009020684069009020688069F7
:1035B00000900098208D002844D04A4641462000C3
:1035C00000F084FB00280AD0206C042805D1206874
:1035D000006850F4007021680860012044E0606ACF
:1035E000007821680861606A401C6062608D401E3E
:1035F0006085208D401E20852068406940070FD5DA
:10360000208D00280CD0606A007821680861606A0B
:10361000401C6062608D401E6085208D401E2085AC
:103620004A464146200000F07DFB0028C2D0206CB5
:10363000042805D12068006850F4007021680860F3
:10364000012011E02068006850F4007021680860D3
:10365000202084F83D00002084F83E00002084F8FB
:103660003C00002000E00220BDE8F2832DE9F84391
:1036700004000D0016001F00DDF8208000F0C4FFDC
:10368000814694F83D00202840F07181CDF80090EB
:1036900019230122DFF8F412200000F075FA002847
:1036A00001D0022064E194F83C00012801D10220FD
:1036B0005EE1012084F83C0020680068C00705D462
:1036C0002068006850F001002168086020680068E8
:1036D00030F4006021680860222084F83D0010204A
:1036E00084F83E000020206466626785608D208536
:1036F000DFF89C02E0624B464246290089B2200076
:1037000000F0A8F9002801D0012031E1208D002827
:103710000FD10020009020684069009020688069E7
:10372000009000982068006850F4007021680860DC
:1037300044E0208D012817D12068006830F48060B3
:103740002168086072B600200090206840690090EF
:1037500020688069009000982068006850F400702C
:103760002168086062B629E0208D022817D1206800
:10377000006850F400602168086072B60020009074
:103780002068406900902068806900900098206857
:10379000006830F480602168086062B60EE020683E
:1037A000006850F480602168086000200090206864
:1037B000406900902068806900900098208D002862
:1037C00000F0CA80208D042880F09D80208D012883
:1037D00016D14A464146200000F0D0FA002801D018
:1037E0000120C5E020680069616A0870606A401CB9
:1037F0006062208D401E2085608D401E6085DDE763
:10380000208D02282FD1CDF8009043460022DFF80A
:103810008411200000F0B8F9002801D00120A7E0B1
:1038200072B62068006850F4007021680860206853
:103830000069616A0870606A401C6062208D401EE9
:103840002085608D401E608562B620680069616ACF
:103850000870606A401C6062208D401E2085608D6B
:10386000401E6085AAE7CDF8009043460022DFF8AD
:103870002411200000F088F9002801D0012077E011
:103880002068006830F480602168086072B62068A3
:103890000069616A0870606A401C6062208D401E89
:1038A0002085608D401E6085CDF800904346002243
:1038B000DFF8E010200000F067F9002801D00120B7
:1038C00056E02068006850F40070216808602068A5
:1038D0000069616A0870606A401C6062208D401E49
:1038E0002085608D401E608562B620680069616A2F
:1038F0000870606A401C6062208D401E2085608DCB
:10390000401E60855AE74A464146200000F036FADC
:10391000002801D001202BE020680069616A08704E
:10392000606A401C6062208D401E2085608D401EB4
:1039300060852068406940077FF540AF20680069D6
:10394000616A0870606A401C6062208D401E20859C
:10395000608D401E608531E7202084F83D00002006
:1039600084F83E00002084F83C00002000E00220A3
:10397000BDE8F283A186010080841E0000093D009D
:1039800040420F000030FFFF007CFFFF02001000EC
:103990000000FFFF040001002DE9FC4104000D00C0
:1039A00016001F00D4F82C80B8F1080F05D0B8F12C
:1039B000010F02D02648804506D12068006850F4E7
:1039C00080702168086008E0206B122805D120680B
:1039D000006850F48070216808600097330000226E
:1039E0005FF00111200000F0CFF8002801D0012085
:1039F0002CE02069B0F5804F04D115F0FE0021685D
:103A0000086117E015F4407080B2C00950F0F00072
:103A1000C0B2216808613B003200DFF8601120006D
:103A200000F0F7F8002801D001200FE02800C0B214
:103A3000216808613B003200DFF84411200000F0EB
:103A4000E8F8002801D0012000E00020BDE8F68160
:103A50000000FFFF2DE9FC4104000D0016001F00CF
:103A6000D4F82C802068006850F4806021680860D9
:103A7000B8F1080F06D0B8F1010F03D0DFF8040148
:103A8000804506D12068006850F480702168086085
:103A900008E0206B112805D12068006850F4807080
:103AA000216808600097330000225FF001112000B8
:103AB00000F06AF8002801D001205CE02069B0F530
:103AC000804F05D155F00100C0B22168086146E081
:103AD00015F4407080B2C00950F0F000C0B2216807
:103AE00008613B003200DFF89410200000F091F8EC
:103AF000002801D001203EE02800C0B22168086102
:103B00003B003200DFF87810200000F082F8002837
:103B100001D001202FE00020009020684069009033
:103B200020688069009000982068006850F48070D8
:103B3000216808600097330000225FF00111200027
:103B400000F022F8002801D0012014E015F44070A4
:103B500080B2C00950F0F100C0B2216808613B009A
:103B60003200DFF81C10200000F053F8002801D0CC
:103B7000012000E00020BDE8F681000008000100FF
:103B8000020001000000FFFF2DE9F04105000E00DA
:103B900017001C00DDF818803000000CC0B20128AE
:103BA0000AD128684069304080B2B1B2884201D160
:103BB00001200BE0002009E028688069304080B2D5
:103BC000B1B2884201D1012000E000203900C9B221
:103BD00088421BD114F1010FDED000F015FDB0EBCF
:103BE0000800844201D3002CD6D100202863202075
:103BF00085F83D00002085F83E00286C50F020003C
:103C00002864002085F83C00012000E00020BDE889
:103C1000F081F8B505000E0014001F003000000C04
:103C2000C0B201280AD128684069304080B2B1B2E0
:103C3000884201D101200BE0002009E0286880695A
:103C4000304080B2B1B2884201D1012000E00020B2
:103C5000002839D12868406940051AD528680068CD
:103C600050F40070296808607FF48060296848611A
:103C700000202863202085F83D00002085F83E00C4
:103C8000286C50F004002864002085F83C000120D6
:103C90001BE014F1010FC1D000F0B6FCC01B844240
:103CA00001D3002CBAD100202863202085F83D00E4
:103CB000002085F83E00286C50F020002864002089
:103CC00085F83C00012000E00020F2BD70B5050041
:103CD0000C00160028684069000621D4280000F076
:103CE00086F8002801D001201BE014F1010FF1D06B
:103CF00000F08AFC801B844201D3002CEAD1002012
:103D00002863202085F83D00002085F83E00286CBF
:103D100050F020002864002085F83C00012000E0DD
:103D2000002070BD70B505000C00160028684069C1
:103D3000400721D4280000F05AF8002801D00120C3
:103D40001BE014F1010FF1D000F05EFC801B8442F7
:103D500001D3002CEAD100202863202085F83D0003
:103D6000002085F83E00286C50F0200028640020D8
:103D700085F83C00012000E0002070BD70B5050012
:103D80000C0016002868406940062ED42868406957
:103D9000C00612D57FF01000296848610020286312
:103DA000202085F83D00002085F83E00286C28641E
:103DB000002085F83C00012018E000F025FC801B65
:103DC000844201D3002CDDD100202863202085F817
:103DD0003D00002085F83E00286C50F0200028644B
:103DE000002085F83C00012000E0002070BD0100AB
:103DF00008684069400514D57FF480600A68506106
:103E000000200863202081F83D00002081F83E005A
:103E1000086C50F004000864002081F83C00012088
:103E200000E000207047000080B52E482E49086051
:103E30002E482D49486000202B49886000202A49DF
:103E4000C8604FF480402849086100202649486135
:103E500000202549886100202349C86100202249AB
:103E600008622148FFF76CFA002801D000F099FCA5
:103E700001BD18B585B0040001A8102100F092FC26
:103E80002068184988422AD11948006850F0080073
:103E9000174908601648006810F008000090009864
:103EA0004FF440700190122002900320049001A969
:103EB000104800F07BFC1048006850F0E06050F0C3
:103EC00002000D4908600D48006850F400100B49CD
:103ED00008600A48006810F400100090009806B0CE
:103EE00010BD000000540040D8040020A08601004E
:103EF00018100240000C0140040001401C10024058
:103F0000F8B50400002C01D1012039E22078C00767
:103F100040F18480DFF8AC06006810F00C00042843
:103F20000BD0DFF8A006006810F00C0008280ED1B6
:103F3000DFF890060068C00309D5DFF88406006842
:103F400080036BD56068002868D1012018E26068A2
:103F5000B0F5803F08D1DFF86806006850F4803083
:103F6000DFF85C16086038E06068002810D1DFF8E0
:103F70005006006830F48030DFF844160860DFF83F
:103F80004006006830F48020DFF83416086024E032
:103F90006068B0F5A02F10D1DFF82406006850F457
:103FA0008020DFF81C160860DFF81406006850F463
:103FB0008030DFF80C1608600FE0DFF804060068B8
:103FC00030F48030DFF8F8150860DFF8F405006899
:103FD00030F48020DFF8E8150860606800280ED013
:103FE00000F012FB0500DFF8D8050068800315D447
:103FF00000F00AFB401B6528F5D30320C0E100F068
:1040000003FB0500DFF8B8050068800306D500F063
:10401000FBFA401B6528F5D30320B1E12078800727
:104020005CD5DFF8A005006810F00C0F0BD0DFF8AE
:104030009405006810F00C0008281AD1DFF88405F8
:104040000068C00315D4DFF878050068800704D540
:104050002069012801D0012092E1DFF864050068A1
:1040600030F0F800616950EAC100DFF854150860CB
:1040700034E0206900281ED00120DFF85C150860BC
:1040800000F0C2FA0500DFF838050068800706D4A2
:1040900000F0BAFA401B0328F5D3032070E1DFF8E3
:1040A0002005006830F0F800616950EAC100DFF8CF
:1040B0001015086012E00020DFF81C15086000F001
:1040C000A3FA0500DFF8F8040068800706D500F0C1
:1040D0009BFA401B0328F5D3032051E12078000709
:1040E0002CD5A069002816D00120DFF8F014086054
:1040F00000F08AFA0500DFF8DC040068800706D4C7
:1041000000F082FA401B0328F5D3032038E1012098
:1041100000F041FA12E00020DFF8C014086000F05F
:1041200073FA0500DFF8AC040068800706D500F0DC
:104130006BFA401B0328F5D3032021E120784007C8
:1041400040F1A8800027DFF898040068C00010D470
:10415000DFF88C04006850F08050DFF884140860A9
:10416000DFF87C04006810F0805000900098012077
:104170000700DFF870040068C00516D4DFF8640497
:10418000006850F48070DFF85C14086000F03CFABE
:104190000500DFF850040068C00506D400F034FACA
:1041A000401B6528F5D30320EAE0E068012808D128
:1041B000DFF83404006850F00100DFF82C140860C8
:1041C00037E0E068002810D1DFF81C0400684008E0
:1041D0004000DFF814140860DFF80C04006830F0C9
:1041E0000400DFF80414086023E0E068052810D11B
:1041F000DFF8F403006850F00400DFF8EC13086007
:10420000DFF8E403006850F00100DFF8DC13086019
:104210000FE0DFF8D403006840084000DFF8C8135F
:104220000860DFF8C403006830F00400DFF8B8135A
:104230000860E068002810D000F0E6F90500DFF81B
:10424000A8030068800719D400F0DEF9401B41F292
:1042500089318842F3D3032092E000F0D5F90500BC
:10426000DFF884030068800708D500F0CDF9401B13
:1042700041F289318842F3D3032081E03800C0B293
:10428000012807D1DFF85803006830F08050DFF8CC
:1042900050130860E069002871D0DFF82803006837
:1042A00010F00C00082855D0E06902283FD100200A
:1042B000DFF83813086000F0A7F90700DFF8000303
:1042C0000068800106D500F09FF9C01B0328F5D3D4
:1042D000032055E0206AB0F5803F09D1DFF8E40201
:1042E000016831F40031A0680143DFF8D8020160B1
:1042F000DFF8D002016831F47411206A0143606A6A
:104300000143DFF8C00201600120DFF8E01208601D
:1043100000F07AF90500DFF8A802006880012ED4C9
:1043200000F072F9401B0328F5D3032028E0002099
:10433000DFF8B812086000F067F90500DFF88002C6
:10434000006880011BD500F05FF9401B0328F5D3FE
:10435000032015E0E069012801D1012010E0DFF819
:1043600064020068060016F48030216A884204D195
:1043700016F47010616A884201D0012000E000202C
:10438000F2BD70B504000D00002C01D10120AFE09A
:10439000DFF85C02006810F00700A84211D2DFF8D5
:1043A00050020068C008C0002843DFF844120860CB
:1043B000DFF83C02006810F00700A84201D001209D
:1043C00096E0207880071FD52078400707D5DFF8D2
:1043D000F401006850F4E060DFF8E811086020782C
:1043E000000707D5DFF8DC01006850F46050DFF803
:1043F000D4110860DFF8CC01016831F0F001A06849
:104400000143DFF8C00101602078C00734D560683F
:10441000012806D1DFF8A8010068800310D401202C
:1044200066E06068022805D165480068800107D40D
:1044300001205DE062480068800701D4012057E058
:104440006048016889088900606801435D4801602F
:1044500000F0DAF806005B48006810F00C006168B4
:10446000B0EB810F08D000F0CFF8801B41F289310A
:104470008842F0D303203BE05D48006810F007005D
:1044800085420ED25A480068C008C00028435849E7
:1044900008605748006810F00700A84201D00120CA
:1044A00026E02078400707D54648016831F4E061EE
:1044B000E0680143434801602078000708D541487F
:1044C000006830F46050216950EAC1003D4908603D
:1044D00000F00FF847493B4A1268C2F30312895CA7
:1044E000C8403A4908603A48006800F0ABFA00203A
:1044F00070BD78B585B001A83F491022FEF746F996
:104500003E480088ADF80000002000210022002372
:1045100000242C4D2D6815F00C06042E02D0082E18
:1045200002D01CE028481BE001A8C5F38346805D4B
:104530000300E8030DD56846224E3668C6F34046B0
:10454000805D0100204800FB03F0B0FBF1F00200A9
:1045500003E02B4800FB03F00200100000E01A48C3
:1045600006B070BD19480068704780B5FFF7FAFFC4
:104570002449144A1268C2F30222895CC84002BD71
:1045800080B5FFF7EFFF1F490E4A1268C2F3C2223F
:10459000895CC84002BD81B00C490968C9084FF464
:1045A0007A72B1FBF2F101FB00F1009100BF0099BA
:1045B0004A1E00920029F9D101B0704700000000A6
:1045C000001002400410024000127A002400002073
:1045D0002000002024100240000042428004424299
:1045E0001C10024000700040201002406000424257
:1045F00000200240DC920008CC9200088E260008C1
:1046000000093D004893000801480068704700BF5A
:1046100088070020F8B500F03BFA00F07FF800F0C2
:104620004BFA00F0A1FA00F0BFFAFFF7FDFB00F033
:1046300023FB00F095FB00F009FC00F060FC00F0AB
:1046400097FD2A4801904FF400700090284B4FF4DA
:1046500080722749274800F01FFE274800F01CFF02
:1046600000F0BAFF00F0F2FF0021244801F0E6F864
:104670000421224801F0E2F80821214801F0DEF887
:104680000C211F4801F0DAF84FF4004001901D485A
:1046900000904FF480731B4A01211B4801F064FB1A
:1046A00068461A491022FEF771F80F21684601F09A
:1046B000ECFB41F2883001F05FFC0222002114483B
:1046C00001F08FFC0021002000F0D6FF0021012026
:1046D00000F0D2FF0F4801F0B9FC0F480078002825
:1046E00001D001F018FD01F010FCF6E7293E0008AA
:1046F000000C0140D8040020E4060020F40500204E
:10470000340600200008014080040020AC9200081C
:1047100074060020BC920008A007002000B593B0EA
:1047200009A8282100F03EF86846142100F03AF864
:1047300005A8102100F036F80220099001200D9004
:1047400010200E9002201090002011905FF4601055
:10475000129009A8FFF7D4FB002801D000F021F83F
:104760000F20009002200190002002904FF4806002
:1047700003900020049002216846FFF702FE002803
:1047800001D000F00EF8022005904FF40040079091
:1047900005A801F0DBFC002801D000F002F813B0FE
:1047A00000BD7047002201F063BD00002DE9F84311
:1047B00002005FF0000E5FF00008086830FA0EF0AB
:1047C000002800F00481012010FA0EF003000868B0
:1047D000184004009C4240F0F7804868002831D01F
:1047E000012820D0022825D003283CD011281DD034
:1047F000122823D0DFF80CC2604523D0DFF808C2AE
:1048000060451FD0DFF804C260451BD0DFF800C24E
:10481000604517D0DFF8FCC1604513D0DFF8F8C160
:1048200060450FD022E0C86880461FE0C868001DC0
:1048300080461BE0C8680830804617E0C8680C3026
:10484000804613E08868002802D10420804609E0F1
:104850008868012803D108208046136102E00820FF
:104860008046536102E000208046FFE7B4F5807F78
:1048700001D2160000E0161DB4F5807F02D25FEA77
:104880008E0702E0BEF10807BF00D6F800C00F2077
:10489000B8403CEA000C18FA07F050EA0C0CC6F8D5
:1048A00000C04868C00040F18F805C48006850F04C
:1048B0000100DFF868C1CCF800005848006810F02B
:1048C0000100009000985648F4465FEA9C0C50F8AE
:1048D0002CC05FF00F091EF00300C0B2800019FA6F
:1048E00000F93CEA090C4F48824202D15FF000090E
:1048F00013E04D48824202D15FF001090DE04B48C0
:10490000824202D15FF0020907E04948824202D1A7
:104910005FF0030901E05FF0040965461EF0030043
:10492000C0B2800019FA00F959EA05053C48F4467E
:104930005FEA9C0C40F82C504868C00307D53D48FE
:1049400000682043DFF8ECC0CCF8000006E03948EE
:104950000068A043DFF8DCC0CCF8000048688003A2
:1049600007D5354800682043DFF8CCC0CCF80000FC
:1049700006E031480068A043DFF8BCC0CCF8000076
:104980004868C00207D52D4800682043DFF8ACC056
:10499000CCF8000006E029480068A043DFF89CC07E
:1049A000CCF800004868800207D5254800682043FD
:1049B000DFF88CC0CCF8000006E021480068A04376
:1049C000DFF87CC0CCF800001EF1010EF5E6BDE872
:1049D000F183020090680B009BB2184201D00120C5
:1049E00000E00020C0B270471300DBB2002B03D000
:1049F0000B009BB2036103E00B009BB21B0403613D
:104A0000704700000000111000001210000021107B
:104A10000000221000003110000032101810024077
:104A20000800014000080140000C01400010014056
:104A30000014014000040140040401400804014046
:104A40000C04014010B504004FF47A700D49097848
:104A5000B0FBF1F00C490968B1FBF0F001F0B5FCD6
:104A6000002801D001200CE0102C09D200222100E6
:104A70005FF0FF3001F08DFC04480460002000E08E
:104A8000012010BDA80000202400002020000020EC
:104A900080B50848006850F01000064908600320FF
:104AA00001F071FC0020FFF7CDFF01F0A5FC002014
:104AB00002BD00000020024000B585B0684610210C
:104AC000FFF770FE2448006850F004002249086097
:104AD0002148006810F00400049004981E48006803
:104AE00050F008001C4908601B48006810F00800DE
:104AF0000490049800224FF401411848FFF774FF16
:104B0000002208211648FFF76FFF4FF480500090F5
:104B1000144801900020029069461148FFF746FEB4
:104B20004FF40140009001200190002002900220EB
:104B3000039069460948FFF739FE082000900120DC
:104B40000190002002900220039069460448FFF77C
:104B50002DFE05B000BD00BF181002400008014046
:104B6000000C01400000111080B50E48006850F0A4
:104B700001000C4908600B48006810F0010000902B
:104B80000098002200210E2001F003FC0E2001F00D
:104B900015FC002200210F2001F0FBFB0F2001F08B
:104BA0000DFC01BD14100240E0B568460021002252
:104BB000002380E80E002C482C49086000202B4977
:104BC00088600020294908730020284908755FF48F
:104BD00060202649C86100202449486001202349FB
:104BE0000861224801F032FC002801D0FFF7D9FD0E
:104BF00003200090012001900320029069461B4889
:104C000001F0C6FC002801D0FFF7CBFD07BD18B5A9
:104C100085B0040001A81021FFF7C4FD20681249E7
:104C200088421FD11248006850F400701049086093
:104C30000F48006810F40070009000980C4800685D
:104C400050F004000A4908600948006810F00400A8
:104C500000900098082001900320029001A90548C7
:104C6000FFF7A4FD06B010BD00240140B4060020EB
:104C7000181002400008014080B5344834490860EB
:104C80004FF482703249486000203149886000202A
:104C90002F49C86000202E49086100202C49486136
:104CA0004FF400702A49886100202949C86100201A
:104CB000274908620020264948620020244988626A
:104CC0000A202349C862224801F03CFD002801D097
:104CD000FFF767FD01BD18B585B0040001A81021DC
:104CE000FFF760FD2068194988422DD119480068F6
:104CF00050F48040174908601648006810F480405E
:104D0000009000981448006850F0080012490860AC
:104D10001148006810F00800009000984FF42040FF
:104D20000190022002900320049001A90B48FFF794
:104D30003DFD4FF480400190002002900020039040
:104D400001A90648FFF732FD06B010BD003800404B
:104D5000800400201C10024018100240000C01408A
:104D600000B591B0DFF8B003D0E90023CDE900230E
:104D70000AA81C21FFF716FD02A82021FFF712FD4B
:104D8000DFF89803DFF8981308600020DFF890132D
:104D900048600020DFF8881388600020DFF8801367
:104DA000C8600020DFF8781308610020DFF8701376
:104DB00048610020DFF868138861DFF8640300F0C1
:104DC00021FD002801D0FFF7ECFC0020009000201E
:104DD00001906946DFF8480302F048F8002801D046
:104DE000FFF7DFFC60200A9000200B9000200C9061
:104DF00000200E9000200F90002010900C220AA995
:104E0000DFF81C0300F03EFD002801D0FFF7C9FCCD
:104E100000200290002003900020049000200590C4
:104E2000002006904FF4005007900020099002A93E
:104E3000DFF8EC0202F041F8002801D0FFF7B1FCE6
:104E4000DFF8DC0200F00DF911B000BD00B589B04B
:104E5000DFF8D002D0E90023CDE9002302A81C210D
:104E6000FFF7A0FC5FF08040DFF8BC12086009206B
:104E7000DFF8B41248600020DFF8AC12886043F617
:104E80007F60DFF8A412C8600020DFF89C12086180
:104E90000020DFF894128861DFF88C0200F0B2FC89
:104EA000002801D0FFF77DFC002000900020019039
:104EB00069469D4801F0DAFF002801D0FFF771FC38
:104EC00060200290002003900020049000200690B3
:104ED000002202A9944800F0D5FC002801D0FFF779
:104EE00060FC042202A9904800F0CCFC002801D00C
:104EF000FFF757FC8C4800F0B4F809B000BD00B5CE
:104F000089B08A48D0E90023CDE9002302A81C21FA
:104F1000FFF748FC864887490860092085494860B2
:104F200000208449886043F67F608249C860002081
:104F30008049086100207F4988617E4800F062FC5A
:104F4000002801D0FFF72DFC0020009000200190E8
:104F50006946784801F08AFF002801D0FFF721FC5C
:104F60006020029000200390002004900020069012
:104F7000082202A96F4800F085FC002801D0FFF745
:104F800010FC0C2202A96B4800F07CFC002801D028
:104F9000FFF707FC674800F064F809B000BD1CB5D6
:104FA000040020685D49884239D16348006850F4A4
:104FB0000060614908606048006810F4006000907B
:104FC00000985E485E49086010205D4948600020F6
:104FD0005B49886080205A49C8604FF48070584906
:104FE00008614FF480605649486100205449886147
:104FF00000205349C861524801F08EFF002801D0BB
:10500000FFF7CFFB4E4820634D4844624C48A063F5
:105010004B4844624A4860634948446220E0206843
:10502000B0F1804F0CD14748006850F0010045496D
:1050300008604448006810F00100009000980FE0FC
:1050400020683B4988420BD13E48006850F002007E
:105050003C4908603B48006810F00200009000984E
:1050600013BD18B585B0040068461021FFF79AFB00
:1050700020682A49884217D12F48006850F0040060
:105080002D4908602C48006810F004000490049832
:105090004FF40060009002200190022003906946C6
:1050A0002948FFF783FB34E02068B0F1804F16D128
:1050B0002148006850F004001F4908601E4800683D
:1050C00010F0040004900498032000900220019046
:1050D0000220039069461C48FFF768FB19E020682E
:1050E0001349884215D11448006850F0080012494D
:1050F00008601148006810F008000490049803202C
:105100000090022001900220039069460F48FFF7AB
:105110004DFB06B010BD000050930008002C01406C
:10512000B405002058930008F4050020609300089F
:1051300000040040340600201810024044000240E1
:105140002C0500201C10024000080140000C01400A
:1051500070B403005C68641C00250800C0B200FB4A
:1051600002F02600F6B290FBF6F070BC704700002B
:1051700080B54348434908605FF4E13041494860E5
:1051800000204049886000203E49C86000203D4919
:1051900008610C203B49486100203A4988610020A1
:1051A0003849C861374802F097F8002801D0FFF766
:1051B000F8FA01BD18B585B0040001A81021FFF769
:1051C000F1FA20682E49884258D12F48006850F4DF
:1051D00080402D4908602C48006810F48040009001
:1051E00000982948006850F00400274908602648C4
:1051F000006810F00400009000984FF400700190D7
:10520000022002900320049001A92048FFF7CEFA63
:105210004FF480600190002002900020039001A9CB
:105220001A48FFF7C3FA1A481A49086000201949BA
:10523000486000201749886080201649C860002017
:105240001449086100201349486100201149886110
:1052500000201049C8610F4801F05EFE002801D00F
:10526000FFF79FFA0B4860630A484462002200215E
:10527000252001F08EF8252001F0A0F806B010BD21
:105280000038014074060020181002400008014058
:10529000580002407005002070B4039C049D5D4ED0
:1052A00030605D4E31605D4E32605D4E33605D4E0C
:1052B00034605D4E356070BC7047F3B581B004005A
:1052C00015001E000A200090012302AA2100C9B285
:1052D00089B250480068FEF714F907003800C0B2E0
:1052E000002802D03800C0B20BE00A200090330042
:1052F0009BB22A002100C9B289B246480068FEF775
:10530000B5F9FEBD2DE9FC4705000E0014001F0095
:10531000380080B2401CFBF77BFD8046B9461FFA7F
:1053200089F918F1010A4A4621005046FDF71EFA94
:1053300088F800600A2000907B1C9BB2424629003E
:10534000C9B289B233480068FEF7DBF882464046AE
:1053500002F082FC5046C0B2BDE8F687482202FB4C
:1053600000F211004A1E0029FBD170471FB52B48DF
:10537000006800901120019001200290032003900A
:10538000694625480068FFF711FA26480068009032
:10539000694623480068FFF709FA0024092C20DA3F
:1053A0002048016889B21E480068FFF712FB0128F7
:1053B00017D001221948016889B217480068FFF721
:1053C00013FB0A20FFF7CAFF00221448016889B2C4
:1053D00011480068FFF708FB0A20FFF7BFFF641CB5
:1053E000DCE701220F48016889B20D480068FFF729
:1053F000FBFA01220948016889B207480068FFF7F3
:10540000F3FA00200349096881F83D000648006866
:1054100080471FBD5C070020600700206807002050
:10542000640700206C0700207007002076B5040098
:105430000D00012301AA2900C9B2207D2668B047CA
:10544000E17DC0B2884202D0200000F001F873BDB7
:1054500010B50400208B401C2083208B152803DB13
:10546000A06880470020208310BD7CB504000D009B
:1054700000208DF8000001236A462900C9B2207D72
:105480006668B047E17DC0B2884202D02000FFF7D5
:10549000DFFF9DF8000076BD10B50400D020207518
:1054A00043486060434820604348E0600020E07566
:1054B0004248A060404820614148E0611820607582
:1054C0001820E16948700120E16988700820E169CD
:1054D00008703220E168884701226B212000FFF725
:1054E000A5FF002219212000FFF7A0FF02221A21A8
:1054F0002000FFF79BFFE06902781B212000FFF7E7
:1055000095FFE06942781C212000FFF78FFFE069DA
:1055100082781D212000FFF789FF2A48E169C860D1
:10552000022237212000FFF781FF3220E1688847FF
:10553000E0690078002806D0082808D010280AD092
:1055400018280CD00EE02048E16948600AE01F48A6
:10555000E169486006E01E48E169486002E01D48D4
:10556000E1694860E0694078002806D0082808D042
:1055700010280AD018280CD00EE00220E16908811A
:105580000AE00420E169088106E00820E169088159
:1055900002E01020E169088175212000FFF765FF16
:1055A000A075A07D112802D0A068804791E710BDAA
:1055B000BB52000805530008795F00086D530008CE
:1055C0003C070020E17A444200007A430000FA439D
:1055D00000007A440000FA4400200021DFF8E021B6
:1055E0001268B2F57A72DFF8D8311B68D3F5FA6326
:1055F0009A4205DADFF8C8010068B0F57A7004E075
:10560000DFF8BC010068D0F5FA60DFF8B821126855
:10561000B2F57A72DFF8AC311B68D3F5FA639A42BF
:1056200005DADFF8A0110968B1F57A7104E0DFF856
:1056300094110968D1F5FA61884203DADFF888210C
:10564000106002E0DFF880211160704780B54FF4F0
:105650007A724021DFF87401FFF77AFDDFF87011EC
:1056600008604FF47A724021DFF86001FFF770FDA7
:10567000DFF86011086001BD70B505000C00200066
:10568000DFF8541102F0EAFA03D8DFF85001040001
:1056900008E02000DFF8481102F0F2FA02D2DFF849
:1056A000400104002000DFF8341102F0FBFA06008C
:1056B000DFF81401006802F073FB310002F082FB96
:1056C00002F0ECFB06002800C0B2002802D001283E
:1056D0000DD01BE0DFF8E8000268B2184021DFF8C7
:1056E0000401FFF735FDDFF8001108600EE0DFF878
:1056F000D40002685FF0FF3000FB06224021DFF893
:10570000E400FFF725FDDFF8E410086070BD38B550
:1057100004000D002800DFF8D81002F09FFA02D82C
:10572000DFF8D00005002000C0B2002802D0012818
:1057300015D026E0DFF8C000290002F043FBDFF8B7
:10574000BC1002F0C1FB02F0A9FB02004021DFF80F
:105750007C00FFF7FDFCDFF87810086011E0DFF84F
:105760009800290002F02EFBDFF8901002F0ACFB4D
:1057700002F094FB020040211448FFF7E9FC1549B0
:10578000086031BD2DE9FC4104000D000020ADF89A
:1057900000000A2D11D1022614F10807E846320054
:1057A00039004046FCF7E2FFBDF80000800404D059
:1057B000BDF80010124800F049FCBDE8F38100007C
:1057C00000000020040000205807002034060020BC
:1057D000400400403C0400400100344200003442D8
:1057E000000034C2F40500203800004034000040BE
:1057F0000100C8420000C8420000204100007A4475
:105800004093000810B50400002C01D1012014E0E1
:1058100094F83D00002805D1002084F83C002000C9
:10582000FFF7BDFB022084F83D00211D206800F039
:10583000A9F8012084F83D00002010BD38B504000F
:105840000D0001222900206800F088F92068DFF8A7
:105850003010884205D12068406C50F40040216827
:1058600048642068816811F00701062905D0206886
:10587000006850F0010022681060002032BD000076
:10588000002C014070B504000D00160094F83C0097
:10589000012801D1022074E0012084F83C0002209C
:1058A00084F83D003000002806D004281BD00828CA
:1058B00031D00C2846D05DE02900206800F094F833
:1058C0002068806950F0080021688861206880693C
:1058D00030F00400216888612068816928690143EB
:1058E0002068816146E02900206800F0AAF820685D
:1058F000806950F40060216888612068806930F414
:1059000080602168886120688069296950EA0120E7
:10591000216888612EE02900206800F0C4F8206822
:10592000C06950F008002168C8612068C06930F083
:1059300004002168C8612068C169286901432068A2
:10594000C16117E02900206800F0DEF82068C06916
:1059500050F400602168C8612068C06930F480603C
:105960002168C8612068C069296950EA012021685E
:10597000C861FFE7012084F83D00002084F83C0066
:10598000002070BD0368724A904208D0B0F1804F89
:1059900005D0704A904202D06F4A904203D133F052
:1059A00070034A6813436A4A904208D0B0F1804FAE
:1059B00005D0684A904202D0674A904203D133F43E
:1059C0004073CA68134333F080034A69134303608A
:1059D0008A68C2620A6882625D4A904201D10A699D
:1059E000026301224261704730B4026A52085200D9
:1059F0000262046A4568836933F070039B089B0068
:105A00000A68134334F002048A681443504A9042EF
:105A100005D134F00804CA68144334F004044C4A35
:105A2000904207D135F4807535F400754A69154305
:105A30008A691543456083614A684263046230BCE9
:105A4000704730B4026A32F010020262036A44689E
:105A5000826932F4E04232F440720D6852EA052263
:105A600033F020038D6853EA0513394DA84206D15F
:105A700033F08003CD6853EA051333F04003344D0F
:105A8000A84209D134F4806434F400644D6954EAC6
:105A900085048D6954EA8504446082614D6885639C
:105AA000036230BC704730B4026A32F48072026222
:105AB000046A4568C36933F070039B089B000A6859
:105AC000134334F400748A6854EA0224204A904252
:105AD00006D134F40064CA6854EA022434F48064C1
