:020000040800F2
:1000000030060020091D0008911C0008931C000800
:10001000951C0008971C0008991C000800000000AF
:100020000000000000000000000000009B1C000811
:100030009D1C0008000000009F1C0008A11C000877
:100040003D1D0008411D0008451D0008491D000810
:100050004D1D0008511D0008551D0008591D0008C0
:100060005D1D0008611D0008651D0008691D000870
:100070006D1D0008711D0008A51C0008751D0008F5
:10008000791D00087D1D0008811D0008851D0008E0
:10009000891D00088D1D0008911D0008951D000890
:1000A000991D00089D1D0008A11D0008A51D000840
:1000B000A91D0008AD1D0008B11D0008B51D0008F0
:1000C000B91D0008BD1D0008C11D0008C51D0008A0
:1000D000C91D0008CD1D0008D11D0008D51D000850
:1000E000D91D0008DD1D0008E11D00082DE9F843B9
:1000F000040016D02078DFF88C64C10713D570682F
:1001000000F00C00042807D0706800F00C000828EC
:1001100040D17068C1033DD53168880303D560685C
:10012000002800F0F6802178DFF86474880719D57C
:10013000706810F00C0F07D0706800F00C000828F1
:1001400062D17068C1035FD43168880703D5206924
:10015000012840F0DE803168606921F0F80141EA51
:10016000C00131602178080772D5A069DFF8241436
:10017000002867D001220A6000F026FA0546706A5E
:10018000810700F1C88000F01FFA401B0228F6D951
:10019000032037E16068B0F5803F0FD038B931688F
:1001A00021F480313160306820F4802009E0B0F51E
:1001B000A02F316807D141F480213160306840F4CC
:1001C0008030306006E021F480313160326822F402
:1001D00080223260606858B100F0F6F90546316857
:1001E0008803A0D400F0F0F9401B6528F7D3CFE7CF
:1001F00000F0EAF905463068810394D500F0E4F98F
:10020000401B6528F7D3C3E7206970B1012139602D
:1002100000F0DAF905463068810700F1B68000F099
:10022000D3F9401B0228F6D9B2E7386000F0CCF9C8
:1002300005463068810795D500F0C6F9401B0228B5
:10024000F7D9A5E7086000F0BFF90546706A810795
:1002500070D500F0B9F9401B0228F7D998E708B922
:10026000306A09E00528306A06D140F004003062A7
:10027000306A40F0010005E0400840003062306A1A
:1002800020F00400306241F28938E06868B100F083
:100290009BF98146306A810700F1848000F094F96F
:1002A000A0EB09004045F5D372E700F08DF98146D7
:1002B000306A810776D500F087F9A0EB0900404548
:1002C000F6D365E700F080F9401B02287BD95FE791
:1002D00000F07AF9001B022840F28F8058E700F006
:1002E00093F804463068810140F18B8000F06CF98E
:1002F000001B0228F6D94BE701280AD07068226A51
:1003000000F48031914202BF00F47010616A8842AB
:1003100077D0012076E0DFF870020168C9084FF459
:100320007A72B1FBF2F2009200BF0098411E0028E1
:100330000091F9D12078410739D5F0690025C10035
:1003400009D4F06940F08050F0610125F06900F0B7
:10035000805000900098DFF84082D8F80010C8055F
:100360001BD4D8F8000040F48070C8F8000000F0FA
:100370002BF98146D8F80010C8050ED400F024F9F6
:10038000A0EB09006528F5D302E73068616920F029
:10039000F80040EAC1003060E4E6E06801287FF43C
:1003A0005EAF65E71DB1F06920F08050F061E06953
:1003B00038B3716801F00C0108299DD002288ED154
:1003C00000F022F80546306881013FF57BAF206AD6
:1003D000B0F5803F05D17168A06821F40031014378
:1003E00071607168206A21F474110143606A0143ED
:1003F0007160012000F009F80446306881017FF542
:1004000067AF0020BDE8F2830020386600F0DCB85A
:100410002DE9F8430400884673D0604E306800F040
:100420000700404502D200F072F86AD12068554DAD
:10043000810712D5400703D5686840F4E060686022
:100440002178080703D5686840F4605068606968DF
:10045000A06821F0F001014369602078C10748D508
:100460006068012802D129688A0303E0022803D1C9
:1004700029688A0103D444E02A68910741D5696854
:10048000890840EA8100686041F2893900F09CF8EF
:1004900007466868616800F00C00B0EB810F28D057
:1004A00000F092F8C01B4845F3D303201FE02078EA
:1004B000410705D56968E06821F4E061014369609E
:1004C0002078010706D56868216920F4605040EA69
:1004D000C100686000F026F86A683149C2F303126F
:1004E000895C294AC840106000F00DF80020BDE882
:1004F000F283306800F007008045D8D200F007F89A
:10050000D5D00120F3E72748006800F063B83168D0
:10051000C90848EAC1013160306800F00700404571
:1005200070470000204919480A6802F00C03082BA4
:1005300000D0704710B500BF1EA4C2F38343D2039E
:10054000E35C09D5096800BF1EA2C1F340415843CE
:10055000515CB0FBF1F010BD18461449484310BD82
:100560000948114A006813681149C3F3022206E0E2
:1005700005480D4A006813680D49C3F3C222895C1F
:10058000C8407047001002400C00002000127A00A2
:1005900000004242800442420070004000200240BD
:1005A000C81B0008080000200410024000093D009C
:1005B000341D000802030405060708090A0B0C0D88
:1005C0000E0F10100102000001484068704700BF84
:1005D0000000002038B50D4D0D4A297804464FF42F
:1005E0007A70B0FBF1F11068B0FBF1F000F056F852
:1005F00050B9102C08D2002221464FF0FF3000F0F5
:1006000025F8AC60002032BD012032BD0000002082
:100610000C0000200901020081B002D42948815455
:1006200005E0294802F00F02104400F8041C01B054
:100630007047264A13684FF6FF0100020B4000F492
:10064000E0601843224908431060704738B51F4BDB
:100650001C68C4F30223C3F10704052C28BF04243B
:100660001D1D072D34BF0023DB1E012505FA04F4F0
:10067000641E2140994005FA03F35B1E1A401143A2
:10068000BDE83440C6E7010007D4012200F01F0195
:10069000104B8A40400943F82020704710B5401E97
:1006A000B0F1807F01D3012010BD0B4C60600F21A1
:1006B0004FF0FF30FFF7AEFF0022A260072020605E
:1006C000002010BD00E400E018ED00E00CED00E0BB
:1006D0000000FA0500E100E010E000E018B500BFFE
:1006E000ACA1A24CD1E9002391B00AA800F06BF8AC
:1006F00002A8202100F05AF99D4820600020606087
:10070000A060E06020616061A061204600F05CF9BB
:1007100008B100F005FB00F05BF808B100F000FB49
:10072000602000210A900B910C910E910F91109175
:100730000C220AA900F043F808B100F0F1FA0020F9
:100740004FF4005102900390049005900690079199
:10075000099002A9204600F004FB08B100F0E0FA7D
:10076000204600F0BAF812B010BD000030B500BF4E
:100770008AA1804CD1E9002389B000F023F8092038
:1007800060604FF080450020A060256000F05AF8BE
:1007900008B100F0C5FA00F01BF808B100F0C0FA8B
:1007A000602000210290039104910691002200F044
:1007B00005F808B100F0B4FA042239E002A9204695
:1007C00000F017B902A8CDE900231C2100F0EEB813
:1007D0000020009001906946204600F0A3BA000076
:1007E00030B500BF6FA1644C644DD1E9002389B0DE
:1007F000FFF7E8FF0920606025600020A06000F09E
:1008000021F808B100F08CFAFFF7E2FF08B100F020
:1008100087FA602002904FF4165100200391049053
:1008200006900822FFF7CAFF08B100F079FA0C22FF
:10083000FFF7C4FF08B100F073FA204600F04DF84E
:1008400009B030BD43F67F60E06000202061A06108
:10085000204600F0B9B838B500F081F825D1086815
:10086000474D40F400600860096801F400610091A0
:100870000098444929600020A86010218020E86089
:1008800069604FF4807028614FF4806068610020D7
:10089000A861E861284600F08FFA08B100F040FA3C
:1008A00025636C62A563656331BDB0F1804F07D1EC
:1008B000486840F001004860486800F0010009E025
:1008C0002E4A904208D1486840F0020048604868CB
:1008D00000F002000090009831BD18B585B00446C4
:1008E0006846102100F062F82168214B2648274A0B
:1008F000994208D100F029F84FF40062049900925F
:10090000019303931CE0B1F1804F07D100F01DF873
:100910000322049900920193039311E01748814246
:1009200011D1106840F008001060116801F0080152
:100930000491032104981648009102220192039227
:10094000694600F01FFB06B010BD116841F00401BC
:1009500011600223126802F00402049270470446F8
:10096000034A2068094990427047000000010020B6
:10097000002C0140400100208001002000040040C4
:10098000BC00002044000240000801401810024052
:10099000000C01400000000000000000000000000A
:1009A000000000000000000000000000002200F035
:1009B000D3BB000002206870211D206800F08DF874
:1009C00001206870002032BD38B5040001D101203B
:1009D00032BD00F00AF818B900F003F8FFF73BFF4A
:1009E000E8E7002129702046704704F13C0568784B
:1009F000704770B500F065F801D1022070BD00F0BD
:100A000067F832B1042A17D0082A28D00C2A39D026
:100A10004AE03068294600F08FF83068816941F07B
:100A2000080100F04AF821F00401816131688A6907
:100A3000286902438A6137E03068294600F09EF851
:100A40003068816941F4006100F037F821F4806179
:100A500000F033F82A6941EA0221816124E030681C
:100A6000294600F0B4F83068C16941F0080100F08F
:100A700020F821F00401C1613168CA692869024384
:100A8000CA6111E03068294600F0CCF83068C169CD
:100A900041F4006100F00DF821F4806100F009F8E4
:100AA0002A6941EA0221C1610120607000202070A2
:100AB00070BDC1613068C16970478161306881690A
:100AC0007047064606F13C040D4620780128704721
:100AD0000121217002206070704770B5614E03687B
:100AE000614C624DB04218BFB0F1804F03D0A842B4
:100AF00018BFA04209D14A6823F070031343B042E3
:100B00001CBFB0F1804FA84201D0A04203D1CA68F7
:100B100023F4407313434A6923F0800313430360B3
:100B2000B0428A68C2620A68826202D10969504A88
:100B300011600122426170BD30B5026A5208520054
:100B40000262056A4368846900F066F825F00205D0
:100B50001543444A90420BD123F44073CA6825F0F0
:100B6000080515434A6913438A6925F004051343B0
:100B70004360846149684163056230BD70B5026AB3
:100B8000384E22F010020262B042056A436884695E
:100B90000A6824F4E64444EA02248A6825F0200521
:100BA00045EA02150DD1CA684E6925F0800545EA6F
:100BB00002158A6923F44063164325F0400543EA91
:100BC00086034360846149688163056270BD70B5C6
:100BD000026A244E22F480720262056A4368C46984
:100BE00000F01AF825F40075B04245EA02250DD14F
:100BF000CA684E6925F4006545EA02258A6923F42E
:100C00004053164325F4806543EA06134360C461EC
:100C10004968C163056270BD0A6824F07304144317
:100C20008A68704770B5026A0E4E22F480520262E2
:100C3000B042046A4268C3690D6823F4E64343EA9C
:100C400005238D6824F4005444EA053404D14D6929
:100C500022F4804242EA85124260C361496801641D
:100C6000046270BD002C01400008004000040040F8
:100C7000302C014080B500F089FA00F01BF800F03C
:100C800097FA00F0E7FA00F0FDFA00F053FB00F0ED
:100C9000A9FBFFF723FDFFF769FDFFF7A1FD00F0BA
:100CA000FDFB03484FF4486101604160FEE700002E
:100CB0003C04004000B593B009A82821FFF776FE58
:100CC00004A81421FFF772FE68461021FFF76EFE9C
:100CD0000220099001210D9110200E900221109107
:100CE000002011904FF46011129109A8FFF7FEF94E
:100CF0000F2002210490059100204FF4806106909E
:100D000007910890022104A8FFF782FB02200090BF
:100D10004FF400410291684600F016FC13B000BD8C
:100D20007047000070B500F13C031A78012A01D128
:100D3000022070BD01241C7002225A70046865688C
:100D4000A6684A68096825F070050D43656026F0BD
:100D500080060068164386600121597000201870D3
:100D600070BD10B590F83C20012A01D1022010BDC1
:100D7000012380F83C30CC688A684B6824F44074C6
:100D8000144324F480641C430A680B6924F400644F
:100D9000144324F480541C434A69C96924F4005460
:100DA000144324F480440C4301684C64002280F80E
:100DB0003C20002010BD000010B508B9012010BD76
:100DC0000368DFF89C11C918142400F13802B1FB44
:100DD000F4F4DFF890115160A4009460022180F8CF
:100DE00021101C6841686FF30D140C4381680C439B
:100DF000C1680C4301690C4341690C4381690C4390
:100E0000C1690C431C6000211160012180F8211090
:100E10000021FFE780F82010002010BD2DE9F84FD9
:100E200000F1280204275169544BD1F800E004680E
:100E3000534925689669DFF84081DFF83891DFF87B
:100E400030A1DFF828B1DFF820C1B7401EEA070F54
:100E50002DD06F072BD52568AD0603D4256825F066
:100E6000040525600468644508BF042318D05C4568
:100E700008BF402314D0544508BF4FF480630FD0FF
:100E80004C4508BF4FF480430AD0444508BF4FF497
:100E9000802305D09C420CBF4FF480034FF0806349
:100EA0000B605168002957D0BDE8F44F084702276E
:100EB000B7401EEA070F32D0AF0730D52568AD0620
:100EC00006D4256825F00A052560012480F8214014
:100ED0000468644508BF022318D05C4508BF20237E
:100EE00014D0544508BF4FF400730FD04C4508BFD1
:100EF0004FF400530AD0444508BF4FF4003305D0E7
:100F00009C420CBF4FF400134FF000730B600021A4
:100F100080F820101168F9B1BDE8F44F08470821A6
:100F200001FA06F61EEA060F16D0290714D5216825
:100F300021F00E012160012391698B4051694B60C2
:100F400001230021136180F8201080F8213091687E
:100F500011B1BDE8F44F0847BDE8F18F0000000073
:100F6000F8FFFDBF00000240080002401C000240E4
:100F70003000024044000240580002406C00024031
:100F8000040002402DE9F84F00240025654A664B15
:100F9000DFF898814FF00F094FF0010A83468E4623
:100FA0000CE0D1680840D06007E09660DEF804608D
:100FB000B602F6D5D0680143D160641CDEF800109B
:100FC00031FA04F000F0A6800AFA04F73940B94279
:100FD000F3D1DEF8040058B301281AD002281FD03C
:100FE000032833D0112817D012281DD0504EB042FC
:100FF0001CBF504EB0421BD04F4EB0421CBF4F4E94
:10100000B04215D04E4EB0421CBF4E4EB0420FD033
:101010001DE0DEF80C501AE0DEF80C502D1D16E035
:10102000DEF80C50083512E0DEF80C500C350EE0FE
:10103000DEF8080008B9042509E0012819BF0825D1
:10104000CBF814700825CBF8107000E00025B1F53E
:10105000807F03D258464FEA840C05E0A4F10806CD
:101060000BF104004FEA860C066809FA0CF7BE4340
:1010700005FA0CF73E430660DEF80400C0009CD57C
:10108000D8F8000040F00100C8F80000A600D8F829
:10109000000000F00100009006F00C0C0098A00881
:1010A00053F8207009FA0CF627EA0606264FBB45CE
:1010B00008BF00270ED0254FBB4508BF012709D028
:1010C000234FBB4508BF022704D0224FBB450CBFAE
:1010D0000327042707FA0CF73E4343F82060C84370
:1010E000DEF80460F60316684CBF0E430640166037
:1010F000DEF80460B60356684CBF0E4306405660E7
:10110000DEF804609768F6024CBF41EA070600EA81
:1011100007064AE7BDE8F18F81B002B90904016111
:1011200001B070470004014008000140181002405F
:101130000000111000001210000021100000221009
:10114000000031100000321000080140000C014086
:10115000001001400014014000B500BF1300964686
:101160009446103928BFA0E80C50FAD85FEA417CB9
:1011700028BF0CC048BF40F8042BC90728BF20F87F
:10118000022B48BF00F8012B00BD000080B50748C6
:10119000016841F0100101600320FFF74AFA0020C6
:1011A000FFF718FA00F044FA002002BD00200240C8
:1011B00030B585B068461021FFF7F8FB1D481E4D7D
:1011C000046844F004040460002201681B4C01F030
:1011D000040104910499016841F0080101604FF491
:1011E0000141006800F00800049004982046FFF7D1
:1011F00093FF002208212846FFF78EFF4FF480500E
:10120000009000200E490191029069462846FFF7A0
:10121000B9FE4FF4014000F015F820466946FFF78B
:10122000B1FE082000F00EF828466946FFF7AAFE36
:1012300005B030BD18100240000C0140000801400C
:101240000000111001210090019100200221029064
:101250000391704780B50A48016841F001010160BF
:101260000022006800F001000090002100980E208C
:10127000FFF7ECF9BDE802400E20FFF704BA00BF0B
:10128000141002403EB5684600210022002380E889
:101290000E004FF46020234C234DE061A16001203B
:1012A00020612173217561602560204600F0E2F91C
:1012B00008B1FFF735FD03200090012100200191C6
:1012C00002906946204600F04FFA08B1FFF728FD6A
:1012D00037BD18B585B0044601A81021FFF766FB9D
:1012E0002168114A91421AD11048026842F40072F2
:1012F00002600322016801F4007100910099016805
:1013000041F0040101600821006800F00400009031
:10131000009807480191029201A9FFF733FE06B039
:1013200010BD0000000200200024014018100240FF
:101330000008014080B525482549016025494160E4
:1013400000218160C1604FF4804101610021416151
:101350008161C161016200F0B3FA18B1BDE80140DA
:10136000FFF7DEBC01BD18B585B0044601A8102109
:10137000FFF71CFB2168164A914224D1164C2068C5
:1013800040F0080020601222216801F0080100915D
:101390004FF440710098019103200490029201A93A
:1013A0000E48FFF7EFFD0E48016841F0E06141F0A3
:1013B00002010160606840F400106060606800F441
:1013C00000100090009806B010BD000068000020DA
:1013D00000540040A086010018100240000C01409B
:1013E0000400014080B52948294901604FF4827109
:1013F000416000218160C160016141614FF4007171
:1014000081610021C1610162416281620A21C16280
:1014100000F0F8FA18B1BDE80140FFF781BC01BD4A
:1014200018B585B0044601A81021FFF7BFFA21685E
:10143000174A914228D11748174C416841F480411E
:1014400041600222416801F48041009100990168E5
:1014500041F0080101604FF42041006800F00800ED
:1014600000900098019103200490029201A9204667
:10147000FFF788FD4FF48040002101900291039115
:10148000204601A9FFF77EFD06B010BD1000002028
:101490000038004018100240000C014080B526487A
:1014A000264901604FF4E131416000218160C16053
:1014B00001610C21416100218161C16100F0E2FA0A
:1014C00018B1BDE80140FFF72BBC01BD18B585B0D0
:1014D000044601A81021FFF769FA2168174A9142D2
:1014E00028D11748174C026842F480420260022259
:1014F000016801F4804100910099016841F0040104
:1015000001604FF40071006800F004000090009842
:10151000019103200490029201A92046FFF732FDB9
:101520004FF480600021019002910391204601A9AF
:10153000FFF728FD06B010BDC001002000380140B3
:1015400018100240000801402DE9FC410646354DC7
:101550003078C10750D5A8690024C10009D4A86912
:1015600040F08050A8610124A86900F080500090EC
:1015700000982D4F3968C80517D4386840F480703A
:101580003860FFF721F880463968C8050DD4FFF7A9
:101590001BF8A0EB08006528F6D303203FE0FFF717
:1015A00013F8C01B404519D3F7E7E86910F4407001
:1015B0001EBF716801F44071884212D01B49E8696E
:1015C00001220A6020F4407000220A60E861C0072E
:1015D00007D5FEF7F9FF074641F28938E869810728
:1015E000DDD5E969706821F440710143E9611CB1FE
:1015F000A86920F08050A8613178880705D52A684D
:10160000B06822F4404202432A603078C10605D512
:101610002968F06821F48001014329600020BDE8B9
:10162000F681000004100240007000404004424275
:101630000E4881B0016841F001010160026802F0CA
:10164000010200920099416841F080514160406878
:1016500000F08050009000980548016821F0E0619A
:1016600041F00071016001B0704700BF18100240E6
:1016700004000140F8B5044600270026002C71D074
:1016800004F12405686820B9AE6028702046FFF791
:1016900020FE204600F0F2F86968CA065ED4010018
:1016A0005CD1696821F4885141F002016960636886
:1016B000E269217B1343A268B2F5807F14BF012A3F
:1016C0004FF48077227D012A43EA41030FD131B9DB
:1016D000A169491E490341F400610F4307E06968AD
:1016E00041F020016960A96841F00101A960216809
:1016F0004A6822F4694217434F602268DFF8641198
:1017000097680F401F439760A168B1F5807F18BFAD
:10171000012902D12669761E36052168CA6A22F49B
:1017200070021643CE622468DFF83C11A2680A40BA
:101730009A4208D10021A960696821F0020141F0B4
:1017400001016960F2BD686820F0020040F01000FD
:101750006860A86840F00100A86003E0686840F095
:10176000100068600120F2BDF8B50A46002100F1C2
:10177000240300911C78012C01D10220F2BD012527
:101780001D701F27546815680668072C08D2641E50
:1017900004EB8404D6F834C000F05EF8756312E000
:1017A0000D2C08D2E41F04EB8404D6F830C000F0FE
:1017B00053F8356307E00D3C04EB8404D6F82CC0E5
:1017C00000F04AF8F56207271668946805680A2E43
:1017D00008D30A3E06EB4606D5F80CC000F036F8F2
:1017E000EC6006E006EB4606D5F810C000F02EF8D7
:1017F0002C611468102C18BF112C23D100681C4CCC
:10180000A0421AD11B48046825021BD4056845F480
:10181000000505601068102814D1144C164825687E
:10182000B5FBF0F00A2250430090009800281EBF3C
:10183000009A521E0092F8D104E00121586840F04D
:1018400020005860002018700846F2BDB7402CEA0E
:101850000707B4403C437047A7402CEA0707A54060
:101860003D437047FDF7E1FFFE0E1FFF0C00002017
:10187000002401400824014040420F0038B50446CE
:1018800020688168CA0719D58168490849008160C4
:10189000FEF79AFE054620688168C8070ED5FEF758
:1018A00093FE401B0328F6D3A06A40F01000A0620C
:1018B000E06A40F00100E062012032BD002032BD4C
:1018C000F8B5040016D004F13C05687820B9002171
:1018D00029702046FFF747FD00F080F8FEF740FE34
:1018E00001466068DFF80421904205D2DFF800016C
:1018F000814205D20120F2BDDFF8F8008142F9D320
:10190000DFF8F400B1FBF0F320684668B60943EA5B
:10191000861646602668376A6068904206D34FF4A0
:10192000967043434FF47A70B3FBF0F35B1CBF092E
:1019300043EA87133362491E2368DE69676897426A
:1019400006D27F0000F044F8042913D2042111E0EC
:10195000A06820B907EB470700F03AF805E0192026
:10196000474300F035F841F4804108050CBF0121E0
:1019700041F40041DFF8840006400E43DE61216837
:101980000A68E06922F0C0020243206A02430A604A
:101990002168DFF86C008A68024020690243E06831
:1019A00002438A602168CA68A3696069120A034316
:1019B00043EA0222CA602068016841F00101016027
:1019C000002068602020687000202063A870F2BDAD
:1019D000B1FBF7F1491CC1F30B017047242068707B
:1019E000206801684908490001607047A18601002C
:1019F00080841E0000093D0040420F000030FFFFC0
:101A0000007CFFFF38B5040001D1012032BD002069
:101A1000A06204F15005687820B9002129702046A1
:101A2000FFF7FEFC0220687000F026F86268A068EC
:101A3000A1690243E06802432069024360690243EE
:101A400001F40071E0690A430243206A0243A06A7C
:101A5000024320680260A0692168000C00F00400C5
:101A600048602068C16921F40061C161002068609C
:101A700001206870002032BD2068016821F040011B
:101A80000160704738B5040001D1012032BD00F07B
:101A900022F808B900F023F800F013F800F024F859
:101AA000FFE7416100F001F832BD2068C16841F4F0
:101AB0000051C1600020686020206870A87000207C
:101AC0007047242068702068C16821F40051C1600B
:101AD000204600F013B804F13805687870470021FB
:101AE00029702046FFF7F2BC2068016921F490417B
:101AF00001612068416921F02A01704770B50446F0
:101B0000642521680A69E06822F4405202430A61B0
:101B10001926CA6817480240A06802432069024398
:101B200060690243CA604A69A06922F440720243B4
:101B300011484A61814202D1FEF71AFD01E0FEF729
:101B40000FFD464360688000B6FBF0F06421B0FBF7
:101B5000F1F105FB11052D0132356420B5FBF0F0E4
:101B600000F0F00202EB0112216800F00F00801873
:101B7000886070BDF3E9FFFF003801400E49086836
:101B800040F0010008604A680C4802404A600B6857
:101B90000B4803400B60086820F4802008604FF475
:101BA0001F004A6822F4FE024A6088604FF000601D
:101BB0000449086070470000001002400000FFF870
:101BC000FFFFF6FE08ED00E000000000000000004E
:101BD000010203040607080919E050F8042BD30793
:101BE00044BFA9F101039A18091F0023042942F8F0
:101BF000043BF9D25FEA817C134604D54FF0000C18
:101C0000A2F800C09B1CC90744BF0021197050F8FE
:101C1000041B0029E1D1704710B450F8041B79B1BE
:101C20000268436802440830DC0744BFA9F101049C
:101C3000E31852F8044B43F8044B091FF9D1ECE7C1
:101C400010BC704710B5074979441831064C7C44E4
:101C5000163404E00A68081D114488470146A14271
:101C6000F8D110BD08000000280000006DFFFFFF44
:101C70002002000010000020000000009DFFFFFF78
:101C80001000000094000000000000200000000090
:101C90007047FEE7FEE7FEE7FEE7704770477047D4
:101CA00000F006B80148FFF7B9B80000BC000020FA
:101CB00002494A68087882184A607047000000208C
:101CC00000F00DF8002801D0FFF7BCFFAFF3008053
:101CD0000020AFF30080FEF7CDFF00F002F80120F6
:101CE000704700F001B800000746384600F002F8DF
:101CF000FBE7000080B5AFF30080024A1100182016
:101D0000ABBEFBE7260002000148804701480047C0
:101D10007D1B0008291D00080100000000000000D4
:101D2000100000000024F400AFF30080AFF3008047
:101D3000FFF7C6FF0000000001020304FFF7FEBF2B
:101D4000FFF7FEBFFFF7FEBFFFF7FEBFFFF7FEBFC7
:101D5000FFF7FEBFFFF7FEBFFFF7FEBFFFF7FEBFB7
:101D6000FFF7FEBFFFF7FEBFFFF7FEBFFFF7FEBFA7
:101D7000FFF7FEBFFFF7FEBFFFF7FEBFFFF7FEBF97
:101D8000FFF7FEBFFFF7FEBFFFF7FEBFFFF7FEBF87
:101D9000FFF7FEBFFFF7FEBFFFF7FEBFFFF7FEBF77
:101DA000FFF7FEBFFFF7FEBFFFF7FEBFFFF7FEBF67
:101DB000FFF7FEBFFFF7FEBFFFF7FEBFFFF7FEBF57
:101DC000FFF7FEBFFFF7FEBFFFF7FEBFFFF7FEBF47
:101DD000FFF7FEBFFFF7FEBFFFF7FEBFFFF7FEBF37
:041DE000FFF7FEBF4C
:0400000508001D29A9
:00000001FF
